{
	"web3/contracts/CrowdFunding.sol": {
		"CrowdFunding": {
			"abi": [
				{
					"inputs": [
						{
							"internalType": "uint256",
							"name": "",
							"type": "uint256"
						}
					],
					"name": "campaigns",
					"outputs": [
						{
							"internalType": "address",
							"name": "owner",
							"type": "address"
						},
						{
							"internalType": "string",
							"name": "title",
							"type": "string"
						},
						{
							"internalType": "string",
							"name": "description",
							"type": "string"
						},
						{
							"internalType": "uint256",
							"name": "target",
							"type": "uint256"
						},
						{
							"internalType": "uint256",
							"name": "deadline",
							"type": "uint256"
						},
						{
							"internalType": "uint256",
							"name": "amountCollected",
							"type": "uint256"
						},
						{
							"internalType": "string",
							"name": "image",
							"type": "string"
						}
					],
					"stateMutability": "view",
					"type": "function"
				},
				{
					"inputs": [
						{
							"internalType": "address",
							"name": "_owner",
							"type": "address"
						},
						{
							"internalType": "string",
							"name": "_title",
							"type": "string"
						},
						{
							"internalType": "string",
							"name": "_description",
							"type": "string"
						},
						{
							"internalType": "uint256",
							"name": "_target",
							"type": "uint256"
						},
						{
							"internalType": "uint256",
							"name": "_deadline",
							"type": "uint256"
						},
						{
							"internalType": "string",
							"name": "_image",
							"type": "string"
						}
					],
					"name": "createCampaign",
					"outputs": [
						{
							"internalType": "uint256",
							"name": "",
							"type": "uint256"
						}
					],
					"stateMutability": "nonpayable",
					"type": "function"
				},
				{
					"inputs": [
						{
							"internalType": "uint256",
							"name": "_id",
							"type": "uint256"
						}
					],
					"name": "donateToCampaign",
					"outputs": [],
					"stateMutability": "payable",
					"type": "function"
				},
				{
					"inputs": [],
					"name": "getCampaigns",
					"outputs": [
						{
							"components": [
								{
									"internalType": "address",
									"name": "owner",
									"type": "address"
								},
								{
									"internalType": "string",
									"name": "title",
									"type": "string"
								},
								{
									"internalType": "string",
									"name": "description",
									"type": "string"
								},
								{
									"internalType": "uint256",
									"name": "target",
									"type": "uint256"
								},
								{
									"internalType": "uint256",
									"name": "deadline",
									"type": "uint256"
								},
								{
									"internalType": "uint256",
									"name": "amountCollected",
									"type": "uint256"
								},
								{
									"internalType": "string",
									"name": "image",
									"type": "string"
								},
								{
									"internalType": "address[]",
									"name": "donators",
									"type": "address[]"
								},
								{
									"internalType": "uint256[]",
									"name": "donations",
									"type": "uint256[]"
								}
							],
							"internalType": "struct CrowdFunding.Campaign[]",
							"name": "",
							"type": "tuple[]"
						}
					],
					"stateMutability": "view",
					"type": "function"
				},
				{
					"inputs": [
						{
							"internalType": "uint256",
							"name": "_id",
							"type": "uint256"
						}
					],
					"name": "getDonators",
					"outputs": [
						{
							"internalType": "address[]",
							"name": "",
							"type": "address[]"
						},
						{
							"internalType": "uint256[]",
							"name": "",
							"type": "uint256[]"
						}
					],
					"stateMutability": "view",
					"type": "function"
				},
				{
					"inputs": [],
					"name": "numberOfCampaigns",
					"outputs": [
						{
							"internalType": "uint256",
							"name": "",
							"type": "uint256"
						}
					],
					"stateMutability": "view",
					"type": "function"
				}
			],
			"devdoc": {
				"kind": "dev",
				"methods": {},
				"version": 1
			},
			"evm": {
				"assembly": "    /* \"web3/contracts/CrowdFunding.sol\":64:1885  contract CrowdFunding {... */\n  mstore(0x40, 0x80)\n    /* \"web3/contracts/CrowdFunding.sol\":399:400  0 */\n  0x00\n    /* \"web3/contracts/CrowdFunding.sol\":364:400  uint256 public numberOfCampaigns = 0 */\n  0x01\n  sstore\n    /* \"web3/contracts/CrowdFunding.sol\":64:1885  contract CrowdFunding {... */\n  callvalue\n  dup1\n  iszero\n  tag_1\n  jumpi\n  revert(0x00, 0x00)\ntag_1:\n  pop\n  dataSize(sub_0)\n  dup1\n  dataOffset(sub_0)\n  0x00\n  codecopy\n  0x00\n  return\nstop\n\nsub_0: assembly {\n        /* \"web3/contracts/CrowdFunding.sol\":64:1885  contract CrowdFunding {... */\n      mstore(0x40, 0x80)\n      jumpi(tag_1, lt(calldatasize, 0x04))\n      shr(0xe0, calldataload(0x00))\n      dup1\n      0x07ca140d\n      eq\n      tag_2\n      jumpi\n      dup1\n      0x0fa91fa9\n      eq\n      tag_3\n      jumpi\n      dup1\n      0x141961bc\n      eq\n      tag_4\n      jumpi\n      dup1\n      0x42a4fda8\n      eq\n      tag_5\n      jumpi\n      dup1\n      0x9943e3a1\n      eq\n      tag_6\n      jumpi\n      dup1\n      0xa6b03633\n      eq\n      tag_7\n      jumpi\n    tag_1:\n      revert(0x00, 0x00)\n        /* \"web3/contracts/CrowdFunding.sol\":364:400  uint256 public numberOfCampaigns = 0 */\n    tag_2:\n      callvalue\n      dup1\n      iszero\n      tag_8\n      jumpi\n      revert(0x00, 0x00)\n    tag_8:\n      pop\n      tag_9\n      tag_10\n      jump\t// in\n    tag_9:\n      mload(0x40)\n      tag_11\n      swap2\n      swap1\n      tag_12\n      jump\t// in\n    tag_11:\n      mload(0x40)\n      dup1\n      swap2\n      sub\n      swap1\n      return\n        /* \"web3/contracts/CrowdFunding.sol\":1419:1579  function getDonators(uint256 _id) view public returns (address[] memory, uint256[] memory) {... */\n    tag_3:\n      callvalue\n      dup1\n      iszero\n      tag_13\n      jumpi\n      revert(0x00, 0x00)\n    tag_13:\n      pop\n      tag_14\n      0x04\n      dup1\n      calldatasize\n      sub\n      dup2\n      add\n      swap1\n      tag_15\n      swap2\n      swap1\n      tag_16\n      jump\t// in\n    tag_15:\n      tag_17\n      jump\t// in\n    tag_14:\n      mload(0x40)\n      tag_18\n      swap3\n      swap2\n      swap1\n      tag_19\n      jump\t// in\n    tag_18:\n      mload(0x40)\n      dup1\n      swap2\n      sub\n      swap1\n      return\n        /* \"web3/contracts/CrowdFunding.sol\":314:359  mapping(uint256 => Campaign) public campaigns */\n    tag_4:\n      callvalue\n      dup1\n      iszero\n      tag_20\n      jumpi\n      revert(0x00, 0x00)\n    tag_20:\n      pop\n      tag_21\n      0x04\n      dup1\n      calldatasize\n      sub\n      dup2\n      add\n      swap1\n      tag_22\n      swap2\n      swap1\n      tag_16\n      jump\t// in\n    tag_22:\n      tag_23\n      jump\t// in\n    tag_21:\n      mload(0x40)\n      tag_24\n      swap8\n      swap7\n      swap6\n      swap5\n      swap4\n      swap3\n      swap2\n      swap1\n      tag_25\n      jump\t// in\n    tag_24:\n      mload(0x40)\n      dup1\n      swap2\n      sub\n      swap1\n      return\n        /* \"web3/contracts/CrowdFunding.sol\":1038:1415  function donateToCampaign(uint256 _id) public payable {... */\n    tag_5:\n      tag_26\n      0x04\n      dup1\n      calldatasize\n      sub\n      dup2\n      add\n      swap1\n      tag_27\n      swap2\n      swap1\n      tag_16\n      jump\t// in\n    tag_27:\n      tag_28\n      jump\t// in\n    tag_26:\n      stop\n        /* \"web3/contracts/CrowdFunding.sol\":405:1034  function createCampaign(address _owner, string memory _title, string memory _description, uint256 _target, uint256 _deadline, string memory _image) public returns (uint256) {... */\n    tag_6:\n      callvalue\n      dup1\n      iszero\n      tag_29\n      jumpi\n      revert(0x00, 0x00)\n    tag_29:\n      pop\n      tag_30\n      0x04\n      dup1\n      calldatasize\n      sub\n      dup2\n      add\n      swap1\n      tag_31\n      swap2\n      swap1\n      tag_32\n      jump\t// in\n    tag_31:\n      tag_33\n      jump\t// in\n    tag_30:\n      mload(0x40)\n      tag_34\n      swap2\n      swap1\n      tag_12\n      jump\t// in\n    tag_34:\n      mload(0x40)\n      dup1\n      swap2\n      sub\n      swap1\n      return\n        /* \"web3/contracts/CrowdFunding.sol\":1583:1883  function getCampaigns() public view returns (Campaign[] memory) {... */\n    tag_7:\n      callvalue\n      dup1\n      iszero\n      tag_35\n      jumpi\n      revert(0x00, 0x00)\n    tag_35:\n      pop\n      tag_36\n      tag_37\n      jump\t// in\n    tag_36:\n      mload(0x40)\n      tag_38\n      swap2\n      swap1\n      tag_39\n      jump\t// in\n    tag_38:\n      mload(0x40)\n      dup1\n      swap2\n      sub\n      swap1\n      return\n        /* \"web3/contracts/CrowdFunding.sol\":364:400  uint256 public numberOfCampaigns = 0 */\n    tag_10:\n      sload(0x01)\n      dup2\n      jump\t// out\n        /* \"web3/contracts/CrowdFunding.sol\":1419:1579  function getDonators(uint256 _id) view public returns (address[] memory, uint256[] memory) {... */\n    tag_17:\n        /* \"web3/contracts/CrowdFunding.sol\":1474:1490  address[] memory */\n      0x60\n        /* \"web3/contracts/CrowdFunding.sol\":1492:1508  uint256[] memory */\n      dup1\n        /* \"web3/contracts/CrowdFunding.sol\":1524:1533  campaigns */\n      0x00\n        /* \"web3/contracts/CrowdFunding.sol\":1524:1538  campaigns[_id] */\n      0x00\n        /* \"web3/contracts/CrowdFunding.sol\":1534:1537  _id */\n      dup5\n        /* \"web3/contracts/CrowdFunding.sol\":1524:1538  campaigns[_id] */\n      dup2\n      mstore\n      0x20\n      add\n      swap1\n      dup2\n      mstore\n      0x20\n      add\n      0x00\n      keccak256\n        /* \"web3/contracts/CrowdFunding.sol\":1524:1547  campaigns[_id].donators */\n      0x07\n      add\n        /* \"web3/contracts/CrowdFunding.sol\":1549:1558  campaigns */\n      0x00\n        /* \"web3/contracts/CrowdFunding.sol\":1549:1563  campaigns[_id] */\n      0x00\n        /* \"web3/contracts/CrowdFunding.sol\":1559:1562  _id */\n      dup6\n        /* \"web3/contracts/CrowdFunding.sol\":1549:1563  campaigns[_id] */\n      dup2\n      mstore\n      0x20\n      add\n      swap1\n      dup2\n      mstore\n      0x20\n      add\n      0x00\n      keccak256\n        /* \"web3/contracts/CrowdFunding.sol\":1549:1573  campaigns[_id].donations */\n      0x08\n      add\n        /* \"web3/contracts/CrowdFunding.sol\":1516:1574  return (campaigns[_id].donators, campaigns[_id].donations) */\n      dup2\n      dup1\n      sload\n      dup1\n      0x20\n      mul\n      0x20\n      add\n      mload(0x40)\n      swap1\n      dup2\n      add\n      0x40\n      mstore\n      dup1\n      swap3\n      swap2\n      swap1\n      dup2\n      dup2\n      mstore\n      0x20\n      add\n      dup3\n      dup1\n      sload\n      dup1\n      iszero\n      tag_41\n      jumpi\n      0x20\n      mul\n      dup3\n      add\n      swap2\n      swap1\n      0x00\n      mstore\n      keccak256(0x00, 0x20)\n      swap1\n    tag_42:\n      dup2\n      0x00\n      swap1\n      sload\n      swap1\n      0x0100\n      exp\n      swap1\n      div\n      0xffffffffffffffffffffffffffffffffffffffff\n      and\n      0xffffffffffffffffffffffffffffffffffffffff\n      and\n      dup2\n      mstore\n      0x20\n      add\n      swap1\n      0x01\n      add\n      swap1\n      dup1\n      dup4\n      gt\n      tag_42\n      jumpi\n    tag_41:\n      pop\n      pop\n      pop\n      pop\n      pop\n      swap2\n      pop\n      dup1\n      dup1\n      sload\n      dup1\n      0x20\n      mul\n      0x20\n      add\n      mload(0x40)\n      swap1\n      dup2\n      add\n      0x40\n      mstore\n      dup1\n      swap3\n      swap2\n      swap1\n      dup2\n      dup2\n      mstore\n      0x20\n      add\n      dup3\n      dup1\n      sload\n      dup1\n      iszero\n      tag_43\n      jumpi\n      0x20\n      mul\n      dup3\n      add\n      swap2\n      swap1\n      0x00\n      mstore\n      keccak256(0x00, 0x20)\n      swap1\n    tag_44:\n      dup2\n      sload\n      dup2\n      mstore\n      0x20\n      add\n      swap1\n      0x01\n      add\n      swap1\n      dup1\n      dup4\n      gt\n      tag_44\n      jumpi\n    tag_43:\n      pop\n      pop\n      pop\n      pop\n      pop\n      swap1\n      pop\n      swap2\n      pop\n      swap2\n      pop\n        /* \"web3/contracts/CrowdFunding.sol\":1419:1579  function getDonators(uint256 _id) view public returns (address[] memory, uint256[] memory) {... */\n      swap2\n      pop\n      swap2\n      jump\t// out\n        /* \"web3/contracts/CrowdFunding.sol\":314:359  mapping(uint256 => Campaign) public campaigns */\n    tag_23:\n      mstore(0x20, 0x00)\n      dup1\n      0x00\n      mstore\n      keccak256(0x00, 0x40)\n      0x00\n      swap2\n      pop\n      swap1\n      pop\n      dup1\n      0x00\n      add\n      0x00\n      swap1\n      sload\n      swap1\n      0x0100\n      exp\n      swap1\n      div\n      0xffffffffffffffffffffffffffffffffffffffff\n      and\n      swap1\n      dup1\n      0x01\n      add\n      dup1\n      sload\n      tag_45\n      swap1\n      tag_46\n      jump\t// in\n    tag_45:\n      dup1\n      0x1f\n      add\n      0x20\n      dup1\n      swap2\n      div\n      mul\n      0x20\n      add\n      mload(0x40)\n      swap1\n      dup2\n      add\n      0x40\n      mstore\n      dup1\n      swap3\n      swap2\n      swap1\n      dup2\n      dup2\n      mstore\n      0x20\n      add\n      dup3\n      dup1\n      sload\n      tag_47\n      swap1\n      tag_46\n      jump\t// in\n    tag_47:\n      dup1\n      iszero\n      tag_48\n      jumpi\n      dup1\n      0x1f\n      lt\n      tag_49\n      jumpi\n      0x0100\n      dup1\n      dup4\n      sload\n      div\n      mul\n      dup4\n      mstore\n      swap2\n      0x20\n      add\n      swap2\n      jump(tag_48)\n    tag_49:\n      dup3\n      add\n      swap2\n      swap1\n      0x00\n      mstore\n      keccak256(0x00, 0x20)\n      swap1\n    tag_50:\n      dup2\n      sload\n      dup2\n      mstore\n      swap1\n      0x01\n      add\n      swap1\n      0x20\n      add\n      dup1\n      dup4\n      gt\n      tag_50\n      jumpi\n      dup3\n      swap1\n      sub\n      0x1f\n      and\n      dup3\n      add\n      swap2\n    tag_48:\n      pop\n      pop\n      pop\n      pop\n      pop\n      swap1\n      dup1\n      0x02\n      add\n      dup1\n      sload\n      tag_51\n      swap1\n      tag_46\n      jump\t// in\n    tag_51:\n      dup1\n      0x1f\n      add\n      0x20\n      dup1\n      swap2\n      div\n      mul\n      0x20\n      add\n      mload(0x40)\n      swap1\n      dup2\n      add\n      0x40\n      mstore\n      dup1\n      swap3\n      swap2\n      swap1\n      dup2\n      dup2\n      mstore\n      0x20\n      add\n      dup3\n      dup1\n      sload\n      tag_52\n      swap1\n      tag_46\n      jump\t// in\n    tag_52:\n      dup1\n      iszero\n      tag_53\n      jumpi\n      dup1\n      0x1f\n      lt\n      tag_54\n      jumpi\n      0x0100\n      dup1\n      dup4\n      sload\n      div\n      mul\n      dup4\n      mstore\n      swap2\n      0x20\n      add\n      swap2\n      jump(tag_53)\n    tag_54:\n      dup3\n      add\n      swap2\n      swap1\n      0x00\n      mstore\n      keccak256(0x00, 0x20)\n      swap1\n    tag_55:\n      dup2\n      sload\n      dup2\n      mstore\n      swap1\n      0x01\n      add\n      swap1\n      0x20\n      add\n      dup1\n      dup4\n      gt\n      tag_55\n      jumpi\n      dup3\n      swap1\n      sub\n      0x1f\n      and\n      dup3\n      add\n      swap2\n    tag_53:\n      pop\n      pop\n      pop\n      pop\n      pop\n      swap1\n      dup1\n      0x03\n      add\n      sload\n      swap1\n      dup1\n      0x04\n      add\n      sload\n      swap1\n      dup1\n      0x05\n      add\n      sload\n      swap1\n      dup1\n      0x06\n      add\n      dup1\n      sload\n      tag_56\n      swap1\n      tag_46\n      jump\t// in\n    tag_56:\n      dup1\n      0x1f\n      add\n      0x20\n      dup1\n      swap2\n      div\n      mul\n      0x20\n      add\n      mload(0x40)\n      swap1\n      dup2\n      add\n      0x40\n      mstore\n      dup1\n      swap3\n      swap2\n      swap1\n      dup2\n      dup2\n      mstore\n      0x20\n      add\n      dup3\n      dup1\n      sload\n      tag_57\n      swap1\n      tag_46\n      jump\t// in\n    tag_57:\n      dup1\n      iszero\n      tag_58\n      jumpi\n      dup1\n      0x1f\n      lt\n      tag_59\n      jumpi\n      0x0100\n      dup1\n      dup4\n      sload\n      div\n      mul\n      dup4\n      mstore\n      swap2\n      0x20\n      add\n      swap2\n      jump(tag_58)\n    tag_59:\n      dup3\n      add\n      swap2\n      swap1\n      0x00\n      mstore\n      keccak256(0x00, 0x20)\n      swap1\n    tag_60:\n      dup2\n      sload\n      dup2\n      mstore\n      swap1\n      0x01\n      add\n      swap1\n      0x20\n      add\n      dup1\n      dup4\n      gt\n      tag_60\n      jumpi\n      dup3\n      swap1\n      sub\n      0x1f\n      and\n      dup3\n      add\n      swap2\n    tag_58:\n      pop\n      pop\n      pop\n      pop\n      pop\n      swap1\n      pop\n      dup8\n      jump\t// out\n        /* \"web3/contracts/CrowdFunding.sol\":1038:1415  function donateToCampaign(uint256 _id) public payable {... */\n    tag_28:\n        /* \"web3/contracts/CrowdFunding.sol\":1098:1112  uint256 amount */\n      0x00\n        /* \"web3/contracts/CrowdFunding.sol\":1115:1124  msg.value */\n      callvalue\n        /* \"web3/contracts/CrowdFunding.sol\":1098:1124  uint256 amount = msg.value */\n      swap1\n      pop\n        /* \"web3/contracts/CrowdFunding.sol\":1131:1156  Campaign storage campaign */\n      0x00\n        /* \"web3/contracts/CrowdFunding.sol\":1159:1168  campaigns */\n      0x00\n        /* \"web3/contracts/CrowdFunding.sol\":1159:1173  campaigns[_id] */\n      0x00\n        /* \"web3/contracts/CrowdFunding.sol\":1169:1172  _id */\n      dup5\n        /* \"web3/contracts/CrowdFunding.sol\":1159:1173  campaigns[_id] */\n      dup2\n      mstore\n      0x20\n      add\n      swap1\n      dup2\n      mstore\n      0x20\n      add\n      0x00\n      keccak256\n        /* \"web3/contracts/CrowdFunding.sol\":1131:1173  Campaign storage campaign = campaigns[_id] */\n      swap1\n      pop\n        /* \"web3/contracts/CrowdFunding.sol\":1180:1188  campaign */\n      dup1\n        /* \"web3/contracts/CrowdFunding.sol\":1180:1197  campaign.donators */\n      0x07\n      add\n        /* \"web3/contracts/CrowdFunding.sol\":1203:1213  msg.sender */\n      caller\n        /* \"web3/contracts/CrowdFunding.sol\":1180:1214  campaign.donators.push(msg.sender) */\n      swap1\n      dup1\n      0x01\n      dup2\n      sload\n      add\n      dup1\n      dup3\n      sstore\n      dup1\n      swap2\n      pop\n      pop\n      0x01\n      swap1\n      sub\n      swap1\n      0x00\n      mstore\n      keccak256(0x00, 0x20)\n      add\n      0x00\n      swap1\n      swap2\n      swap1\n      swap2\n      swap1\n      swap2\n      0x0100\n      exp\n      dup2\n      sload\n      dup2\n      0xffffffffffffffffffffffffffffffffffffffff\n      mul\n      not\n      and\n      swap1\n      dup4\n      0xffffffffffffffffffffffffffffffffffffffff\n      and\n      mul\n      or\n      swap1\n      sstore\n      pop\n        /* \"web3/contracts/CrowdFunding.sol\":1220:1228  campaign */\n      dup1\n        /* \"web3/contracts/CrowdFunding.sol\":1220:1238  campaign.donations */\n      0x08\n      add\n        /* \"web3/contracts/CrowdFunding.sol\":1244:1250  amount */\n      dup3\n        /* \"web3/contracts/CrowdFunding.sol\":1220:1251  campaign.donations.push(amount) */\n      swap1\n      dup1\n      0x01\n      dup2\n      sload\n      add\n      dup1\n      dup3\n      sstore\n      dup1\n      swap2\n      pop\n      pop\n      0x01\n      swap1\n      sub\n      swap1\n      0x00\n      mstore\n      keccak256(0x00, 0x20)\n      add\n      0x00\n      swap1\n      swap2\n      swap1\n      swap2\n      swap1\n      swap2\n      pop\n      sstore\n        /* \"web3/contracts/CrowdFunding.sol\":1259:1268  bool sent */\n      0x00\n        /* \"web3/contracts/CrowdFunding.sol\":1281:1289  campaign */\n      dup2\n        /* \"web3/contracts/CrowdFunding.sol\":1281:1295  campaign.owner */\n      0x00\n      add\n      0x00\n      swap1\n      sload\n      swap1\n      0x0100\n      exp\n      swap1\n      div\n      0xffffffffffffffffffffffffffffffffffffffff\n      and\n        /* \"web3/contracts/CrowdFunding.sol\":1273:1301  payable(campaign.owner).call */\n      0xffffffffffffffffffffffffffffffffffffffff\n      and\n        /* \"web3/contracts/CrowdFunding.sol\":1309:1315  amount */\n      dup4\n        /* \"web3/contracts/CrowdFunding.sol\":1273:1320  payable(campaign.owner).call{value: amount}(\"\") */\n      mload(0x40)\n      tag_64\n      swap1\n      tag_65\n      jump\t// in\n    tag_64:\n      0x00\n      mload(0x40)\n      dup1\n      dup4\n      sub\n      dup2\n      dup6\n      dup8\n      gas\n      call\n      swap3\n      pop\n      pop\n      pop\n      returndatasize\n      dup1\n      0x00\n      dup2\n      eq\n      tag_68\n      jumpi\n      mload(0x40)\n      swap2\n      pop\n      and(add(returndatasize, 0x3f), not(0x1f))\n      dup3\n      add\n      0x40\n      mstore\n      returndatasize\n      dup3\n      mstore\n      returndatasize\n      0x00\n      0x20\n      dup5\n      add\n      returndatacopy\n      jump(tag_67)\n    tag_68:\n      0x60\n      swap2\n      pop\n    tag_67:\n      pop\n        /* \"web3/contracts/CrowdFunding.sol\":1258:1320  (bool sent,) = payable(campaign.owner).call{value: amount}(\"\") */\n      pop\n      swap1\n      pop\n        /* \"web3/contracts/CrowdFunding.sol\":1330:1334  sent */\n      dup1\n        /* \"web3/contracts/CrowdFunding.sol\":1327:1411  if(sent) {... */\n      iszero\n      tag_69\n      jumpi\n        /* \"web3/contracts/CrowdFunding.sol\":1398:1404  amount */\n      dup3\n        /* \"web3/contracts/CrowdFunding.sol\":1371:1379  campaign */\n      dup3\n        /* \"web3/contracts/CrowdFunding.sol\":1371:1395  campaign.amountCollected */\n      0x05\n      add\n      sload\n        /* \"web3/contracts/CrowdFunding.sol\":1371:1404  campaign.amountCollected + amount */\n      tag_70\n      swap2\n      swap1\n      tag_71\n      jump\t// in\n    tag_70:\n        /* \"web3/contracts/CrowdFunding.sol\":1344:1352  campaign */\n      dup3\n        /* \"web3/contracts/CrowdFunding.sol\":1344:1368  campaign.amountCollected */\n      0x05\n      add\n        /* \"web3/contracts/CrowdFunding.sol\":1344:1404  campaign.amountCollected = campaign.amountCollected + amount */\n      dup2\n      swap1\n      sstore\n      pop\n        /* \"web3/contracts/CrowdFunding.sol\":1327:1411  if(sent) {... */\n    tag_69:\n        /* \"web3/contracts/CrowdFunding.sol\":1092:1415  {... */\n      pop\n      pop\n      pop\n        /* \"web3/contracts/CrowdFunding.sol\":1038:1415  function donateToCampaign(uint256 _id) public payable {... */\n      pop\n      jump\t// out\n        /* \"web3/contracts/CrowdFunding.sol\":405:1034  function createCampaign(address _owner, string memory _title, string memory _description, uint256 _target, uint256 _deadline, string memory _image) public returns (uint256) {... */\n    tag_33:\n        /* \"web3/contracts/CrowdFunding.sol\":569:576  uint256 */\n      0x00\n        /* \"web3/contracts/CrowdFunding.sol\":584:609  Campaign storage campaign */\n      0x00\n        /* \"web3/contracts/CrowdFunding.sol\":612:621  campaigns */\n      0x00\n        /* \"web3/contracts/CrowdFunding.sol\":612:640  campaigns[numberOfCampaigns] */\n      0x00\n        /* \"web3/contracts/CrowdFunding.sol\":622:639  numberOfCampaigns */\n      sload(0x01)\n        /* \"web3/contracts/CrowdFunding.sol\":612:640  campaigns[numberOfCampaigns] */\n      dup2\n      mstore\n      0x20\n      add\n      swap1\n      dup2\n      mstore\n      0x20\n      add\n      0x00\n      keccak256\n        /* \"web3/contracts/CrowdFunding.sol\":584:640  Campaign storage campaign = campaigns[numberOfCampaigns] */\n      swap1\n      pop\n        /* \"web3/contracts/CrowdFunding.sol\":675:690  block.timestamp */\n      timestamp\n        /* \"web3/contracts/CrowdFunding.sol\":655:663  campaign */\n      dup2\n        /* \"web3/contracts/CrowdFunding.sol\":655:672  campaign.deadline */\n      0x04\n      add\n      sload\n        /* \"web3/contracts/CrowdFunding.sol\":655:690  campaign.deadline < block.timestamp */\n      lt\n        /* \"web3/contracts/CrowdFunding.sol\":647:739  require(campaign.deadline < block.timestamp, \"The deadline should be a data in the future.\") */\n      tag_73\n      jumpi\n      mload(0x40)\n      0x08c379a000000000000000000000000000000000000000000000000000000000\n      dup2\n      mstore\n      0x04\n      add\n      tag_74\n      swap1\n      tag_75\n      jump\t// in\n    tag_74:\n      mload(0x40)\n      dup1\n      swap2\n      sub\n      swap1\n      revert\n    tag_73:\n        /* \"web3/contracts/CrowdFunding.sol\":763:769  _owner */\n      dup8\n        /* \"web3/contracts/CrowdFunding.sol\":746:754  campaign */\n      dup2\n        /* \"web3/contracts/CrowdFunding.sol\":746:760  campaign.owner */\n      0x00\n      add\n      0x00\n        /* \"web3/contracts/CrowdFunding.sol\":746:769  campaign.owner = _owner */\n      0x0100\n      exp\n      dup2\n      sload\n      dup2\n      0xffffffffffffffffffffffffffffffffffffffff\n      mul\n      not\n      and\n      swap1\n      dup4\n      0xffffffffffffffffffffffffffffffffffffffff\n      and\n      mul\n      or\n      swap1\n      sstore\n      pop\n        /* \"web3/contracts/CrowdFunding.sol\":792:798  _title */\n      dup7\n        /* \"web3/contracts/CrowdFunding.sol\":775:783  campaign */\n      dup2\n        /* \"web3/contracts/CrowdFunding.sol\":775:789  campaign.title */\n      0x01\n      add\n        /* \"web3/contracts/CrowdFunding.sol\":775:798  campaign.title = _title */\n      swap1\n      dup2\n      tag_76\n      swap2\n      swap1\n      tag_77\n      jump\t// in\n    tag_76:\n      pop\n        /* \"web3/contracts/CrowdFunding.sol\":827:839  _description */\n      dup6\n        /* \"web3/contracts/CrowdFunding.sol\":804:812  campaign */\n      dup2\n        /* \"web3/contracts/CrowdFunding.sol\":804:824  campaign.description */\n      0x02\n      add\n        /* \"web3/contracts/CrowdFunding.sol\":804:839  campaign.description = _description */\n      swap1\n      dup2\n      tag_78\n      swap2\n      swap1\n      tag_77\n      jump\t// in\n    tag_78:\n      pop\n        /* \"web3/contracts/CrowdFunding.sol\":863:870  _target */\n      dup5\n        /* \"web3/contracts/CrowdFunding.sol\":845:853  campaign */\n      dup2\n        /* \"web3/contracts/CrowdFunding.sol\":845:860  campaign.target */\n      0x03\n      add\n        /* \"web3/contracts/CrowdFunding.sol\":845:870  campaign.target = _target */\n      dup2\n      swap1\n      sstore\n      pop\n        /* \"web3/contracts/CrowdFunding.sol\":896:905  _deadline */\n      dup4\n        /* \"web3/contracts/CrowdFunding.sol\":876:884  campaign */\n      dup2\n        /* \"web3/contracts/CrowdFunding.sol\":876:893  campaign.deadline */\n      0x04\n      add\n        /* \"web3/contracts/CrowdFunding.sol\":876:905  campaign.deadline = _deadline */\n      dup2\n      swap1\n      sstore\n      pop\n        /* \"web3/contracts/CrowdFunding.sol\":938:939  0 */\n      0x00\n        /* \"web3/contracts/CrowdFunding.sol\":911:919  campaign */\n      dup2\n        /* \"web3/contracts/CrowdFunding.sol\":911:935  campaign.amountCollected */\n      0x05\n      add\n        /* \"web3/contracts/CrowdFunding.sol\":911:939  campaign.amountCollected = 0 */\n      dup2\n      swap1\n      sstore\n      pop\n        /* \"web3/contracts/CrowdFunding.sol\":962:968  _image */\n      dup3\n        /* \"web3/contracts/CrowdFunding.sol\":945:953  campaign */\n      dup2\n        /* \"web3/contracts/CrowdFunding.sol\":945:959  campaign.image */\n      0x06\n      add\n        /* \"web3/contracts/CrowdFunding.sol\":945:968  campaign.image = _image */\n      swap1\n      dup2\n      tag_79\n      swap2\n      swap1\n      tag_77\n      jump\t// in\n    tag_79:\n      pop\n        /* \"web3/contracts/CrowdFunding.sol\":975:992  numberOfCampaigns */\n      0x01\n      0x00\n        /* \"web3/contracts/CrowdFunding.sol\":975:994  numberOfCampaigns++ */\n      dup2\n      sload\n      dup1\n      swap3\n      swap2\n      swap1\n      tag_80\n      swap1\n      tag_81\n      jump\t// in\n    tag_80:\n      swap2\n      swap1\n      pop\n      sstore\n      pop\n        /* \"web3/contracts/CrowdFunding.sol\":1028:1029  1 */\n      0x01\n        /* \"web3/contracts/CrowdFunding.sol\":1008:1025  numberOfCampaigns */\n      dup1\n      sload\n        /* \"web3/contracts/CrowdFunding.sol\":1008:1029  numberOfCampaigns - 1 */\n      tag_82\n      swap2\n      swap1\n      tag_83\n      jump\t// in\n    tag_82:\n        /* \"web3/contracts/CrowdFunding.sol\":1001:1029  return numberOfCampaigns - 1 */\n      swap2\n      pop\n      pop\n        /* \"web3/contracts/CrowdFunding.sol\":405:1034  function createCampaign(address _owner, string memory _title, string memory _description, uint256 _target, uint256 _deadline, string memory _image) public returns (uint256) {... */\n      swap7\n      swap6\n      pop\n      pop\n      pop\n      pop\n      pop\n      pop\n      jump\t// out\n        /* \"web3/contracts/CrowdFunding.sol\":1583:1883  function getCampaigns() public view returns (Campaign[] memory) {... */\n    tag_37:\n        /* \"web3/contracts/CrowdFunding.sol\":1628:1645  Campaign[] memory */\n      0x60\n        /* \"web3/contracts/CrowdFunding.sol\":1653:1683  Campaign[] memory allCampaigns */\n      0x00\n        /* \"web3/contracts/CrowdFunding.sol\":1701:1718  numberOfCampaigns */\n      sload(0x01)\n        /* \"web3/contracts/CrowdFunding.sol\":1686:1719  new Campaign[](numberOfCampaigns) */\n      0xffffffffffffffff\n      dup2\n      gt\n      iszero\n      tag_85\n      jumpi\n      tag_86\n      tag_87\n      jump\t// in\n    tag_86:\n    tag_85:\n      mload(0x40)\n      swap1\n      dup1\n      dup3\n      mstore\n      dup1\n      0x20\n      mul\n      0x20\n      add\n      dup3\n      add\n      0x40\n      mstore\n      dup1\n      iszero\n      tag_88\n      jumpi\n      dup2\n      0x20\n      add\n    tag_89:\n      tag_90\n      tag_91\n      jump\t// in\n    tag_90:\n      dup2\n      mstore\n      0x20\n      add\n      swap1\n      0x01\n      swap1\n      sub\n      swap1\n      dup2\n      tag_89\n      jumpi\n      swap1\n      pop\n    tag_88:\n      pop\n        /* \"web3/contracts/CrowdFunding.sol\":1653:1719  Campaign[] memory allCampaigns = new Campaign[](numberOfCampaigns) */\n      swap1\n      pop\n        /* \"web3/contracts/CrowdFunding.sol\":1731:1737  uint i */\n      0x00\n        /* \"web3/contracts/CrowdFunding.sol\":1740:1741  0 */\n      0x00\n        /* \"web3/contracts/CrowdFunding.sol\":1731:1741  uint i = 0 */\n      swap1\n      pop\n        /* \"web3/contracts/CrowdFunding.sol\":1726:1853  for (uint i = 0; i < numberOfCampaigns; i++) {... */\n    tag_92:\n        /* \"web3/contracts/CrowdFunding.sol\":1747:1764  numberOfCampaigns */\n      sload(0x01)\n        /* \"web3/contracts/CrowdFunding.sol\":1743:1744  i */\n      dup2\n        /* \"web3/contracts/CrowdFunding.sol\":1743:1764  i < numberOfCampaigns */\n      lt\n        /* \"web3/contracts/CrowdFunding.sol\":1726:1853  for (uint i = 0; i < numberOfCampaigns; i++) {... */\n      iszero\n      tag_93\n      jumpi\n        /* \"web3/contracts/CrowdFunding.sol\":1779:1800  Campaign storage item */\n      0x00\n        /* \"web3/contracts/CrowdFunding.sol\":1803:1812  campaigns */\n      0x00\n        /* \"web3/contracts/CrowdFunding.sol\":1803:1815  campaigns[i] */\n      0x00\n        /* \"web3/contracts/CrowdFunding.sol\":1813:1814  i */\n      dup4\n        /* \"web3/contracts/CrowdFunding.sol\":1803:1815  campaigns[i] */\n      dup2\n      mstore\n      0x20\n      add\n      swap1\n      dup2\n      mstore\n      0x20\n      add\n      0x00\n      keccak256\n        /* \"web3/contracts/CrowdFunding.sol\":1779:1815  Campaign storage item = campaigns[i] */\n      swap1\n      pop\n        /* \"web3/contracts/CrowdFunding.sol\":1842:1846  item */\n      dup1\n        /* \"web3/contracts/CrowdFunding.sol\":1824:1846  allCampaigns[i] = item */\n      mload(0x40)\n      dup1\n      0x0120\n      add\n      0x40\n      mstore\n      swap1\n      dup2\n      0x00\n      dup3\n      add\n      0x00\n      swap1\n      sload\n      swap1\n      0x0100\n      exp\n      swap1\n      div\n      0xffffffffffffffffffffffffffffffffffffffff\n      and\n      0xffffffffffffffffffffffffffffffffffffffff\n      and\n      0xffffffffffffffffffffffffffffffffffffffff\n      and\n      dup2\n      mstore\n      0x20\n      add\n      0x01\n      dup3\n      add\n      dup1\n      sload\n      tag_95\n      swap1\n      tag_46\n      jump\t// in\n    tag_95:\n      dup1\n      0x1f\n      add\n      0x20\n      dup1\n      swap2\n      div\n      mul\n      0x20\n      add\n      mload(0x40)\n      swap1\n      dup2\n      add\n      0x40\n      mstore\n      dup1\n      swap3\n      swap2\n      swap1\n      dup2\n      dup2\n      mstore\n      0x20\n      add\n      dup3\n      dup1\n      sload\n      tag_96\n      swap1\n      tag_46\n      jump\t// in\n    tag_96:\n      dup1\n      iszero\n      tag_97\n      jumpi\n      dup1\n      0x1f\n      lt\n      tag_98\n      jumpi\n      0x0100\n      dup1\n      dup4\n      sload\n      div\n      mul\n      dup4\n      mstore\n      swap2\n      0x20\n      add\n      swap2\n      jump(tag_97)\n    tag_98:\n      dup3\n      add\n      swap2\n      swap1\n      0x00\n      mstore\n      keccak256(0x00, 0x20)\n      swap1\n    tag_99:\n      dup2\n      sload\n      dup2\n      mstore\n      swap1\n      0x01\n      add\n      swap1\n      0x20\n      add\n      dup1\n      dup4\n      gt\n      tag_99\n      jumpi\n      dup3\n      swap1\n      sub\n      0x1f\n      and\n      dup3\n      add\n      swap2\n    tag_97:\n      pop\n      pop\n      pop\n      pop\n      pop\n      dup2\n      mstore\n      0x20\n      add\n      0x02\n      dup3\n      add\n      dup1\n      sload\n      tag_100\n      swap1\n      tag_46\n      jump\t// in\n    tag_100:\n      dup1\n      0x1f\n      add\n      0x20\n      dup1\n      swap2\n      div\n      mul\n      0x20\n      add\n      mload(0x40)\n      swap1\n      dup2\n      add\n      0x40\n      mstore\n      dup1\n      swap3\n      swap2\n      swap1\n      dup2\n      dup2\n      mstore\n      0x20\n      add\n      dup3\n      dup1\n      sload\n      tag_101\n      swap1\n      tag_46\n      jump\t// in\n    tag_101:\n      dup1\n      iszero\n      tag_102\n      jumpi\n      dup1\n      0x1f\n      lt\n      tag_103\n      jumpi\n      0x0100\n      dup1\n      dup4\n      sload\n      div\n      mul\n      dup4\n      mstore\n      swap2\n      0x20\n      add\n      swap2\n      jump(tag_102)\n    tag_103:\n      dup3\n      add\n      swap2\n      swap1\n      0x00\n      mstore\n      keccak256(0x00, 0x20)\n      swap1\n    tag_104:\n      dup2\n      sload\n      dup2\n      mstore\n      swap1\n      0x01\n      add\n      swap1\n      0x20\n      add\n      dup1\n      dup4\n      gt\n      tag_104\n      jumpi\n      dup3\n      swap1\n      sub\n      0x1f\n      and\n      dup3\n      add\n      swap2\n    tag_102:\n      pop\n      pop\n      pop\n      pop\n      pop\n      dup2\n      mstore\n      0x20\n      add\n      0x03\n      dup3\n      add\n      sload\n      dup2\n      mstore\n      0x20\n      add\n      0x04\n      dup3\n      add\n      sload\n      dup2\n      mstore\n      0x20\n      add\n      0x05\n      dup3\n      add\n      sload\n      dup2\n      mstore\n      0x20\n      add\n      0x06\n      dup3\n      add\n      dup1\n      sload\n      tag_105\n      swap1\n      tag_46\n      jump\t// in\n    tag_105:\n      dup1\n      0x1f\n      add\n      0x20\n      dup1\n      swap2\n      div\n      mul\n      0x20\n      add\n      mload(0x40)\n      swap1\n      dup2\n      add\n      0x40\n      mstore\n      dup1\n      swap3\n      swap2\n      swap1\n      dup2\n      dup2\n      mstore\n      0x20\n      add\n      dup3\n      dup1\n      sload\n      tag_106\n      swap1\n      tag_46\n      jump\t// in\n    tag_106:\n      dup1\n      iszero\n      tag_107\n      jumpi\n      dup1\n      0x1f\n      lt\n      tag_108\n      jumpi\n      0x0100\n      dup1\n      dup4\n      sload\n      div\n      mul\n      dup4\n      mstore\n      swap2\n      0x20\n      add\n      swap2\n      jump(tag_107)\n    tag_108:\n      dup3\n      add\n      swap2\n      swap1\n      0x00\n      mstore\n      keccak256(0x00, 0x20)\n      swap1\n    tag_109:\n      dup2\n      sload\n      dup2\n      mstore\n      swap1\n      0x01\n      add\n      swap1\n      0x20\n      add\n      dup1\n      dup4\n      gt\n      tag_109\n      jumpi\n      dup3\n      swap1\n      sub\n      0x1f\n      and\n      dup3\n      add\n      swap2\n    tag_107:\n      pop\n      pop\n      pop\n      pop\n      pop\n      dup2\n      mstore\n      0x20\n      add\n      0x07\n      dup3\n      add\n      dup1\n      sload\n      dup1\n      0x20\n      mul\n      0x20\n      add\n      mload(0x40)\n      swap1\n      dup2\n      add\n      0x40\n      mstore\n      dup1\n      swap3\n      swap2\n      swap1\n      dup2\n      dup2\n      mstore\n      0x20\n      add\n      dup3\n      dup1\n      sload\n      dup1\n      iszero\n      tag_110\n      jumpi\n      0x20\n      mul\n      dup3\n      add\n      swap2\n      swap1\n      0x00\n      mstore\n      keccak256(0x00, 0x20)\n      swap1\n    tag_111:\n      dup2\n      0x00\n      swap1\n      sload\n      swap1\n      0x0100\n      exp\n      swap1\n      div\n      0xffffffffffffffffffffffffffffffffffffffff\n      and\n      0xffffffffffffffffffffffffffffffffffffffff\n      and\n      dup2\n      mstore\n      0x20\n      add\n      swap1\n      0x01\n      add\n      swap1\n      dup1\n      dup4\n      gt\n      tag_111\n      jumpi\n    tag_110:\n      pop\n      pop\n      pop\n      pop\n      pop\n      dup2\n      mstore\n      0x20\n      add\n      0x08\n      dup3\n      add\n      dup1\n      sload\n      dup1\n      0x20\n      mul\n      0x20\n      add\n      mload(0x40)\n      swap1\n      dup2\n      add\n      0x40\n      mstore\n      dup1\n      swap3\n      swap2\n      swap1\n      dup2\n      dup2\n      mstore\n      0x20\n      add\n      dup3\n      dup1\n      sload\n      dup1\n      iszero\n      tag_112\n      jumpi\n      0x20\n      mul\n      dup3\n      add\n      swap2\n      swap1\n      0x00\n      mstore\n      keccak256(0x00, 0x20)\n      swap1\n    tag_113:\n      dup2\n      sload\n      dup2\n      mstore\n      0x20\n      add\n      swap1\n      0x01\n      add\n      swap1\n      dup1\n      dup4\n      gt\n      tag_113\n      jumpi\n    tag_112:\n      pop\n      pop\n      pop\n      pop\n      pop\n      dup2\n      mstore\n      pop\n      pop\n        /* \"web3/contracts/CrowdFunding.sol\":1824:1836  allCampaigns */\n      dup4\n        /* \"web3/contracts/CrowdFunding.sol\":1837:1838  i */\n      dup4\n        /* \"web3/contracts/CrowdFunding.sol\":1824:1839  allCampaigns[i] */\n      dup2\n      mload\n      dup2\n      lt\n      tag_114\n      jumpi\n      tag_115\n      tag_116\n      jump\t// in\n    tag_115:\n    tag_114:\n      0x20\n      mul\n      0x20\n      add\n      add\n        /* \"web3/contracts/CrowdFunding.sol\":1824:1846  allCampaigns[i] = item */\n      dup2\n      swap1\n      mstore\n      pop\n        /* \"web3/contracts/CrowdFunding.sol\":1771:1853  {... */\n      pop\n        /* \"web3/contracts/CrowdFunding.sol\":1766:1769  i++ */\n      dup1\n      dup1\n      0x01\n      add\n      swap2\n      pop\n      pop\n        /* \"web3/contracts/CrowdFunding.sol\":1726:1853  for (uint i = 0; i < numberOfCampaigns; i++) {... */\n      jump(tag_92)\n    tag_93:\n      pop\n        /* \"web3/contracts/CrowdFunding.sol\":1866:1878  allCampaigns */\n      dup1\n        /* \"web3/contracts/CrowdFunding.sol\":1859:1878  return allCampaigns */\n      swap2\n      pop\n      pop\n        /* \"web3/contracts/CrowdFunding.sol\":1583:1883  function getCampaigns() public view returns (Campaign[] memory) {... */\n      swap1\n      jump\t// out\n    tag_91:\n      mload(0x40)\n      dup1\n      0x0120\n      add\n      0x40\n      mstore\n      dup1\n      and(0xffffffffffffffffffffffffffffffffffffffff, 0x00)\n      dup2\n      mstore\n      0x20\n      add\n      0x60\n      dup2\n      mstore\n      0x20\n      add\n      0x60\n      dup2\n      mstore\n      0x20\n      add\n      0x00\n      dup2\n      mstore\n      0x20\n      add\n      0x00\n      dup2\n      mstore\n      0x20\n      add\n      0x00\n      dup2\n      mstore\n      0x20\n      add\n      0x60\n      dup2\n      mstore\n      0x20\n      add\n      0x60\n      dup2\n      mstore\n      0x20\n      add\n      0x60\n      dup2\n      mstore\n      pop\n      swap1\n      jump\t// out\n        /* \"#utility.yul\":7:84   */\n    tag_117:\n        /* \"#utility.yul\":44:51   */\n      0x00\n        /* \"#utility.yul\":73:78   */\n      dup2\n        /* \"#utility.yul\":62:78   */\n      swap1\n      pop\n        /* \"#utility.yul\":7:84   */\n      swap2\n      swap1\n      pop\n      jump\t// out\n        /* \"#utility.yul\":90:208   */\n    tag_118:\n        /* \"#utility.yul\":177:201   */\n      tag_194\n        /* \"#utility.yul\":195:200   */\n      dup2\n        /* \"#utility.yul\":177:201   */\n      tag_117\n      jump\t// in\n    tag_194:\n        /* \"#utility.yul\":172:175   */\n      dup3\n        /* \"#utility.yul\":165:202   */\n      mstore\n        /* \"#utility.yul\":90:208   */\n      pop\n      pop\n      jump\t// out\n        /* \"#utility.yul\":214:436   */\n    tag_12:\n        /* \"#utility.yul\":307:311   */\n      0x00\n        /* \"#utility.yul\":345:347   */\n      0x20\n        /* \"#utility.yul\":334:343   */\n      dup3\n        /* \"#utility.yul\":330:348   */\n      add\n        /* \"#utility.yul\":322:348   */\n      swap1\n      pop\n        /* \"#utility.yul\":358:429   */\n      tag_196\n        /* \"#utility.yul\":426:427   */\n      0x00\n        /* \"#utility.yul\":415:424   */\n      dup4\n        /* \"#utility.yul\":411:428   */\n      add\n        /* \"#utility.yul\":402:408   */\n      dup5\n        /* \"#utility.yul\":358:429   */\n      tag_118\n      jump\t// in\n    tag_196:\n        /* \"#utility.yul\":214:436   */\n      swap3\n      swap2\n      pop\n      pop\n      jump\t// out\n        /* \"#utility.yul\":442:517   */\n    tag_119:\n        /* \"#utility.yul\":475:481   */\n      0x00\n        /* \"#utility.yul\":508:510   */\n      0x40\n        /* \"#utility.yul\":502:511   */\n      mload\n        /* \"#utility.yul\":492:511   */\n      swap1\n      pop\n        /* \"#utility.yul\":442:517   */\n      swap1\n      jump\t// out\n        /* \"#utility.yul\":523:640   */\n    tag_120:\n        /* \"#utility.yul\":632:633   */\n      0x00\n        /* \"#utility.yul\":629:630   */\n      0x00\n        /* \"#utility.yul\":622:634   */\n      revert\n        /* \"#utility.yul\":646:763   */\n    tag_121:\n        /* \"#utility.yul\":755:756   */\n      0x00\n        /* \"#utility.yul\":752:753   */\n      0x00\n        /* \"#utility.yul\":745:757   */\n      revert\n        /* \"#utility.yul\":769:891   */\n    tag_122:\n        /* \"#utility.yul\":842:866   */\n      tag_201\n        /* \"#utility.yul\":860:865   */\n      dup2\n        /* \"#utility.yul\":842:866   */\n      tag_117\n      jump\t// in\n    tag_201:\n        /* \"#utility.yul\":835:840   */\n      dup2\n        /* \"#utility.yul\":832:867   */\n      eq\n        /* \"#utility.yul\":822:885   */\n      tag_202\n      jumpi\n        /* \"#utility.yul\":881:882   */\n      0x00\n        /* \"#utility.yul\":878:879   */\n      0x00\n        /* \"#utility.yul\":871:883   */\n      revert\n        /* \"#utility.yul\":822:885   */\n    tag_202:\n        /* \"#utility.yul\":769:891   */\n      pop\n      jump\t// out\n        /* \"#utility.yul\":897:1036   */\n    tag_123:\n        /* \"#utility.yul\":943:948   */\n      0x00\n        /* \"#utility.yul\":981:987   */\n      dup2\n        /* \"#utility.yul\":968:988   */\n      calldataload\n        /* \"#utility.yul\":959:988   */\n      swap1\n      pop\n        /* \"#utility.yul\":997:1030   */\n      tag_204\n        /* \"#utility.yul\":1024:1029   */\n      dup2\n        /* \"#utility.yul\":997:1030   */\n      tag_122\n      jump\t// in\n    tag_204:\n        /* \"#utility.yul\":897:1036   */\n      swap3\n      swap2\n      pop\n      pop\n      jump\t// out\n        /* \"#utility.yul\":1042:1371   */\n    tag_16:\n        /* \"#utility.yul\":1101:1107   */\n      0x00\n        /* \"#utility.yul\":1150:1152   */\n      0x20\n        /* \"#utility.yul\":1138:1147   */\n      dup3\n        /* \"#utility.yul\":1129:1136   */\n      dup5\n        /* \"#utility.yul\":1125:1148   */\n      sub\n        /* \"#utility.yul\":1121:1153   */\n      slt\n        /* \"#utility.yul\":1118:1237   */\n      iszero\n      tag_206\n      jumpi\n        /* \"#utility.yul\":1156:1235   */\n      tag_207\n      tag_120\n      jump\t// in\n    tag_207:\n        /* \"#utility.yul\":1118:1237   */\n    tag_206:\n        /* \"#utility.yul\":1276:1277   */\n      0x00\n        /* \"#utility.yul\":1301:1354   */\n      tag_208\n        /* \"#utility.yul\":1346:1353   */\n      dup5\n        /* \"#utility.yul\":1337:1343   */\n      dup3\n        /* \"#utility.yul\":1326:1335   */\n      dup6\n        /* \"#utility.yul\":1322:1344   */\n      add\n        /* \"#utility.yul\":1301:1354   */\n      tag_123\n      jump\t// in\n    tag_208:\n        /* \"#utility.yul\":1291:1354   */\n      swap2\n      pop\n        /* \"#utility.yul\":1247:1364   */\n      pop\n        /* \"#utility.yul\":1042:1371   */\n      swap3\n      swap2\n      pop\n      pop\n      jump\t// out\n        /* \"#utility.yul\":1377:1491   */\n    tag_124:\n        /* \"#utility.yul\":1444:1450   */\n      0x00\n        /* \"#utility.yul\":1478:1483   */\n      dup2\n        /* \"#utility.yul\":1472:1484   */\n      mload\n        /* \"#utility.yul\":1462:1484   */\n      swap1\n      pop\n        /* \"#utility.yul\":1377:1491   */\n      swap2\n      swap1\n      pop\n      jump\t// out\n        /* \"#utility.yul\":1497:1681   */\n    tag_125:\n        /* \"#utility.yul\":1596:1607   */\n      0x00\n        /* \"#utility.yul\":1630:1636   */\n      dup3\n        /* \"#utility.yul\":1625:1628   */\n      dup3\n        /* \"#utility.yul\":1618:1637   */\n      mstore\n        /* \"#utility.yul\":1670:1674   */\n      0x20\n        /* \"#utility.yul\":1665:1668   */\n      dup3\n        /* \"#utility.yul\":1661:1675   */\n      add\n        /* \"#utility.yul\":1646:1675   */\n      swap1\n      pop\n        /* \"#utility.yul\":1497:1681   */\n      swap3\n      swap2\n      pop\n      pop\n      jump\t// out\n        /* \"#utility.yul\":1687:1819   */\n    tag_126:\n        /* \"#utility.yul\":1754:1758   */\n      0x00\n        /* \"#utility.yul\":1777:1780   */\n      dup2\n        /* \"#utility.yul\":1769:1780   */\n      swap1\n      pop\n        /* \"#utility.yul\":1807:1811   */\n      0x20\n        /* \"#utility.yul\":1802:1805   */\n      dup3\n        /* \"#utility.yul\":1798:1812   */\n      add\n        /* \"#utility.yul\":1790:1812   */\n      swap1\n      pop\n        /* \"#utility.yul\":1687:1819   */\n      swap2\n      swap1\n      pop\n      jump\t// out\n        /* \"#utility.yul\":1825:1951   */\n    tag_127:\n        /* \"#utility.yul\":1862:1869   */\n      0x00\n        /* \"#utility.yul\":1902:1944   */\n      0xffffffffffffffffffffffffffffffffffffffff\n        /* \"#utility.yul\":1895:1900   */\n      dup3\n        /* \"#utility.yul\":1891:1945   */\n      and\n        /* \"#utility.yul\":1880:1945   */\n      swap1\n      pop\n        /* \"#utility.yul\":1825:1951   */\n      swap2\n      swap1\n      pop\n      jump\t// out\n        /* \"#utility.yul\":1957:2053   */\n    tag_128:\n        /* \"#utility.yul\":1994:2001   */\n      0x00\n        /* \"#utility.yul\":2023:2047   */\n      tag_214\n        /* \"#utility.yul\":2041:2046   */\n      dup3\n        /* \"#utility.yul\":2023:2047   */\n      tag_127\n      jump\t// in\n    tag_214:\n        /* \"#utility.yul\":2012:2047   */\n      swap1\n      pop\n        /* \"#utility.yul\":1957:2053   */\n      swap2\n      swap1\n      pop\n      jump\t// out\n        /* \"#utility.yul\":2059:2167   */\n    tag_129:\n        /* \"#utility.yul\":2136:2160   */\n      tag_216\n        /* \"#utility.yul\":2154:2159   */\n      dup2\n        /* \"#utility.yul\":2136:2160   */\n      tag_128\n      jump\t// in\n    tag_216:\n        /* \"#utility.yul\":2131:2134   */\n      dup3\n        /* \"#utility.yul\":2124:2161   */\n      mstore\n        /* \"#utility.yul\":2059:2167   */\n      pop\n      pop\n      jump\t// out\n        /* \"#utility.yul\":2173:2352   */\n    tag_130:\n        /* \"#utility.yul\":2242:2252   */\n      0x00\n        /* \"#utility.yul\":2263:2309   */\n      tag_218\n        /* \"#utility.yul\":2305:2308   */\n      dup4\n        /* \"#utility.yul\":2297:2303   */\n      dup4\n        /* \"#utility.yul\":2263:2309   */\n      tag_129\n      jump\t// in\n    tag_218:\n        /* \"#utility.yul\":2341:2345   */\n      0x20\n        /* \"#utility.yul\":2336:2339   */\n      dup4\n        /* \"#utility.yul\":2332:2346   */\n      add\n        /* \"#utility.yul\":2318:2346   */\n      swap1\n      pop\n        /* \"#utility.yul\":2173:2352   */\n      swap3\n      swap2\n      pop\n      pop\n      jump\t// out\n        /* \"#utility.yul\":2358:2471   */\n    tag_131:\n        /* \"#utility.yul\":2428:2432   */\n      0x00\n        /* \"#utility.yul\":2460:2464   */\n      0x20\n        /* \"#utility.yul\":2455:2458   */\n      dup3\n        /* \"#utility.yul\":2451:2465   */\n      add\n        /* \"#utility.yul\":2443:2465   */\n      swap1\n      pop\n        /* \"#utility.yul\":2358:2471   */\n      swap2\n      swap1\n      pop\n      jump\t// out\n        /* \"#utility.yul\":2507:3239   */\n    tag_132:\n        /* \"#utility.yul\":2626:2629   */\n      0x00\n        /* \"#utility.yul\":2655:2709   */\n      tag_221\n        /* \"#utility.yul\":2703:2708   */\n      dup3\n        /* \"#utility.yul\":2655:2709   */\n      tag_124\n      jump\t// in\n    tag_221:\n        /* \"#utility.yul\":2725:2811   */\n      tag_222\n        /* \"#utility.yul\":2804:2810   */\n      dup2\n        /* \"#utility.yul\":2799:2802   */\n      dup6\n        /* \"#utility.yul\":2725:2811   */\n      tag_125\n      jump\t// in\n    tag_222:\n        /* \"#utility.yul\":2718:2811   */\n      swap4\n      pop\n        /* \"#utility.yul\":2835:2891   */\n      tag_223\n        /* \"#utility.yul\":2885:2890   */\n      dup4\n        /* \"#utility.yul\":2835:2891   */\n      tag_126\n      jump\t// in\n    tag_223:\n        /* \"#utility.yul\":2914:2921   */\n      dup1\n        /* \"#utility.yul\":2945:2946   */\n      0x00\n        /* \"#utility.yul\":2930:3214   */\n    tag_224:\n        /* \"#utility.yul\":2955:2961   */\n      dup4\n        /* \"#utility.yul\":2952:2953   */\n      dup2\n        /* \"#utility.yul\":2949:2962   */\n      lt\n        /* \"#utility.yul\":2930:3214   */\n      iszero\n      tag_226\n      jumpi\n        /* \"#utility.yul\":3031:3037   */\n      dup2\n        /* \"#utility.yul\":3025:3038   */\n      mload\n        /* \"#utility.yul\":3058:3121   */\n      tag_227\n        /* \"#utility.yul\":3117:3120   */\n      dup9\n        /* \"#utility.yul\":3102:3115   */\n      dup3\n        /* \"#utility.yul\":3058:3121   */\n      tag_130\n      jump\t// in\n    tag_227:\n        /* \"#utility.yul\":3051:3121   */\n      swap8\n      pop\n        /* \"#utility.yul\":3144:3204   */\n      tag_228\n        /* \"#utility.yul\":3197:3203   */\n      dup4\n        /* \"#utility.yul\":3144:3204   */\n      tag_131\n      jump\t// in\n    tag_228:\n        /* \"#utility.yul\":3134:3204   */\n      swap3\n      pop\n        /* \"#utility.yul\":2990:3214   */\n      pop\n        /* \"#utility.yul\":2977:2978   */\n      0x01\n        /* \"#utility.yul\":2974:2975   */\n      dup2\n        /* \"#utility.yul\":2970:2979   */\n      add\n        /* \"#utility.yul\":2965:2979   */\n      swap1\n      pop\n        /* \"#utility.yul\":2930:3214   */\n      jump(tag_224)\n    tag_226:\n        /* \"#utility.yul\":2934:2948   */\n      pop\n        /* \"#utility.yul\":3230:3233   */\n      dup6\n        /* \"#utility.yul\":3223:3233   */\n      swap4\n      pop\n        /* \"#utility.yul\":2631:3239   */\n      pop\n      pop\n      pop\n        /* \"#utility.yul\":2507:3239   */\n      swap3\n      swap2\n      pop\n      pop\n      jump\t// out\n        /* \"#utility.yul\":3245:3359   */\n    tag_133:\n        /* \"#utility.yul\":3312:3318   */\n      0x00\n        /* \"#utility.yul\":3346:3351   */\n      dup2\n        /* \"#utility.yul\":3340:3352   */\n      mload\n        /* \"#utility.yul\":3330:3352   */\n      swap1\n      pop\n        /* \"#utility.yul\":3245:3359   */\n      swap2\n      swap1\n      pop\n      jump\t// out\n        /* \"#utility.yul\":3365:3549   */\n    tag_134:\n        /* \"#utility.yul\":3464:3475   */\n      0x00\n        /* \"#utility.yul\":3498:3504   */\n      dup3\n        /* \"#utility.yul\":3493:3496   */\n      dup3\n        /* \"#utility.yul\":3486:3505   */\n      mstore\n        /* \"#utility.yul\":3538:3542   */\n      0x20\n        /* \"#utility.yul\":3533:3536   */\n      dup3\n        /* \"#utility.yul\":3529:3543   */\n      add\n        /* \"#utility.yul\":3514:3543   */\n      swap1\n      pop\n        /* \"#utility.yul\":3365:3549   */\n      swap3\n      swap2\n      pop\n      pop\n      jump\t// out\n        /* \"#utility.yul\":3555:3687   */\n    tag_135:\n        /* \"#utility.yul\":3622:3626   */\n      0x00\n        /* \"#utility.yul\":3645:3648   */\n      dup2\n        /* \"#utility.yul\":3637:3648   */\n      swap1\n      pop\n        /* \"#utility.yul\":3675:3679   */\n      0x20\n        /* \"#utility.yul\":3670:3673   */\n      dup3\n        /* \"#utility.yul\":3666:3680   */\n      add\n        /* \"#utility.yul\":3658:3680   */\n      swap1\n      pop\n        /* \"#utility.yul\":3555:3687   */\n      swap2\n      swap1\n      pop\n      jump\t// out\n        /* \"#utility.yul\":3693:3801   */\n    tag_136:\n        /* \"#utility.yul\":3770:3794   */\n      tag_233\n        /* \"#utility.yul\":3788:3793   */\n      dup2\n        /* \"#utility.yul\":3770:3794   */\n      tag_117\n      jump\t// in\n    tag_233:\n        /* \"#utility.yul\":3765:3768   */\n      dup3\n        /* \"#utility.yul\":3758:3795   */\n      mstore\n        /* \"#utility.yul\":3693:3801   */\n      pop\n      pop\n      jump\t// out\n        /* \"#utility.yul\":3807:3986   */\n    tag_137:\n        /* \"#utility.yul\":3876:3886   */\n      0x00\n        /* \"#utility.yul\":3897:3943   */\n      tag_235\n        /* \"#utility.yul\":3939:3942   */\n      dup4\n        /* \"#utility.yul\":3931:3937   */\n      dup4\n        /* \"#utility.yul\":3897:3943   */\n      tag_136\n      jump\t// in\n    tag_235:\n        /* \"#utility.yul\":3975:3979   */\n      0x20\n        /* \"#utility.yul\":3970:3973   */\n      dup4\n        /* \"#utility.yul\":3966:3980   */\n      add\n        /* \"#utility.yul\":3952:3980   */\n      swap1\n      pop\n        /* \"#utility.yul\":3807:3986   */\n      swap3\n      swap2\n      pop\n      pop\n      jump\t// out\n        /* \"#utility.yul\":3992:4105   */\n    tag_138:\n        /* \"#utility.yul\":4062:4066   */\n      0x00\n        /* \"#utility.yul\":4094:4098   */\n      0x20\n        /* \"#utility.yul\":4089:4092   */\n      dup3\n        /* \"#utility.yul\":4085:4099   */\n      add\n        /* \"#utility.yul\":4077:4099   */\n      swap1\n      pop\n        /* \"#utility.yul\":3992:4105   */\n      swap2\n      swap1\n      pop\n      jump\t// out\n        /* \"#utility.yul\":4141:4873   */\n    tag_139:\n        /* \"#utility.yul\":4260:4263   */\n      0x00\n        /* \"#utility.yul\":4289:4343   */\n      tag_238\n        /* \"#utility.yul\":4337:4342   */\n      dup3\n        /* \"#utility.yul\":4289:4343   */\n      tag_133\n      jump\t// in\n    tag_238:\n        /* \"#utility.yul\":4359:4445   */\n      tag_239\n        /* \"#utility.yul\":4438:4444   */\n      dup2\n        /* \"#utility.yul\":4433:4436   */\n      dup6\n        /* \"#utility.yul\":4359:4445   */\n      tag_134\n      jump\t// in\n    tag_239:\n        /* \"#utility.yul\":4352:4445   */\n      swap4\n      pop\n        /* \"#utility.yul\":4469:4525   */\n      tag_240\n        /* \"#utility.yul\":4519:4524   */\n      dup4\n        /* \"#utility.yul\":4469:4525   */\n      tag_135\n      jump\t// in\n    tag_240:\n        /* \"#utility.yul\":4548:4555   */\n      dup1\n        /* \"#utility.yul\":4579:4580   */\n      0x00\n        /* \"#utility.yul\":4564:4848   */\n    tag_241:\n        /* \"#utility.yul\":4589:4595   */\n      dup4\n        /* \"#utility.yul\":4586:4587   */\n      dup2\n        /* \"#utility.yul\":4583:4596   */\n      lt\n        /* \"#utility.yul\":4564:4848   */\n      iszero\n      tag_243\n      jumpi\n        /* \"#utility.yul\":4665:4671   */\n      dup2\n        /* \"#utility.yul\":4659:4672   */\n      mload\n        /* \"#utility.yul\":4692:4755   */\n      tag_244\n        /* \"#utility.yul\":4751:4754   */\n      dup9\n        /* \"#utility.yul\":4736:4749   */\n      dup3\n        /* \"#utility.yul\":4692:4755   */\n      tag_137\n      jump\t// in\n    tag_244:\n        /* \"#utility.yul\":4685:4755   */\n      swap8\n      pop\n        /* \"#utility.yul\":4778:4838   */\n      tag_245\n        /* \"#utility.yul\":4831:4837   */\n      dup4\n        /* \"#utility.yul\":4778:4838   */\n      tag_138\n      jump\t// in\n    tag_245:\n        /* \"#utility.yul\":4768:4838   */\n      swap3\n      pop\n        /* \"#utility.yul\":4624:4848   */\n      pop\n        /* \"#utility.yul\":4611:4612   */\n      0x01\n        /* \"#utility.yul\":4608:4609   */\n      dup2\n        /* \"#utility.yul\":4604:4613   */\n      add\n        /* \"#utility.yul\":4599:4613   */\n      swap1\n      pop\n        /* \"#utility.yul\":4564:4848   */\n      jump(tag_241)\n    tag_243:\n        /* \"#utility.yul\":4568:4582   */\n      pop\n        /* \"#utility.yul\":4864:4867   */\n      dup6\n        /* \"#utility.yul\":4857:4867   */\n      swap4\n      pop\n        /* \"#utility.yul\":4265:4873   */\n      pop\n      pop\n      pop\n        /* \"#utility.yul\":4141:4873   */\n      swap3\n      swap2\n      pop\n      pop\n      jump\t// out\n        /* \"#utility.yul\":4879:5513   */\n    tag_19:\n        /* \"#utility.yul\":5100:5104   */\n      0x00\n        /* \"#utility.yul\":5138:5140   */\n      0x40\n        /* \"#utility.yul\":5127:5136   */\n      dup3\n        /* \"#utility.yul\":5123:5141   */\n      add\n        /* \"#utility.yul\":5115:5141   */\n      swap1\n      pop\n        /* \"#utility.yul\":5187:5196   */\n      dup2\n        /* \"#utility.yul\":5181:5185   */\n      dup2\n        /* \"#utility.yul\":5177:5197   */\n      sub\n        /* \"#utility.yul\":5173:5174   */\n      0x00\n        /* \"#utility.yul\":5162:5171   */\n      dup4\n        /* \"#utility.yul\":5158:5175   */\n      add\n        /* \"#utility.yul\":5151:5198   */\n      mstore\n        /* \"#utility.yul\":5215:5323   */\n      tag_247\n        /* \"#utility.yul\":5318:5322   */\n      dup2\n        /* \"#utility.yul\":5309:5315   */\n      dup6\n        /* \"#utility.yul\":5215:5323   */\n      tag_132\n      jump\t// in\n    tag_247:\n        /* \"#utility.yul\":5207:5323   */\n      swap1\n      pop\n        /* \"#utility.yul\":5370:5379   */\n      dup2\n        /* \"#utility.yul\":5364:5368   */\n      dup2\n        /* \"#utility.yul\":5360:5380   */\n      sub\n        /* \"#utility.yul\":5355:5357   */\n      0x20\n        /* \"#utility.yul\":5344:5353   */\n      dup4\n        /* \"#utility.yul\":5340:5358   */\n      add\n        /* \"#utility.yul\":5333:5381   */\n      mstore\n        /* \"#utility.yul\":5398:5506   */\n      tag_248\n        /* \"#utility.yul\":5501:5505   */\n      dup2\n        /* \"#utility.yul\":5492:5498   */\n      dup5\n        /* \"#utility.yul\":5398:5506   */\n      tag_139\n      jump\t// in\n    tag_248:\n        /* \"#utility.yul\":5390:5506   */\n      swap1\n      pop\n        /* \"#utility.yul\":4879:5513   */\n      swap4\n      swap3\n      pop\n      pop\n      pop\n      jump\t// out\n        /* \"#utility.yul\":5519:5637   */\n    tag_140:\n        /* \"#utility.yul\":5606:5630   */\n      tag_250\n        /* \"#utility.yul\":5624:5629   */\n      dup2\n        /* \"#utility.yul\":5606:5630   */\n      tag_128\n      jump\t// in\n    tag_250:\n        /* \"#utility.yul\":5601:5604   */\n      dup3\n        /* \"#utility.yul\":5594:5631   */\n      mstore\n        /* \"#utility.yul\":5519:5637   */\n      pop\n      pop\n      jump\t// out\n        /* \"#utility.yul\":5643:5742   */\n    tag_141:\n        /* \"#utility.yul\":5695:5701   */\n      0x00\n        /* \"#utility.yul\":5729:5734   */\n      dup2\n        /* \"#utility.yul\":5723:5735   */\n      mload\n        /* \"#utility.yul\":5713:5735   */\n      swap1\n      pop\n        /* \"#utility.yul\":5643:5742   */\n      swap2\n      swap1\n      pop\n      jump\t// out\n        /* \"#utility.yul\":5748:5917   */\n    tag_142:\n        /* \"#utility.yul\":5832:5843   */\n      0x00\n        /* \"#utility.yul\":5866:5872   */\n      dup3\n        /* \"#utility.yul\":5861:5864   */\n      dup3\n        /* \"#utility.yul\":5854:5873   */\n      mstore\n        /* \"#utility.yul\":5906:5910   */\n      0x20\n        /* \"#utility.yul\":5901:5904   */\n      dup3\n        /* \"#utility.yul\":5897:5911   */\n      add\n        /* \"#utility.yul\":5882:5911   */\n      swap1\n      pop\n        /* \"#utility.yul\":5748:5917   */\n      swap3\n      swap2\n      pop\n      pop\n      jump\t// out\n        /* \"#utility.yul\":5923:6062   */\n    tag_143:\n        /* \"#utility.yul\":6012:6018   */\n      dup3\n        /* \"#utility.yul\":6007:6010   */\n      dup2\n        /* \"#utility.yul\":6002:6005   */\n      dup4\n        /* \"#utility.yul\":5996:6019   */\n      mcopy\n        /* \"#utility.yul\":6053:6054   */\n      0x00\n        /* \"#utility.yul\":6044:6050   */\n      dup4\n        /* \"#utility.yul\":6039:6042   */\n      dup4\n        /* \"#utility.yul\":6035:6051   */\n      add\n        /* \"#utility.yul\":6028:6055   */\n      mstore\n        /* \"#utility.yul\":5923:6062   */\n      pop\n      pop\n      pop\n      jump\t// out\n        /* \"#utility.yul\":6068:6170   */\n    tag_144:\n        /* \"#utility.yul\":6109:6115   */\n      0x00\n        /* \"#utility.yul\":6160:6162   */\n      0x1f\n        /* \"#utility.yul\":6156:6163   */\n      not\n        /* \"#utility.yul\":6151:6153   */\n      0x1f\n        /* \"#utility.yul\":6144:6149   */\n      dup4\n        /* \"#utility.yul\":6140:6154   */\n      add\n        /* \"#utility.yul\":6136:6164   */\n      and\n        /* \"#utility.yul\":6126:6164   */\n      swap1\n      pop\n        /* \"#utility.yul\":6068:6170   */\n      swap2\n      swap1\n      pop\n      jump\t// out\n        /* \"#utility.yul\":6176:6553   */\n    tag_145:\n        /* \"#utility.yul\":6264:6267   */\n      0x00\n        /* \"#utility.yul\":6292:6331   */\n      tag_256\n        /* \"#utility.yul\":6325:6330   */\n      dup3\n        /* \"#utility.yul\":6292:6331   */\n      tag_141\n      jump\t// in\n    tag_256:\n        /* \"#utility.yul\":6347:6418   */\n      tag_257\n        /* \"#utility.yul\":6411:6417   */\n      dup2\n        /* \"#utility.yul\":6406:6409   */\n      dup6\n        /* \"#utility.yul\":6347:6418   */\n      tag_142\n      jump\t// in\n    tag_257:\n        /* \"#utility.yul\":6340:6418   */\n      swap4\n      pop\n        /* \"#utility.yul\":6427:6492   */\n      tag_258\n        /* \"#utility.yul\":6485:6491   */\n      dup2\n        /* \"#utility.yul\":6480:6483   */\n      dup6\n        /* \"#utility.yul\":6473:6477   */\n      0x20\n        /* \"#utility.yul\":6466:6471   */\n      dup7\n        /* \"#utility.yul\":6462:6478   */\n      add\n        /* \"#utility.yul\":6427:6492   */\n      tag_143\n      jump\t// in\n    tag_258:\n        /* \"#utility.yul\":6517:6546   */\n      tag_259\n        /* \"#utility.yul\":6539:6545   */\n      dup2\n        /* \"#utility.yul\":6517:6546   */\n      tag_144\n      jump\t// in\n    tag_259:\n        /* \"#utility.yul\":6512:6515   */\n      dup5\n        /* \"#utility.yul\":6508:6547   */\n      add\n        /* \"#utility.yul\":6501:6547   */\n      swap2\n      pop\n        /* \"#utility.yul\":6268:6553   */\n      pop\n        /* \"#utility.yul\":6176:6553   */\n      swap3\n      swap2\n      pop\n      pop\n      jump\t// out\n        /* \"#utility.yul\":6559:7718   */\n    tag_25:\n        /* \"#utility.yul\":6880:6884   */\n      0x00\n        /* \"#utility.yul\":6918:6921   */\n      0xe0\n        /* \"#utility.yul\":6907:6916   */\n      dup3\n        /* \"#utility.yul\":6903:6922   */\n      add\n        /* \"#utility.yul\":6895:6922   */\n      swap1\n      pop\n        /* \"#utility.yul\":6932:7003   */\n      tag_261\n        /* \"#utility.yul\":7000:7001   */\n      0x00\n        /* \"#utility.yul\":6989:6998   */\n      dup4\n        /* \"#utility.yul\":6985:7002   */\n      add\n        /* \"#utility.yul\":6976:6982   */\n      dup11\n        /* \"#utility.yul\":6932:7003   */\n      tag_140\n      jump\t// in\n    tag_261:\n        /* \"#utility.yul\":7050:7059   */\n      dup2\n        /* \"#utility.yul\":7044:7048   */\n      dup2\n        /* \"#utility.yul\":7040:7060   */\n      sub\n        /* \"#utility.yul\":7035:7037   */\n      0x20\n        /* \"#utility.yul\":7024:7033   */\n      dup4\n        /* \"#utility.yul\":7020:7038   */\n      add\n        /* \"#utility.yul\":7013:7061   */\n      mstore\n        /* \"#utility.yul\":7078:7156   */\n      tag_262\n        /* \"#utility.yul\":7151:7155   */\n      dup2\n        /* \"#utility.yul\":7142:7148   */\n      dup10\n        /* \"#utility.yul\":7078:7156   */\n      tag_145\n      jump\t// in\n    tag_262:\n        /* \"#utility.yul\":7070:7156   */\n      swap1\n      pop\n        /* \"#utility.yul\":7203:7212   */\n      dup2\n        /* \"#utility.yul\":7197:7201   */\n      dup2\n        /* \"#utility.yul\":7193:7213   */\n      sub\n        /* \"#utility.yul\":7188:7190   */\n      0x40\n        /* \"#utility.yul\":7177:7186   */\n      dup4\n        /* \"#utility.yul\":7173:7191   */\n      add\n        /* \"#utility.yul\":7166:7214   */\n      mstore\n        /* \"#utility.yul\":7231:7309   */\n      tag_263\n        /* \"#utility.yul\":7304:7308   */\n      dup2\n        /* \"#utility.yul\":7295:7301   */\n      dup9\n        /* \"#utility.yul\":7231:7309   */\n      tag_145\n      jump\t// in\n    tag_263:\n        /* \"#utility.yul\":7223:7309   */\n      swap1\n      pop\n        /* \"#utility.yul\":7319:7391   */\n      tag_264\n        /* \"#utility.yul\":7387:7389   */\n      0x60\n        /* \"#utility.yul\":7376:7385   */\n      dup4\n        /* \"#utility.yul\":7372:7390   */\n      add\n        /* \"#utility.yul\":7363:7369   */\n      dup8\n        /* \"#utility.yul\":7319:7391   */\n      tag_118\n      jump\t// in\n    tag_264:\n        /* \"#utility.yul\":7401:7474   */\n      tag_265\n        /* \"#utility.yul\":7469:7472   */\n      0x80\n        /* \"#utility.yul\":7458:7467   */\n      dup4\n        /* \"#utility.yul\":7454:7473   */\n      add\n        /* \"#utility.yul\":7445:7451   */\n      dup7\n        /* \"#utility.yul\":7401:7474   */\n      tag_118\n      jump\t// in\n    tag_265:\n        /* \"#utility.yul\":7484:7557   */\n      tag_266\n        /* \"#utility.yul\":7552:7555   */\n      0xa0\n        /* \"#utility.yul\":7541:7550   */\n      dup4\n        /* \"#utility.yul\":7537:7556   */\n      add\n        /* \"#utility.yul\":7528:7534   */\n      dup6\n        /* \"#utility.yul\":7484:7557   */\n      tag_118\n      jump\t// in\n    tag_266:\n        /* \"#utility.yul\":7605:7614   */\n      dup2\n        /* \"#utility.yul\":7599:7603   */\n      dup2\n        /* \"#utility.yul\":7595:7615   */\n      sub\n        /* \"#utility.yul\":7589:7592   */\n      0xc0\n        /* \"#utility.yul\":7578:7587   */\n      dup4\n        /* \"#utility.yul\":7574:7593   */\n      add\n        /* \"#utility.yul\":7567:7616   */\n      mstore\n        /* \"#utility.yul\":7633:7711   */\n      tag_267\n        /* \"#utility.yul\":7706:7710   */\n      dup2\n        /* \"#utility.yul\":7697:7703   */\n      dup5\n        /* \"#utility.yul\":7633:7711   */\n      tag_145\n      jump\t// in\n    tag_267:\n        /* \"#utility.yul\":7625:7711   */\n      swap1\n      pop\n        /* \"#utility.yul\":6559:7718   */\n      swap9\n      swap8\n      pop\n      pop\n      pop\n      pop\n      pop\n      pop\n      pop\n      pop\n      jump\t// out\n        /* \"#utility.yul\":7724:7846   */\n    tag_146:\n        /* \"#utility.yul\":7797:7821   */\n      tag_269\n        /* \"#utility.yul\":7815:7820   */\n      dup2\n        /* \"#utility.yul\":7797:7821   */\n      tag_128\n      jump\t// in\n    tag_269:\n        /* \"#utility.yul\":7790:7795   */\n      dup2\n        /* \"#utility.yul\":7787:7822   */\n      eq\n        /* \"#utility.yul\":7777:7840   */\n      tag_270\n      jumpi\n        /* \"#utility.yul\":7836:7837   */\n      0x00\n        /* \"#utility.yul\":7833:7834   */\n      0x00\n        /* \"#utility.yul\":7826:7838   */\n      revert\n        /* \"#utility.yul\":7777:7840   */\n    tag_270:\n        /* \"#utility.yul\":7724:7846   */\n      pop\n      jump\t// out\n        /* \"#utility.yul\":7852:7991   */\n    tag_147:\n        /* \"#utility.yul\":7898:7903   */\n      0x00\n        /* \"#utility.yul\":7936:7942   */\n      dup2\n        /* \"#utility.yul\":7923:7943   */\n      calldataload\n        /* \"#utility.yul\":7914:7943   */\n      swap1\n      pop\n        /* \"#utility.yul\":7952:7985   */\n      tag_272\n        /* \"#utility.yul\":7979:7984   */\n      dup2\n        /* \"#utility.yul\":7952:7985   */\n      tag_146\n      jump\t// in\n    tag_272:\n        /* \"#utility.yul\":7852:7991   */\n      swap3\n      swap2\n      pop\n      pop\n      jump\t// out\n        /* \"#utility.yul\":7997:8114   */\n    tag_148:\n        /* \"#utility.yul\":8106:8107   */\n      0x00\n        /* \"#utility.yul\":8103:8104   */\n      0x00\n        /* \"#utility.yul\":8096:8108   */\n      revert\n        /* \"#utility.yul\":8120:8237   */\n    tag_149:\n        /* \"#utility.yul\":8229:8230   */\n      0x00\n        /* \"#utility.yul\":8226:8227   */\n      0x00\n        /* \"#utility.yul\":8219:8231   */\n      revert\n        /* \"#utility.yul\":8243:8423   */\n    tag_87:\n        /* \"#utility.yul\":8291:8368   */\n      0x4e487b7100000000000000000000000000000000000000000000000000000000\n        /* \"#utility.yul\":8288:8289   */\n      0x00\n        /* \"#utility.yul\":8281:8369   */\n      mstore\n        /* \"#utility.yul\":8388:8392   */\n      0x41\n        /* \"#utility.yul\":8385:8386   */\n      0x04\n        /* \"#utility.yul\":8378:8393   */\n      mstore\n        /* \"#utility.yul\":8412:8416   */\n      0x24\n        /* \"#utility.yul\":8409:8410   */\n      0x00\n        /* \"#utility.yul\":8402:8417   */\n      revert\n        /* \"#utility.yul\":8429:8710   */\n    tag_150:\n        /* \"#utility.yul\":8512:8539   */\n      tag_277\n        /* \"#utility.yul\":8534:8538   */\n      dup3\n        /* \"#utility.yul\":8512:8539   */\n      tag_144\n      jump\t// in\n    tag_277:\n        /* \"#utility.yul\":8504:8510   */\n      dup2\n        /* \"#utility.yul\":8500:8540   */\n      add\n        /* \"#utility.yul\":8642:8648   */\n      dup2\n        /* \"#utility.yul\":8630:8640   */\n      dup2\n        /* \"#utility.yul\":8627:8649   */\n      lt\n        /* \"#utility.yul\":8606:8624   */\n      0xffffffffffffffff\n        /* \"#utility.yul\":8594:8604   */\n      dup3\n        /* \"#utility.yul\":8591:8625   */\n      gt\n        /* \"#utility.yul\":8588:8650   */\n      or\n        /* \"#utility.yul\":8585:8673   */\n      iszero\n      tag_278\n      jumpi\n        /* \"#utility.yul\":8653:8671   */\n      tag_279\n      tag_87\n      jump\t// in\n    tag_279:\n        /* \"#utility.yul\":8585:8673   */\n    tag_278:\n        /* \"#utility.yul\":8693:8703   */\n      dup1\n        /* \"#utility.yul\":8689:8691   */\n      0x40\n        /* \"#utility.yul\":8682:8704   */\n      mstore\n        /* \"#utility.yul\":8472:8710   */\n      pop\n        /* \"#utility.yul\":8429:8710   */\n      pop\n      pop\n      jump\t// out\n        /* \"#utility.yul\":8716:8845   */\n    tag_151:\n        /* \"#utility.yul\":8750:8756   */\n      0x00\n        /* \"#utility.yul\":8777:8797   */\n      tag_281\n      tag_119\n      jump\t// in\n    tag_281:\n        /* \"#utility.yul\":8767:8797   */\n      swap1\n      pop\n        /* \"#utility.yul\":8806:8839   */\n      tag_282\n        /* \"#utility.yul\":8834:8838   */\n      dup3\n        /* \"#utility.yul\":8826:8832   */\n      dup3\n        /* \"#utility.yul\":8806:8839   */\n      tag_150\n      jump\t// in\n    tag_282:\n        /* \"#utility.yul\":8716:8845   */\n      swap2\n      swap1\n      pop\n      jump\t// out\n        /* \"#utility.yul\":8851:9159   */\n    tag_152:\n        /* \"#utility.yul\":8913:8917   */\n      0x00\n        /* \"#utility.yul\":9003:9021   */\n      0xffffffffffffffff\n        /* \"#utility.yul\":8995:9001   */\n      dup3\n        /* \"#utility.yul\":8992:9022   */\n      gt\n        /* \"#utility.yul\":8989:9045   */\n      iszero\n      tag_284\n      jumpi\n        /* \"#utility.yul\":9025:9043   */\n      tag_285\n      tag_87\n      jump\t// in\n    tag_285:\n        /* \"#utility.yul\":8989:9045   */\n    tag_284:\n        /* \"#utility.yul\":9063:9092   */\n      tag_286\n        /* \"#utility.yul\":9085:9091   */\n      dup3\n        /* \"#utility.yul\":9063:9092   */\n      tag_144\n      jump\t// in\n    tag_286:\n        /* \"#utility.yul\":9055:9092   */\n      swap1\n      pop\n        /* \"#utility.yul\":9147:9151   */\n      0x20\n        /* \"#utility.yul\":9141:9145   */\n      dup2\n        /* \"#utility.yul\":9137:9152   */\n      add\n        /* \"#utility.yul\":9129:9152   */\n      swap1\n      pop\n        /* \"#utility.yul\":8851:9159   */\n      swap2\n      swap1\n      pop\n      jump\t// out\n        /* \"#utility.yul\":9165:9313   */\n    tag_153:\n        /* \"#utility.yul\":9263:9269   */\n      dup3\n        /* \"#utility.yul\":9258:9261   */\n      dup2\n        /* \"#utility.yul\":9253:9256   */\n      dup4\n        /* \"#utility.yul\":9240:9270   */\n      calldatacopy\n        /* \"#utility.yul\":9304:9305   */\n      0x00\n        /* \"#utility.yul\":9295:9301   */\n      dup4\n        /* \"#utility.yul\":9290:9293   */\n      dup4\n        /* \"#utility.yul\":9286:9302   */\n      add\n        /* \"#utility.yul\":9279:9306   */\n      mstore\n        /* \"#utility.yul\":9165:9313   */\n      pop\n      pop\n      pop\n      jump\t// out\n        /* \"#utility.yul\":9319:9744   */\n    tag_154:\n        /* \"#utility.yul\":9397:9402   */\n      0x00\n        /* \"#utility.yul\":9422:9488   */\n      tag_289\n        /* \"#utility.yul\":9438:9487   */\n      tag_290\n        /* \"#utility.yul\":9480:9486   */\n      dup5\n        /* \"#utility.yul\":9438:9487   */\n      tag_152\n      jump\t// in\n    tag_290:\n        /* \"#utility.yul\":9422:9488   */\n      tag_151\n      jump\t// in\n    tag_289:\n        /* \"#utility.yul\":9413:9488   */\n      swap1\n      pop\n        /* \"#utility.yul\":9511:9517   */\n      dup3\n        /* \"#utility.yul\":9504:9509   */\n      dup2\n        /* \"#utility.yul\":9497:9518   */\n      mstore\n        /* \"#utility.yul\":9549:9553   */\n      0x20\n        /* \"#utility.yul\":9542:9547   */\n      dup2\n        /* \"#utility.yul\":9538:9554   */\n      add\n        /* \"#utility.yul\":9587:9590   */\n      dup5\n        /* \"#utility.yul\":9578:9584   */\n      dup5\n        /* \"#utility.yul\":9573:9576   */\n      dup5\n        /* \"#utility.yul\":9569:9585   */\n      add\n        /* \"#utility.yul\":9566:9591   */\n      gt\n        /* \"#utility.yul\":9563:9675   */\n      iszero\n      tag_291\n      jumpi\n        /* \"#utility.yul\":9594:9673   */\n      tag_292\n      tag_149\n      jump\t// in\n    tag_292:\n        /* \"#utility.yul\":9563:9675   */\n    tag_291:\n        /* \"#utility.yul\":9684:9738   */\n      tag_293\n        /* \"#utility.yul\":9731:9737   */\n      dup5\n        /* \"#utility.yul\":9726:9729   */\n      dup3\n        /* \"#utility.yul\":9721:9724   */\n      dup6\n        /* \"#utility.yul\":9684:9738   */\n      tag_153\n      jump\t// in\n    tag_293:\n        /* \"#utility.yul\":9403:9744   */\n      pop\n        /* \"#utility.yul\":9319:9744   */\n      swap4\n      swap3\n      pop\n      pop\n      pop\n      jump\t// out\n        /* \"#utility.yul\":9764:10104   */\n    tag_155:\n        /* \"#utility.yul\":9820:9825   */\n      0x00\n        /* \"#utility.yul\":9869:9872   */\n      dup3\n        /* \"#utility.yul\":9862:9866   */\n      0x1f\n        /* \"#utility.yul\":9854:9860   */\n      dup4\n        /* \"#utility.yul\":9850:9867   */\n      add\n        /* \"#utility.yul\":9846:9873   */\n      slt\n        /* \"#utility.yul\":9836:9958   */\n      tag_295\n      jumpi\n        /* \"#utility.yul\":9877:9956   */\n      tag_296\n      tag_148\n      jump\t// in\n    tag_296:\n        /* \"#utility.yul\":9836:9958   */\n    tag_295:\n        /* \"#utility.yul\":9994:10000   */\n      dup2\n        /* \"#utility.yul\":9981:10001   */\n      calldataload\n        /* \"#utility.yul\":10019:10098   */\n      tag_297\n        /* \"#utility.yul\":10094:10097   */\n      dup5\n        /* \"#utility.yul\":10086:10092   */\n      dup3\n        /* \"#utility.yul\":10079:10083   */\n      0x20\n        /* \"#utility.yul\":10071:10077   */\n      dup7\n        /* \"#utility.yul\":10067:10084   */\n      add\n        /* \"#utility.yul\":10019:10098   */\n      tag_154\n      jump\t// in\n    tag_297:\n        /* \"#utility.yul\":10010:10098   */\n      swap2\n      pop\n        /* \"#utility.yul\":9826:10104   */\n      pop\n        /* \"#utility.yul\":9764:10104   */\n      swap3\n      swap2\n      pop\n      pop\n      jump\t// out\n        /* \"#utility.yul\":10110:11707   */\n    tag_32:\n        /* \"#utility.yul\":10244:10250   */\n      0x00\n        /* \"#utility.yul\":10252:10258   */\n      0x00\n        /* \"#utility.yul\":10260:10266   */\n      0x00\n        /* \"#utility.yul\":10268:10274   */\n      0x00\n        /* \"#utility.yul\":10276:10282   */\n      0x00\n        /* \"#utility.yul\":10284:10290   */\n      0x00\n        /* \"#utility.yul\":10333:10336   */\n      0xc0\n        /* \"#utility.yul\":10321:10330   */\n      dup8\n        /* \"#utility.yul\":10312:10319   */\n      dup10\n        /* \"#utility.yul\":10308:10331   */\n      sub\n        /* \"#utility.yul\":10304:10337   */\n      slt\n        /* \"#utility.yul\":10301:10421   */\n      iszero\n      tag_299\n      jumpi\n        /* \"#utility.yul\":10340:10419   */\n      tag_300\n      tag_120\n      jump\t// in\n    tag_300:\n        /* \"#utility.yul\":10301:10421   */\n    tag_299:\n        /* \"#utility.yul\":10460:10461   */\n      0x00\n        /* \"#utility.yul\":10485:10538   */\n      tag_301\n        /* \"#utility.yul\":10530:10537   */\n      dup10\n        /* \"#utility.yul\":10521:10527   */\n      dup3\n        /* \"#utility.yul\":10510:10519   */\n      dup11\n        /* \"#utility.yul\":10506:10528   */\n      add\n        /* \"#utility.yul\":10485:10538   */\n      tag_147\n      jump\t// in\n    tag_301:\n        /* \"#utility.yul\":10475:10538   */\n      swap7\n      pop\n        /* \"#utility.yul\":10431:10548   */\n      pop\n        /* \"#utility.yul\":10615:10617   */\n      0x20\n        /* \"#utility.yul\":10604:10613   */\n      dup8\n        /* \"#utility.yul\":10600:10618   */\n      add\n        /* \"#utility.yul\":10587:10619   */\n      calldataload\n        /* \"#utility.yul\":10646:10664   */\n      0xffffffffffffffff\n        /* \"#utility.yul\":10638:10644   */\n      dup2\n        /* \"#utility.yul\":10635:10665   */\n      gt\n        /* \"#utility.yul\":10632:10749   */\n      iszero\n      tag_302\n      jumpi\n        /* \"#utility.yul\":10668:10747   */\n      tag_303\n      tag_121\n      jump\t// in\n    tag_303:\n        /* \"#utility.yul\":10632:10749   */\n    tag_302:\n        /* \"#utility.yul\":10773:10836   */\n      tag_304\n        /* \"#utility.yul\":10828:10835   */\n      dup10\n        /* \"#utility.yul\":10819:10825   */\n      dup3\n        /* \"#utility.yul\":10808:10817   */\n      dup11\n        /* \"#utility.yul\":10804:10826   */\n      add\n        /* \"#utility.yul\":10773:10836   */\n      tag_155\n      jump\t// in\n    tag_304:\n        /* \"#utility.yul\":10763:10836   */\n      swap6\n      pop\n        /* \"#utility.yul\":10558:10846   */\n      pop\n        /* \"#utility.yul\":10913:10915   */\n      0x40\n        /* \"#utility.yul\":10902:10911   */\n      dup8\n        /* \"#utility.yul\":10898:10916   */\n      add\n        /* \"#utility.yul\":10885:10917   */\n      calldataload\n        /* \"#utility.yul\":10944:10962   */\n      0xffffffffffffffff\n        /* \"#utility.yul\":10936:10942   */\n      dup2\n        /* \"#utility.yul\":10933:10963   */\n      gt\n        /* \"#utility.yul\":10930:11047   */\n      iszero\n      tag_305\n      jumpi\n        /* \"#utility.yul\":10966:11045   */\n      tag_306\n      tag_121\n      jump\t// in\n    tag_306:\n        /* \"#utility.yul\":10930:11047   */\n    tag_305:\n        /* \"#utility.yul\":11071:11134   */\n      tag_307\n        /* \"#utility.yul\":11126:11133   */\n      dup10\n        /* \"#utility.yul\":11117:11123   */\n      dup3\n        /* \"#utility.yul\":11106:11115   */\n      dup11\n        /* \"#utility.yul\":11102:11124   */\n      add\n        /* \"#utility.yul\":11071:11134   */\n      tag_155\n      jump\t// in\n    tag_307:\n        /* \"#utility.yul\":11061:11134   */\n      swap5\n      pop\n        /* \"#utility.yul\":10856:11144   */\n      pop\n        /* \"#utility.yul\":11183:11185   */\n      0x60\n        /* \"#utility.yul\":11209:11262   */\n      tag_308\n        /* \"#utility.yul\":11254:11261   */\n      dup10\n        /* \"#utility.yul\":11245:11251   */\n      dup3\n        /* \"#utility.yul\":11234:11243   */\n      dup11\n        /* \"#utility.yul\":11230:11252   */\n      add\n        /* \"#utility.yul\":11209:11262   */\n      tag_123\n      jump\t// in\n    tag_308:\n        /* \"#utility.yul\":11199:11262   */\n      swap4\n      pop\n        /* \"#utility.yul\":11154:11272   */\n      pop\n        /* \"#utility.yul\":11311:11314   */\n      0x80\n        /* \"#utility.yul\":11338:11391   */\n      tag_309\n        /* \"#utility.yul\":11383:11390   */\n      dup10\n        /* \"#utility.yul\":11374:11380   */\n      dup3\n        /* \"#utility.yul\":11363:11372   */\n      dup11\n        /* \"#utility.yul\":11359:11381   */\n      add\n        /* \"#utility.yul\":11338:11391   */\n      tag_123\n      jump\t// in\n    tag_309:\n        /* \"#utility.yul\":11328:11391   */\n      swap3\n      pop\n        /* \"#utility.yul\":11282:11401   */\n      pop\n        /* \"#utility.yul\":11468:11471   */\n      0xa0\n        /* \"#utility.yul\":11457:11466   */\n      dup8\n        /* \"#utility.yul\":11453:11472   */\n      add\n        /* \"#utility.yul\":11440:11473   */\n      calldataload\n        /* \"#utility.yul\":11500:11518   */\n      0xffffffffffffffff\n        /* \"#utility.yul\":11492:11498   */\n      dup2\n        /* \"#utility.yul\":11489:11519   */\n      gt\n        /* \"#utility.yul\":11486:11603   */\n      iszero\n      tag_310\n      jumpi\n        /* \"#utility.yul\":11522:11601   */\n      tag_311\n      tag_121\n      jump\t// in\n    tag_311:\n        /* \"#utility.yul\":11486:11603   */\n    tag_310:\n        /* \"#utility.yul\":11627:11690   */\n      tag_312\n        /* \"#utility.yul\":11682:11689   */\n      dup10\n        /* \"#utility.yul\":11673:11679   */\n      dup3\n        /* \"#utility.yul\":11662:11671   */\n      dup11\n        /* \"#utility.yul\":11658:11680   */\n      add\n        /* \"#utility.yul\":11627:11690   */\n      tag_155\n      jump\t// in\n    tag_312:\n        /* \"#utility.yul\":11617:11690   */\n      swap2\n      pop\n        /* \"#utility.yul\":11411:11700   */\n      pop\n        /* \"#utility.yul\":10110:11707   */\n      swap3\n      swap6\n      pop\n      swap3\n      swap6\n      pop\n      swap3\n      swap6\n      jump\t// out\n        /* \"#utility.yul\":11713:11851   */\n    tag_156:\n        /* \"#utility.yul\":11804:11810   */\n      0x00\n        /* \"#utility.yul\":11838:11843   */\n      dup2\n        /* \"#utility.yul\":11832:11844   */\n      mload\n        /* \"#utility.yul\":11822:11844   */\n      swap1\n      pop\n        /* \"#utility.yul\":11713:11851   */\n      swap2\n      swap1\n      pop\n      jump\t// out\n        /* \"#utility.yul\":11857:12065   */\n    tag_157:\n        /* \"#utility.yul\":11980:11991   */\n      0x00\n        /* \"#utility.yul\":12014:12020   */\n      dup3\n        /* \"#utility.yul\":12009:12012   */\n      dup3\n        /* \"#utility.yul\":12002:12021   */\n      mstore\n        /* \"#utility.yul\":12054:12058   */\n      0x20\n        /* \"#utility.yul\":12049:12052   */\n      dup3\n        /* \"#utility.yul\":12045:12059   */\n      add\n        /* \"#utility.yul\":12030:12059   */\n      swap1\n      pop\n        /* \"#utility.yul\":11857:12065   */\n      swap3\n      swap2\n      pop\n      pop\n      jump\t// out\n        /* \"#utility.yul\":12071:12227   */\n    tag_158:\n        /* \"#utility.yul\":12162:12166   */\n      0x00\n        /* \"#utility.yul\":12185:12188   */\n      dup2\n        /* \"#utility.yul\":12177:12188   */\n      swap1\n      pop\n        /* \"#utility.yul\":12215:12219   */\n      0x20\n        /* \"#utility.yul\":12210:12213   */\n      dup3\n        /* \"#utility.yul\":12206:12220   */\n      add\n        /* \"#utility.yul\":12198:12220   */\n      swap1\n      pop\n        /* \"#utility.yul\":12071:12227   */\n      swap2\n      swap1\n      pop\n      jump\t// out\n        /* \"#utility.yul\":12233:12392   */\n    tag_159:\n        /* \"#utility.yul\":12307:12318   */\n      0x00\n        /* \"#utility.yul\":12341:12347   */\n      dup3\n        /* \"#utility.yul\":12336:12339   */\n      dup3\n        /* \"#utility.yul\":12329:12348   */\n      mstore\n        /* \"#utility.yul\":12381:12385   */\n      0x20\n        /* \"#utility.yul\":12376:12379   */\n      dup3\n        /* \"#utility.yul\":12372:12386   */\n      add\n        /* \"#utility.yul\":12357:12386   */\n      swap1\n      pop\n        /* \"#utility.yul\":12233:12392   */\n      swap3\n      swap2\n      pop\n      pop\n      jump\t// out\n        /* \"#utility.yul\":12398:12755   */\n    tag_160:\n        /* \"#utility.yul\":12476:12479   */\n      0x00\n        /* \"#utility.yul\":12504:12543   */\n      tag_318\n        /* \"#utility.yul\":12537:12542   */\n      dup3\n        /* \"#utility.yul\":12504:12543   */\n      tag_141\n      jump\t// in\n    tag_318:\n        /* \"#utility.yul\":12559:12620   */\n      tag_319\n        /* \"#utility.yul\":12613:12619   */\n      dup2\n        /* \"#utility.yul\":12608:12611   */\n      dup6\n        /* \"#utility.yul\":12559:12620   */\n      tag_159\n      jump\t// in\n    tag_319:\n        /* \"#utility.yul\":12552:12620   */\n      swap4\n      pop\n        /* \"#utility.yul\":12629:12694   */\n      tag_320\n        /* \"#utility.yul\":12687:12693   */\n      dup2\n        /* \"#utility.yul\":12682:12685   */\n      dup6\n        /* \"#utility.yul\":12675:12679   */\n      0x20\n        /* \"#utility.yul\":12668:12673   */\n      dup7\n        /* \"#utility.yul\":12664:12680   */\n      add\n        /* \"#utility.yul\":12629:12694   */\n      tag_143\n      jump\t// in\n    tag_320:\n        /* \"#utility.yul\":12719:12748   */\n      tag_321\n        /* \"#utility.yul\":12741:12747   */\n      dup2\n        /* \"#utility.yul\":12719:12748   */\n      tag_144\n      jump\t// in\n    tag_321:\n        /* \"#utility.yul\":12714:12717   */\n      dup5\n        /* \"#utility.yul\":12710:12749   */\n      add\n        /* \"#utility.yul\":12703:12749   */\n      swap2\n      pop\n        /* \"#utility.yul\":12480:12755   */\n      pop\n        /* \"#utility.yul\":12398:12755   */\n      swap3\n      swap2\n      pop\n      pop\n      jump\t// out\n        /* \"#utility.yul\":12761:12935   */\n    tag_161:\n        /* \"#utility.yul\":12850:12861   */\n      0x00\n        /* \"#utility.yul\":12884:12890   */\n      dup3\n        /* \"#utility.yul\":12879:12882   */\n      dup3\n        /* \"#utility.yul\":12872:12891   */\n      mstore\n        /* \"#utility.yul\":12924:12928   */\n      0x20\n        /* \"#utility.yul\":12919:12922   */\n      dup3\n        /* \"#utility.yul\":12915:12929   */\n      add\n        /* \"#utility.yul\":12900:12929   */\n      swap1\n      pop\n        /* \"#utility.yul\":12761:12935   */\n      swap3\n      swap2\n      pop\n      pop\n      jump\t// out\n        /* \"#utility.yul\":12971:13683   */\n    tag_162:\n        /* \"#utility.yul\":13080:13083   */\n      0x00\n        /* \"#utility.yul\":13109:13163   */\n      tag_324\n        /* \"#utility.yul\":13157:13162   */\n      dup3\n        /* \"#utility.yul\":13109:13163   */\n      tag_124\n      jump\t// in\n    tag_324:\n        /* \"#utility.yul\":13179:13255   */\n      tag_325\n        /* \"#utility.yul\":13248:13254   */\n      dup2\n        /* \"#utility.yul\":13243:13246   */\n      dup6\n        /* \"#utility.yul\":13179:13255   */\n      tag_161\n      jump\t// in\n    tag_325:\n        /* \"#utility.yul\":13172:13255   */\n      swap4\n      pop\n        /* \"#utility.yul\":13279:13335   */\n      tag_326\n        /* \"#utility.yul\":13329:13334   */\n      dup4\n        /* \"#utility.yul\":13279:13335   */\n      tag_126\n      jump\t// in\n    tag_326:\n        /* \"#utility.yul\":13358:13365   */\n      dup1\n        /* \"#utility.yul\":13389:13390   */\n      0x00\n        /* \"#utility.yul\":13374:13658   */\n    tag_327:\n        /* \"#utility.yul\":13399:13405   */\n      dup4\n        /* \"#utility.yul\":13396:13397   */\n      dup2\n        /* \"#utility.yul\":13393:13406   */\n      lt\n        /* \"#utility.yul\":13374:13658   */\n      iszero\n      tag_329\n      jumpi\n        /* \"#utility.yul\":13475:13481   */\n      dup2\n        /* \"#utility.yul\":13469:13482   */\n      mload\n        /* \"#utility.yul\":13502:13565   */\n      tag_330\n        /* \"#utility.yul\":13561:13564   */\n      dup9\n        /* \"#utility.yul\":13546:13559   */\n      dup3\n        /* \"#utility.yul\":13502:13565   */\n      tag_130\n      jump\t// in\n    tag_330:\n        /* \"#utility.yul\":13495:13565   */\n      swap8\n      pop\n        /* \"#utility.yul\":13588:13648   */\n      tag_331\n        /* \"#utility.yul\":13641:13647   */\n      dup4\n        /* \"#utility.yul\":13588:13648   */\n      tag_131\n      jump\t// in\n    tag_331:\n        /* \"#utility.yul\":13578:13648   */\n      swap3\n      pop\n        /* \"#utility.yul\":13434:13658   */\n      pop\n        /* \"#utility.yul\":13421:13422   */\n      0x01\n        /* \"#utility.yul\":13418:13419   */\n      dup2\n        /* \"#utility.yul\":13414:13423   */\n      add\n        /* \"#utility.yul\":13409:13423   */\n      swap1\n      pop\n        /* \"#utility.yul\":13374:13658   */\n      jump(tag_327)\n    tag_329:\n        /* \"#utility.yul\":13378:13392   */\n      pop\n        /* \"#utility.yul\":13674:13677   */\n      dup6\n        /* \"#utility.yul\":13667:13677   */\n      swap4\n      pop\n        /* \"#utility.yul\":13085:13683   */\n      pop\n      pop\n      pop\n        /* \"#utility.yul\":12971:13683   */\n      swap3\n      swap2\n      pop\n      pop\n      jump\t// out\n        /* \"#utility.yul\":13689:13863   */\n    tag_163:\n        /* \"#utility.yul\":13778:13789   */\n      0x00\n        /* \"#utility.yul\":13812:13818   */\n      dup3\n        /* \"#utility.yul\":13807:13810   */\n      dup3\n        /* \"#utility.yul\":13800:13819   */\n      mstore\n        /* \"#utility.yul\":13852:13856   */\n      0x20\n        /* \"#utility.yul\":13847:13850   */\n      dup3\n        /* \"#utility.yul\":13843:13857   */\n      add\n        /* \"#utility.yul\":13828:13857   */\n      swap1\n      pop\n        /* \"#utility.yul\":13689:13863   */\n      swap3\n      swap2\n      pop\n      pop\n      jump\t// out\n        /* \"#utility.yul\":13899:14611   */\n    tag_164:\n        /* \"#utility.yul\":14008:14011   */\n      0x00\n        /* \"#utility.yul\":14037:14091   */\n      tag_334\n        /* \"#utility.yul\":14085:14090   */\n      dup3\n        /* \"#utility.yul\":14037:14091   */\n      tag_133\n      jump\t// in\n    tag_334:\n        /* \"#utility.yul\":14107:14183   */\n      tag_335\n        /* \"#utility.yul\":14176:14182   */\n      dup2\n        /* \"#utility.yul\":14171:14174   */\n      dup6\n        /* \"#utility.yul\":14107:14183   */\n      tag_163\n      jump\t// in\n    tag_335:\n        /* \"#utility.yul\":14100:14183   */\n      swap4\n      pop\n        /* \"#utility.yul\":14207:14263   */\n      tag_336\n        /* \"#utility.yul\":14257:14262   */\n      dup4\n        /* \"#utility.yul\":14207:14263   */\n      tag_135\n      jump\t// in\n    tag_336:\n        /* \"#utility.yul\":14286:14293   */\n      dup1\n        /* \"#utility.yul\":14317:14318   */\n      0x00\n        /* \"#utility.yul\":14302:14586   */\n    tag_337:\n        /* \"#utility.yul\":14327:14333   */\n      dup4\n        /* \"#utility.yul\":14324:14325   */\n      dup2\n        /* \"#utility.yul\":14321:14334   */\n      lt\n        /* \"#utility.yul\":14302:14586   */\n      iszero\n      tag_339\n      jumpi\n        /* \"#utility.yul\":14403:14409   */\n      dup2\n        /* \"#utility.yul\":14397:14410   */\n      mload\n        /* \"#utility.yul\":14430:14493   */\n      tag_340\n        /* \"#utility.yul\":14489:14492   */\n      dup9\n        /* \"#utility.yul\":14474:14487   */\n      dup3\n        /* \"#utility.yul\":14430:14493   */\n      tag_137\n      jump\t// in\n    tag_340:\n        /* \"#utility.yul\":14423:14493   */\n      swap8\n      pop\n        /* \"#utility.yul\":14516:14576   */\n      tag_341\n        /* \"#utility.yul\":14569:14575   */\n      dup4\n        /* \"#utility.yul\":14516:14576   */\n      tag_138\n      jump\t// in\n    tag_341:\n        /* \"#utility.yul\":14506:14576   */\n      swap3\n      pop\n        /* \"#utility.yul\":14362:14586   */\n      pop\n        /* \"#utility.yul\":14349:14350   */\n      0x01\n        /* \"#utility.yul\":14346:14347   */\n      dup2\n        /* \"#utility.yul\":14342:14351   */\n      add\n        /* \"#utility.yul\":14337:14351   */\n      swap1\n      pop\n        /* \"#utility.yul\":14302:14586   */\n      jump(tag_337)\n    tag_339:\n        /* \"#utility.yul\":14306:14320   */\n      pop\n        /* \"#utility.yul\":14602:14605   */\n      dup6\n        /* \"#utility.yul\":14595:14605   */\n      swap4\n      pop\n        /* \"#utility.yul\":14013:14611   */\n      pop\n      pop\n      pop\n        /* \"#utility.yul\":13899:14611   */\n      swap3\n      swap2\n      pop\n      pop\n      jump\t// out\n        /* \"#utility.yul\":14685:16883   */\n    tag_165:\n        /* \"#utility.yul\":14792:14795   */\n      0x00\n        /* \"#utility.yul\":14828:14834   */\n      0x0120\n        /* \"#utility.yul\":14823:14826   */\n      dup4\n        /* \"#utility.yul\":14819:14835   */\n      add\n        /* \"#utility.yul\":14918:14922   */\n      0x00\n        /* \"#utility.yul\":14911:14916   */\n      dup4\n        /* \"#utility.yul\":14907:14923   */\n      add\n        /* \"#utility.yul\":14901:14924   */\n      mload\n        /* \"#utility.yul\":14937:15000   */\n      tag_343\n        /* \"#utility.yul\":14994:14998   */\n      0x00\n        /* \"#utility.yul\":14989:14992   */\n      dup7\n        /* \"#utility.yul\":14985:14999   */\n      add\n        /* \"#utility.yul\":14971:14983   */\n      dup3\n        /* \"#utility.yul\":14937:15000   */\n      tag_129\n      jump\t// in\n    tag_343:\n        /* \"#utility.yul\":14845:15010   */\n      pop\n        /* \"#utility.yul\":15093:15097   */\n      0x20\n        /* \"#utility.yul\":15086:15091   */\n      dup4\n        /* \"#utility.yul\":15082:15098   */\n      add\n        /* \"#utility.yul\":15076:15099   */\n      mload\n        /* \"#utility.yul\":15146:15149   */\n      dup5\n        /* \"#utility.yul\":15140:15144   */\n      dup3\n        /* \"#utility.yul\":15136:15150   */\n      sub\n        /* \"#utility.yul\":15129:15133   */\n      0x20\n        /* \"#utility.yul\":15124:15127   */\n      dup7\n        /* \"#utility.yul\":15120:15134   */\n      add\n        /* \"#utility.yul\":15113:15151   */\n      mstore\n        /* \"#utility.yul\":15172:15245   */\n      tag_344\n        /* \"#utility.yul\":15240:15244   */\n      dup3\n        /* \"#utility.yul\":15226:15238   */\n      dup3\n        /* \"#utility.yul\":15172:15245   */\n      tag_160\n      jump\t// in\n    tag_344:\n        /* \"#utility.yul\":15164:15245   */\n      swap2\n      pop\n        /* \"#utility.yul\":15020:15256   */\n      pop\n        /* \"#utility.yul\":15345:15349   */\n      0x40\n        /* \"#utility.yul\":15338:15343   */\n      dup4\n        /* \"#utility.yul\":15334:15350   */\n      add\n        /* \"#utility.yul\":15328:15351   */\n      mload\n        /* \"#utility.yul\":15398:15401   */\n      dup5\n        /* \"#utility.yul\":15392:15396   */\n      dup3\n        /* \"#utility.yul\":15388:15402   */\n      sub\n        /* \"#utility.yul\":15381:15385   */\n      0x40\n        /* \"#utility.yul\":15376:15379   */\n      dup7\n        /* \"#utility.yul\":15372:15386   */\n      add\n        /* \"#utility.yul\":15365:15403   */\n      mstore\n        /* \"#utility.yul\":15424:15497   */\n      tag_345\n        /* \"#utility.yul\":15492:15496   */\n      dup3\n        /* \"#utility.yul\":15478:15490   */\n      dup3\n        /* \"#utility.yul\":15424:15497   */\n      tag_160\n      jump\t// in\n    tag_345:\n        /* \"#utility.yul\":15416:15497   */\n      swap2\n      pop\n        /* \"#utility.yul\":15266:15508   */\n      pop\n        /* \"#utility.yul\":15592:15596   */\n      0x60\n        /* \"#utility.yul\":15585:15590   */\n      dup4\n        /* \"#utility.yul\":15581:15597   */\n      add\n        /* \"#utility.yul\":15575:15598   */\n      mload\n        /* \"#utility.yul\":15611:15674   */\n      tag_346\n        /* \"#utility.yul\":15668:15672   */\n      0x60\n        /* \"#utility.yul\":15663:15666   */\n      dup7\n        /* \"#utility.yul\":15659:15673   */\n      add\n        /* \"#utility.yul\":15645:15657   */\n      dup3\n        /* \"#utility.yul\":15611:15674   */\n      tag_136\n      jump\t// in\n    tag_346:\n        /* \"#utility.yul\":15518:15684   */\n      pop\n        /* \"#utility.yul\":15770:15774   */\n      0x80\n        /* \"#utility.yul\":15763:15768   */\n      dup4\n        /* \"#utility.yul\":15759:15775   */\n      add\n        /* \"#utility.yul\":15753:15776   */\n      mload\n        /* \"#utility.yul\":15789:15852   */\n      tag_347\n        /* \"#utility.yul\":15846:15850   */\n      0x80\n        /* \"#utility.yul\":15841:15844   */\n      dup7\n        /* \"#utility.yul\":15837:15851   */\n      add\n        /* \"#utility.yul\":15823:15835   */\n      dup3\n        /* \"#utility.yul\":15789:15852   */\n      tag_136\n      jump\t// in\n    tag_347:\n        /* \"#utility.yul\":15694:15862   */\n      pop\n        /* \"#utility.yul\":15955:15959   */\n      0xa0\n        /* \"#utility.yul\":15948:15953   */\n      dup4\n        /* \"#utility.yul\":15944:15960   */\n      add\n        /* \"#utility.yul\":15938:15961   */\n      mload\n        /* \"#utility.yul\":15974:16037   */\n      tag_348\n        /* \"#utility.yul\":16031:16035   */\n      0xa0\n        /* \"#utility.yul\":16026:16029   */\n      dup7\n        /* \"#utility.yul\":16022:16036   */\n      add\n        /* \"#utility.yul\":16008:16020   */\n      dup3\n        /* \"#utility.yul\":15974:16037   */\n      tag_136\n      jump\t// in\n    tag_348:\n        /* \"#utility.yul\":15872:16047   */\n      pop\n        /* \"#utility.yul\":16130:16134   */\n      0xc0\n        /* \"#utility.yul\":16123:16128   */\n      dup4\n        /* \"#utility.yul\":16119:16135   */\n      add\n        /* \"#utility.yul\":16113:16136   */\n      mload\n        /* \"#utility.yul\":16183:16186   */\n      dup5\n        /* \"#utility.yul\":16177:16181   */\n      dup3\n        /* \"#utility.yul\":16173:16187   */\n      sub\n        /* \"#utility.yul\":16166:16170   */\n      0xc0\n        /* \"#utility.yul\":16161:16164   */\n      dup7\n        /* \"#utility.yul\":16157:16171   */\n      add\n        /* \"#utility.yul\":16150:16188   */\n      mstore\n        /* \"#utility.yul\":16209:16282   */\n      tag_349\n        /* \"#utility.yul\":16277:16281   */\n      dup3\n        /* \"#utility.yul\":16263:16275   */\n      dup3\n        /* \"#utility.yul\":16209:16282   */\n      tag_160\n      jump\t// in\n    tag_349:\n        /* \"#utility.yul\":16201:16282   */\n      swap2\n      pop\n        /* \"#utility.yul\":16057:16293   */\n      pop\n        /* \"#utility.yul\":16379:16383   */\n      0xe0\n        /* \"#utility.yul\":16372:16377   */\n      dup4\n        /* \"#utility.yul\":16368:16384   */\n      add\n        /* \"#utility.yul\":16362:16385   */\n      mload\n        /* \"#utility.yul\":16432:16435   */\n      dup5\n        /* \"#utility.yul\":16426:16430   */\n      dup3\n        /* \"#utility.yul\":16422:16436   */\n      sub\n        /* \"#utility.yul\":16415:16419   */\n      0xe0\n        /* \"#utility.yul\":16410:16413   */\n      dup7\n        /* \"#utility.yul\":16406:16420   */\n      add\n        /* \"#utility.yul\":16399:16437   */\n      mstore\n        /* \"#utility.yul\":16458:16561   */\n      tag_350\n        /* \"#utility.yul\":16556:16560   */\n      dup3\n        /* \"#utility.yul\":16542:16554   */\n      dup3\n        /* \"#utility.yul\":16458:16561   */\n      tag_162\n      jump\t// in\n    tag_350:\n        /* \"#utility.yul\":16450:16561   */\n      swap2\n      pop\n        /* \"#utility.yul\":16303:16572   */\n      pop\n        /* \"#utility.yul\":16659:16665   */\n      0x0100\n        /* \"#utility.yul\":16652:16657   */\n      dup4\n        /* \"#utility.yul\":16648:16666   */\n      add\n        /* \"#utility.yul\":16642:16667   */\n      mload\n        /* \"#utility.yul\":16716:16719   */\n      dup5\n        /* \"#utility.yul\":16710:16714   */\n      dup3\n        /* \"#utility.yul\":16706:16720   */\n      sub\n        /* \"#utility.yul\":16697:16703   */\n      0x0100\n        /* \"#utility.yul\":16692:16695   */\n      dup7\n        /* \"#utility.yul\":16688:16704   */\n      add\n        /* \"#utility.yul\":16681:16721   */\n      mstore\n        /* \"#utility.yul\":16742:16845   */\n      tag_351\n        /* \"#utility.yul\":16840:16844   */\n      dup3\n        /* \"#utility.yul\":16826:16838   */\n      dup3\n        /* \"#utility.yul\":16742:16845   */\n      tag_164\n      jump\t// in\n    tag_351:\n        /* \"#utility.yul\":16734:16845   */\n      swap2\n      pop\n        /* \"#utility.yul\":16582:16856   */\n      pop\n        /* \"#utility.yul\":16873:16877   */\n      dup1\n        /* \"#utility.yul\":16866:16877   */\n      swap2\n      pop\n        /* \"#utility.yul\":14797:16883   */\n      pop\n        /* \"#utility.yul\":14685:16883   */\n      swap3\n      swap2\n      pop\n      pop\n      jump\t// out\n        /* \"#utility.yul\":16889:17141   */\n    tag_166:\n        /* \"#utility.yul\":17006:17016   */\n      0x00\n        /* \"#utility.yul\":17041:17135   */\n      tag_353\n        /* \"#utility.yul\":17131:17134   */\n      dup4\n        /* \"#utility.yul\":17123:17129   */\n      dup4\n        /* \"#utility.yul\":17041:17135   */\n      tag_165\n      jump\t// in\n    tag_353:\n        /* \"#utility.yul\":17027:17135   */\n      swap1\n      pop\n        /* \"#utility.yul\":16889:17141   */\n      swap3\n      swap2\n      pop\n      pop\n      jump\t// out\n        /* \"#utility.yul\":17147:17284   */\n    tag_167:\n        /* \"#utility.yul\":17241:17245   */\n      0x00\n        /* \"#utility.yul\":17273:17277   */\n      0x20\n        /* \"#utility.yul\":17268:17271   */\n      dup3\n        /* \"#utility.yul\":17264:17278   */\n      add\n        /* \"#utility.yul\":17256:17278   */\n      swap1\n      pop\n        /* \"#utility.yul\":17147:17284   */\n      swap2\n      swap1\n      pop\n      jump\t// out\n        /* \"#utility.yul\":17362:18465   */\n    tag_168:\n        /* \"#utility.yul\":17529:17532   */\n      0x00\n        /* \"#utility.yul\":17558:17636   */\n      tag_356\n        /* \"#utility.yul\":17630:17635   */\n      dup3\n        /* \"#utility.yul\":17558:17636   */\n      tag_156\n      jump\t// in\n    tag_356:\n        /* \"#utility.yul\":17652:17762   */\n      tag_357\n        /* \"#utility.yul\":17755:17761   */\n      dup2\n        /* \"#utility.yul\":17750:17753   */\n      dup6\n        /* \"#utility.yul\":17652:17762   */\n      tag_157\n      jump\t// in\n    tag_357:\n        /* \"#utility.yul\":17645:17762   */\n      swap4\n      pop\n        /* \"#utility.yul\":17788:17791   */\n      dup4\n        /* \"#utility.yul\":17833:17837   */\n      0x20\n        /* \"#utility.yul\":17825:17831   */\n      dup3\n        /* \"#utility.yul\":17821:17838   */\n      mul\n        /* \"#utility.yul\":17816:17819   */\n      dup6\n        /* \"#utility.yul\":17812:17839   */\n      add\n        /* \"#utility.yul\":17863:17943   */\n      tag_358\n        /* \"#utility.yul\":17937:17942   */\n      dup6\n        /* \"#utility.yul\":17863:17943   */\n      tag_158\n      jump\t// in\n    tag_358:\n        /* \"#utility.yul\":17966:17973   */\n      dup1\n        /* \"#utility.yul\":17997:17998   */\n      0x00\n        /* \"#utility.yul\":17982:18420   */\n    tag_359:\n        /* \"#utility.yul\":18007:18013   */\n      dup6\n        /* \"#utility.yul\":18004:18005   */\n      dup2\n        /* \"#utility.yul\":18001:18014   */\n      lt\n        /* \"#utility.yul\":17982:18420   */\n      iszero\n      tag_361\n      jumpi\n        /* \"#utility.yul\":18078:18087   */\n      dup5\n        /* \"#utility.yul\":18072:18076   */\n      dup5\n        /* \"#utility.yul\":18068:18088   */\n      sub\n        /* \"#utility.yul\":18063:18066   */\n      dup10\n        /* \"#utility.yul\":18056:18089   */\n      mstore\n        /* \"#utility.yul\":18129:18135   */\n      dup2\n        /* \"#utility.yul\":18123:18136   */\n      mload\n        /* \"#utility.yul\":18157:18269   */\n      tag_362\n        /* \"#utility.yul\":18264:18268   */\n      dup6\n        /* \"#utility.yul\":18249:18262   */\n      dup3\n        /* \"#utility.yul\":18157:18269   */\n      tag_166\n      jump\t// in\n    tag_362:\n        /* \"#utility.yul\":18149:18269   */\n      swap5\n      pop\n        /* \"#utility.yul\":18292:18376   */\n      tag_363\n        /* \"#utility.yul\":18369:18375   */\n      dup4\n        /* \"#utility.yul\":18292:18376   */\n      tag_167\n      jump\t// in\n    tag_363:\n        /* \"#utility.yul\":18282:18376   */\n      swap3\n      pop\n        /* \"#utility.yul\":18405:18409   */\n      0x20\n        /* \"#utility.yul\":18400:18403   */\n      dup11\n        /* \"#utility.yul\":18396:18410   */\n      add\n        /* \"#utility.yul\":18389:18410   */\n      swap10\n      pop\n        /* \"#utility.yul\":18042:18420   */\n      pop\n        /* \"#utility.yul\":18029:18030   */\n      0x01\n        /* \"#utility.yul\":18026:18027   */\n      dup2\n        /* \"#utility.yul\":18022:18031   */\n      add\n        /* \"#utility.yul\":18017:18031   */\n      swap1\n      pop\n        /* \"#utility.yul\":17982:18420   */\n      jump(tag_359)\n    tag_361:\n        /* \"#utility.yul\":17986:18000   */\n      pop\n        /* \"#utility.yul\":18436:18440   */\n      dup3\n        /* \"#utility.yul\":18429:18440   */\n      swap8\n      pop\n        /* \"#utility.yul\":18456:18459   */\n      dup8\n        /* \"#utility.yul\":18449:18459   */\n      swap6\n      pop\n        /* \"#utility.yul\":17534:18465   */\n      pop\n      pop\n      pop\n      pop\n      pop\n        /* \"#utility.yul\":17362:18465   */\n      swap3\n      swap2\n      pop\n      pop\n      jump\t// out\n        /* \"#utility.yul\":18471:18940   */\n    tag_39:\n        /* \"#utility.yul\":18662:18666   */\n      0x00\n        /* \"#utility.yul\":18700:18702   */\n      0x20\n        /* \"#utility.yul\":18689:18698   */\n      dup3\n        /* \"#utility.yul\":18685:18703   */\n      add\n        /* \"#utility.yul\":18677:18703   */\n      swap1\n      pop\n        /* \"#utility.yul\":18749:18758   */\n      dup2\n        /* \"#utility.yul\":18743:18747   */\n      dup2\n        /* \"#utility.yul\":18739:18759   */\n      sub\n        /* \"#utility.yul\":18735:18736   */\n      0x00\n        /* \"#utility.yul\":18724:18733   */\n      dup4\n        /* \"#utility.yul\":18720:18737   */\n      add\n        /* \"#utility.yul\":18713:18760   */\n      mstore\n        /* \"#utility.yul\":18777:18933   */\n      tag_365\n        /* \"#utility.yul\":18928:18932   */\n      dup2\n        /* \"#utility.yul\":18919:18925   */\n      dup5\n        /* \"#utility.yul\":18777:18933   */\n      tag_168\n      jump\t// in\n    tag_365:\n        /* \"#utility.yul\":18769:18933   */\n      swap1\n      pop\n        /* \"#utility.yul\":18471:18940   */\n      swap3\n      swap2\n      pop\n      pop\n      jump\t// out\n        /* \"#utility.yul\":18946:19126   */\n    tag_169:\n        /* \"#utility.yul\":18994:19071   */\n      0x4e487b7100000000000000000000000000000000000000000000000000000000\n        /* \"#utility.yul\":18991:18992   */\n      0x00\n        /* \"#utility.yul\":18984:19072   */\n      mstore\n        /* \"#utility.yul\":19091:19095   */\n      0x22\n        /* \"#utility.yul\":19088:19089   */\n      0x04\n        /* \"#utility.yul\":19081:19096   */\n      mstore\n        /* \"#utility.yul\":19115:19119   */\n      0x24\n        /* \"#utility.yul\":19112:19113   */\n      0x00\n        /* \"#utility.yul\":19105:19120   */\n      revert\n        /* \"#utility.yul\":19132:19452   */\n    tag_46:\n        /* \"#utility.yul\":19176:19182   */\n      0x00\n        /* \"#utility.yul\":19213:19214   */\n      0x02\n        /* \"#utility.yul\":19207:19211   */\n      dup3\n        /* \"#utility.yul\":19203:19215   */\n      div\n        /* \"#utility.yul\":19193:19215   */\n      swap1\n      pop\n        /* \"#utility.yul\":19260:19261   */\n      0x01\n        /* \"#utility.yul\":19254:19258   */\n      dup3\n        /* \"#utility.yul\":19250:19262   */\n      and\n        /* \"#utility.yul\":19281:19299   */\n      dup1\n        /* \"#utility.yul\":19271:19352   */\n      tag_368\n      jumpi\n        /* \"#utility.yul\":19337:19341   */\n      0x7f\n        /* \"#utility.yul\":19329:19335   */\n      dup3\n        /* \"#utility.yul\":19325:19342   */\n      and\n        /* \"#utility.yul\":19315:19342   */\n      swap2\n      pop\n        /* \"#utility.yul\":19271:19352   */\n    tag_368:\n        /* \"#utility.yul\":19399:19401   */\n      0x20\n        /* \"#utility.yul\":19391:19397   */\n      dup3\n        /* \"#utility.yul\":19388:19402   */\n      lt\n        /* \"#utility.yul\":19368:19386   */\n      dup2\n        /* \"#utility.yul\":19365:19403   */\n      sub\n        /* \"#utility.yul\":19362:19446   */\n      tag_369\n      jumpi\n        /* \"#utility.yul\":19418:19436   */\n      tag_370\n      tag_169\n      jump\t// in\n    tag_370:\n        /* \"#utility.yul\":19362:19446   */\n    tag_369:\n        /* \"#utility.yul\":19183:19452   */\n      pop\n        /* \"#utility.yul\":19132:19452   */\n      swap2\n      swap1\n      pop\n      jump\t// out\n        /* \"#utility.yul\":19458:19605   */\n    tag_170:\n        /* \"#utility.yul\":19559:19570   */\n      0x00\n        /* \"#utility.yul\":19596:19599   */\n      dup2\n        /* \"#utility.yul\":19581:19599   */\n      swap1\n      pop\n        /* \"#utility.yul\":19458:19605   */\n      swap3\n      swap2\n      pop\n      pop\n      jump\t// out\n        /* \"#utility.yul\":19611:19725   */\n    tag_171:\n      pop\n      jump\t// out\n        /* \"#utility.yul\":19731:20129   */\n    tag_172:\n        /* \"#utility.yul\":19890:19893   */\n      0x00\n        /* \"#utility.yul\":19911:19994   */\n      tag_374\n        /* \"#utility.yul\":19992:19993   */\n      0x00\n        /* \"#utility.yul\":19987:19990   */\n      dup4\n        /* \"#utility.yul\":19911:19994   */\n      tag_170\n      jump\t// in\n    tag_374:\n        /* \"#utility.yul\":19904:19994   */\n      swap2\n      pop\n        /* \"#utility.yul\":20003:20096   */\n      tag_375\n        /* \"#utility.yul\":20092:20095   */\n      dup3\n        /* \"#utility.yul\":20003:20096   */\n      tag_171\n      jump\t// in\n    tag_375:\n        /* \"#utility.yul\":20121:20122   */\n      0x00\n        /* \"#utility.yul\":20116:20119   */\n      dup3\n        /* \"#utility.yul\":20112:20123   */\n      add\n        /* \"#utility.yul\":20105:20123   */\n      swap1\n      pop\n        /* \"#utility.yul\":19731:20129   */\n      swap2\n      swap1\n      pop\n      jump\t// out\n        /* \"#utility.yul\":20135:20514   */\n    tag_65:\n        /* \"#utility.yul\":20319:20322   */\n      0x00\n        /* \"#utility.yul\":20341:20488   */\n      tag_377\n        /* \"#utility.yul\":20484:20487   */\n      dup3\n        /* \"#utility.yul\":20341:20488   */\n      tag_172\n      jump\t// in\n    tag_377:\n        /* \"#utility.yul\":20334:20488   */\n      swap2\n      pop\n        /* \"#utility.yul\":20505:20508   */\n      dup2\n        /* \"#utility.yul\":20498:20508   */\n      swap1\n      pop\n        /* \"#utility.yul\":20135:20514   */\n      swap2\n      swap1\n      pop\n      jump\t// out\n        /* \"#utility.yul\":20520:20700   */\n    tag_173:\n        /* \"#utility.yul\":20568:20645   */\n      0x4e487b7100000000000000000000000000000000000000000000000000000000\n        /* \"#utility.yul\":20565:20566   */\n      0x00\n        /* \"#utility.yul\":20558:20646   */\n      mstore\n        /* \"#utility.yul\":20665:20669   */\n      0x11\n        /* \"#utility.yul\":20662:20663   */\n      0x04\n        /* \"#utility.yul\":20655:20670   */\n      mstore\n        /* \"#utility.yul\":20689:20693   */\n      0x24\n        /* \"#utility.yul\":20686:20687   */\n      0x00\n        /* \"#utility.yul\":20679:20694   */\n      revert\n        /* \"#utility.yul\":20706:20897   */\n    tag_71:\n        /* \"#utility.yul\":20746:20749   */\n      0x00\n        /* \"#utility.yul\":20765:20785   */\n      tag_380\n        /* \"#utility.yul\":20783:20784   */\n      dup3\n        /* \"#utility.yul\":20765:20785   */\n      tag_117\n      jump\t// in\n    tag_380:\n        /* \"#utility.yul\":20760:20785   */\n      swap2\n      pop\n        /* \"#utility.yul\":20799:20819   */\n      tag_381\n        /* \"#utility.yul\":20817:20818   */\n      dup4\n        /* \"#utility.yul\":20799:20819   */\n      tag_117\n      jump\t// in\n    tag_381:\n        /* \"#utility.yul\":20794:20819   */\n      swap3\n      pop\n        /* \"#utility.yul\":20842:20843   */\n      dup3\n        /* \"#utility.yul\":20839:20840   */\n      dup3\n        /* \"#utility.yul\":20835:20844   */\n      add\n        /* \"#utility.yul\":20828:20844   */\n      swap1\n      pop\n        /* \"#utility.yul\":20863:20866   */\n      dup1\n        /* \"#utility.yul\":20860:20861   */\n      dup3\n        /* \"#utility.yul\":20857:20867   */\n      gt\n        /* \"#utility.yul\":20854:20890   */\n      iszero\n      tag_382\n      jumpi\n        /* \"#utility.yul\":20870:20888   */\n      tag_383\n      tag_173\n      jump\t// in\n    tag_383:\n        /* \"#utility.yul\":20854:20890   */\n    tag_382:\n        /* \"#utility.yul\":20706:20897   */\n      swap3\n      swap2\n      pop\n      pop\n      jump\t// out\n        /* \"#utility.yul\":20903:21134   */\n    tag_174:\n        /* \"#utility.yul\":21043:21077   */\n      0x54686520646561646c696e652073686f756c642062652061206461746120696e\n        /* \"#utility.yul\":21039:21040   */\n      0x00\n        /* \"#utility.yul\":21031:21037   */\n      dup3\n        /* \"#utility.yul\":21027:21041   */\n      add\n        /* \"#utility.yul\":21020:21078   */\n      mstore\n        /* \"#utility.yul\":21112:21126   */\n      0x20746865206675747572652e0000000000000000000000000000000000000000\n        /* \"#utility.yul\":21107:21109   */\n      0x20\n        /* \"#utility.yul\":21099:21105   */\n      dup3\n        /* \"#utility.yul\":21095:21110   */\n      add\n        /* \"#utility.yul\":21088:21127   */\n      mstore\n        /* \"#utility.yul\":20903:21134   */\n      pop\n      jump\t// out\n        /* \"#utility.yul\":21140:21506   */\n    tag_175:\n        /* \"#utility.yul\":21282:21285   */\n      0x00\n        /* \"#utility.yul\":21303:21370   */\n      tag_386\n        /* \"#utility.yul\":21367:21369   */\n      0x2c\n        /* \"#utility.yul\":21362:21365   */\n      dup4\n        /* \"#utility.yul\":21303:21370   */\n      tag_142\n      jump\t// in\n    tag_386:\n        /* \"#utility.yul\":21296:21370   */\n      swap2\n      pop\n        /* \"#utility.yul\":21379:21472   */\n      tag_387\n        /* \"#utility.yul\":21468:21471   */\n      dup3\n        /* \"#utility.yul\":21379:21472   */\n      tag_174\n      jump\t// in\n    tag_387:\n        /* \"#utility.yul\":21497:21499   */\n      0x40\n        /* \"#utility.yul\":21492:21495   */\n      dup3\n        /* \"#utility.yul\":21488:21500   */\n      add\n        /* \"#utility.yul\":21481:21500   */\n      swap1\n      pop\n        /* \"#utility.yul\":21140:21506   */\n      swap2\n      swap1\n      pop\n      jump\t// out\n        /* \"#utility.yul\":21512:21931   */\n    tag_75:\n        /* \"#utility.yul\":21678:21682   */\n      0x00\n        /* \"#utility.yul\":21716:21718   */\n      0x20\n        /* \"#utility.yul\":21705:21714   */\n      dup3\n        /* \"#utility.yul\":21701:21719   */\n      add\n        /* \"#utility.yul\":21693:21719   */\n      swap1\n      pop\n        /* \"#utility.yul\":21765:21774   */\n      dup2\n        /* \"#utility.yul\":21759:21763   */\n      dup2\n        /* \"#utility.yul\":21755:21775   */\n      sub\n        /* \"#utility.yul\":21751:21752   */\n      0x00\n        /* \"#utility.yul\":21740:21749   */\n      dup4\n        /* \"#utility.yul\":21736:21753   */\n      add\n        /* \"#utility.yul\":21729:21776   */\n      mstore\n        /* \"#utility.yul\":21793:21924   */\n      tag_389\n        /* \"#utility.yul\":21919:21923   */\n      dup2\n        /* \"#utility.yul\":21793:21924   */\n      tag_175\n      jump\t// in\n    tag_389:\n        /* \"#utility.yul\":21785:21924   */\n      swap1\n      pop\n        /* \"#utility.yul\":21512:21931   */\n      swap2\n      swap1\n      pop\n      jump\t// out\n        /* \"#utility.yul\":21937:22078   */\n    tag_176:\n        /* \"#utility.yul\":21986:21990   */\n      0x00\n        /* \"#utility.yul\":22009:22012   */\n      dup2\n        /* \"#utility.yul\":22001:22012   */\n      swap1\n      pop\n        /* \"#utility.yul\":22032:22035   */\n      dup2\n        /* \"#utility.yul\":22029:22030   */\n      0x00\n        /* \"#utility.yul\":22022:22036   */\n      mstore\n        /* \"#utility.yul\":22066:22070   */\n      0x20\n        /* \"#utility.yul\":22063:22064   */\n      0x00\n        /* \"#utility.yul\":22053:22071   */\n      keccak256\n        /* \"#utility.yul\":22045:22071   */\n      swap1\n      pop\n        /* \"#utility.yul\":21937:22078   */\n      swap2\n      swap1\n      pop\n      jump\t// out\n        /* \"#utility.yul\":22084:22177   */\n    tag_177:\n        /* \"#utility.yul\":22121:22127   */\n      0x00\n        /* \"#utility.yul\":22168:22170   */\n      0x20\n        /* \"#utility.yul\":22163:22165   */\n      0x1f\n        /* \"#utility.yul\":22156:22161   */\n      dup4\n        /* \"#utility.yul\":22152:22166   */\n      add\n        /* \"#utility.yul\":22148:22171   */\n      div\n        /* \"#utility.yul\":22138:22171   */\n      swap1\n      pop\n        /* \"#utility.yul\":22084:22177   */\n      swap2\n      swap1\n      pop\n      jump\t// out\n        /* \"#utility.yul\":22183:22290   */\n    tag_178:\n        /* \"#utility.yul\":22227:22235   */\n      0x00\n        /* \"#utility.yul\":22277:22282   */\n      dup3\n        /* \"#utility.yul\":22271:22275   */\n      dup3\n        /* \"#utility.yul\":22267:22283   */\n      shl\n        /* \"#utility.yul\":22246:22283   */\n      swap1\n      pop\n        /* \"#utility.yul\":22183:22290   */\n      swap3\n      swap2\n      pop\n      pop\n      jump\t// out\n        /* \"#utility.yul\":22296:22689   */\n    tag_179:\n        /* \"#utility.yul\":22365:22371   */\n      0x00\n        /* \"#utility.yul\":22415:22416   */\n      0x08\n        /* \"#utility.yul\":22403:22413   */\n      dup4\n        /* \"#utility.yul\":22399:22417   */\n      mul\n        /* \"#utility.yul\":22438:22535   */\n      tag_394\n        /* \"#utility.yul\":22468:22534   */\n      0xffffffffffffffffffffffffffffffffffffffffffffffffffffffffffffffff\n        /* \"#utility.yul\":22457:22466   */\n      dup3\n        /* \"#utility.yul\":22438:22535   */\n      tag_178\n      jump\t// in\n    tag_394:\n        /* \"#utility.yul\":22556:22595   */\n      tag_395\n        /* \"#utility.yul\":22586:22594   */\n      dup7\n        /* \"#utility.yul\":22575:22584   */\n      dup4\n        /* \"#utility.yul\":22556:22595   */\n      tag_178\n      jump\t// in\n    tag_395:\n        /* \"#utility.yul\":22544:22595   */\n      swap6\n      pop\n        /* \"#utility.yul\":22628:22632   */\n      dup1\n        /* \"#utility.yul\":22624:22633   */\n      not\n        /* \"#utility.yul\":22617:22622   */\n      dup5\n        /* \"#utility.yul\":22613:22634   */\n      and\n        /* \"#utility.yul\":22604:22634   */\n      swap4\n      pop\n        /* \"#utility.yul\":22677:22681   */\n      dup1\n        /* \"#utility.yul\":22667:22675   */\n      dup7\n        /* \"#utility.yul\":22663:22682   */\n      and\n        /* \"#utility.yul\":22656:22661   */\n      dup5\n        /* \"#utility.yul\":22653:22683   */\n      or\n        /* \"#utility.yul\":22643:22683   */\n      swap3\n      pop\n        /* \"#utility.yul\":22372:22689   */\n      pop\n      pop\n        /* \"#utility.yul\":22296:22689   */\n      swap4\n      swap3\n      pop\n      pop\n      pop\n      jump\t// out\n        /* \"#utility.yul\":22695:22755   */\n    tag_180:\n        /* \"#utility.yul\":22723:22726   */\n      0x00\n        /* \"#utility.yul\":22744:22749   */\n      dup2\n        /* \"#utility.yul\":22737:22749   */\n      swap1\n      pop\n        /* \"#utility.yul\":22695:22755   */\n      swap2\n      swap1\n      pop\n      jump\t// out\n        /* \"#utility.yul\":22761:22903   */\n    tag_181:\n        /* \"#utility.yul\":22811:22820   */\n      0x00\n        /* \"#utility.yul\":22844:22897   */\n      tag_398\n        /* \"#utility.yul\":22862:22896   */\n      tag_399\n        /* \"#utility.yul\":22871:22895   */\n      tag_400\n        /* \"#utility.yul\":22889:22894   */\n      dup5\n        /* \"#utility.yul\":22871:22895   */\n      tag_117\n      jump\t// in\n    tag_400:\n        /* \"#utility.yul\":22862:22896   */\n      tag_180\n      jump\t// in\n    tag_399:\n        /* \"#utility.yul\":22844:22897   */\n      tag_117\n      jump\t// in\n    tag_398:\n        /* \"#utility.yul\":22831:22897   */\n      swap1\n      pop\n        /* \"#utility.yul\":22761:22903   */\n      swap2\n      swap1\n      pop\n      jump\t// out\n        /* \"#utility.yul\":22909:22984   */\n    tag_182:\n        /* \"#utility.yul\":22952:22955   */\n      0x00\n        /* \"#utility.yul\":22973:22978   */\n      dup2\n        /* \"#utility.yul\":22966:22978   */\n      swap1\n      pop\n        /* \"#utility.yul\":22909:22984   */\n      swap2\n      swap1\n      pop\n      jump\t// out\n        /* \"#utility.yul\":22990:23259   */\n    tag_183:\n        /* \"#utility.yul\":23100:23139   */\n      tag_403\n        /* \"#utility.yul\":23131:23138   */\n      dup4\n        /* \"#utility.yul\":23100:23139   */\n      tag_181\n      jump\t// in\n    tag_403:\n        /* \"#utility.yul\":23161:23252   */\n      tag_404\n        /* \"#utility.yul\":23210:23251   */\n      tag_405\n        /* \"#utility.yul\":23234:23250   */\n      dup3\n        /* \"#utility.yul\":23210:23251   */\n      tag_182\n      jump\t// in\n    tag_405:\n        /* \"#utility.yul\":23202:23208   */\n      dup5\n        /* \"#utility.yul\":23195:23199   */\n      dup5\n        /* \"#utility.yul\":23189:23200   */\n      sload\n        /* \"#utility.yul\":23161:23252   */\n      tag_179\n      jump\t// in\n    tag_404:\n        /* \"#utility.yul\":23155:23159   */\n      dup3\n        /* \"#utility.yul\":23148:23253   */\n      sstore\n        /* \"#utility.yul\":23066:23259   */\n      pop\n        /* \"#utility.yul\":22990:23259   */\n      pop\n      pop\n      pop\n      jump\t// out\n        /* \"#utility.yul\":23265:23338   */\n    tag_184:\n        /* \"#utility.yul\":23310:23313   */\n      0x00\n        /* \"#utility.yul\":23331:23332   */\n      0x00\n        /* \"#utility.yul\":23324:23332   */\n      swap1\n      pop\n        /* \"#utility.yul\":23265:23338   */\n      swap1\n      jump\t// out\n        /* \"#utility.yul\":23344:23533   */\n    tag_185:\n        /* \"#utility.yul\":23421:23453   */\n      tag_408\n      tag_184\n      jump\t// in\n    tag_408:\n        /* \"#utility.yul\":23462:23527   */\n      tag_409\n        /* \"#utility.yul\":23520:23526   */\n      dup2\n        /* \"#utility.yul\":23512:23518   */\n      dup5\n        /* \"#utility.yul\":23506:23510   */\n      dup5\n        /* \"#utility.yul\":23462:23527   */\n      tag_183\n      jump\t// in\n    tag_409:\n        /* \"#utility.yul\":23397:23533   */\n      pop\n        /* \"#utility.yul\":23344:23533   */\n      pop\n      pop\n      jump\t// out\n        /* \"#utility.yul\":23539:23725   */\n    tag_186:\n        /* \"#utility.yul\":23599:23719   */\n    tag_411:\n        /* \"#utility.yul\":23616:23619   */\n      dup2\n        /* \"#utility.yul\":23609:23614   */\n      dup2\n        /* \"#utility.yul\":23606:23620   */\n      lt\n        /* \"#utility.yul\":23599:23719   */\n      iszero\n      tag_413\n      jumpi\n        /* \"#utility.yul\":23670:23709   */\n      tag_414\n        /* \"#utility.yul\":23707:23708   */\n      0x00\n        /* \"#utility.yul\":23700:23705   */\n      dup3\n        /* \"#utility.yul\":23670:23709   */\n      tag_185\n      jump\t// in\n    tag_414:\n        /* \"#utility.yul\":23643:23644   */\n      0x01\n        /* \"#utility.yul\":23636:23641   */\n      dup2\n        /* \"#utility.yul\":23632:23645   */\n      add\n        /* \"#utility.yul\":23623:23645   */\n      swap1\n      pop\n        /* \"#utility.yul\":23599:23719   */\n      jump(tag_411)\n    tag_413:\n        /* \"#utility.yul\":23539:23725   */\n      pop\n      pop\n      jump\t// out\n        /* \"#utility.yul\":23731:24274   */\n    tag_187:\n        /* \"#utility.yul\":23832:23834   */\n      0x1f\n        /* \"#utility.yul\":23827:23830   */\n      dup3\n        /* \"#utility.yul\":23824:23835   */\n      gt\n        /* \"#utility.yul\":23821:24267   */\n      iszero\n      tag_416\n      jumpi\n        /* \"#utility.yul\":23866:23904   */\n      tag_417\n        /* \"#utility.yul\":23898:23903   */\n      dup2\n        /* \"#utility.yul\":23866:23904   */\n      tag_176\n      jump\t// in\n    tag_417:\n        /* \"#utility.yul\":23950:23979   */\n      tag_418\n        /* \"#utility.yul\":23968:23978   */\n      dup5\n        /* \"#utility.yul\":23950:23979   */\n      tag_177\n      jump\t// in\n    tag_418:\n        /* \"#utility.yul\":23940:23948   */\n      dup2\n        /* \"#utility.yul\":23936:23980   */\n      add\n        /* \"#utility.yul\":24133:24135   */\n      0x20\n        /* \"#utility.yul\":24121:24131   */\n      dup6\n        /* \"#utility.yul\":24118:24136   */\n      lt\n        /* \"#utility.yul\":24115:24164   */\n      iszero\n      tag_419\n      jumpi\n        /* \"#utility.yul\":24154:24162   */\n      dup2\n        /* \"#utility.yul\":24139:24162   */\n      swap1\n      pop\n        /* \"#utility.yul\":24115:24164   */\n    tag_419:\n        /* \"#utility.yul\":24177:24257   */\n      tag_420\n        /* \"#utility.yul\":24233:24255   */\n      tag_421\n        /* \"#utility.yul\":24251:24254   */\n      dup6\n        /* \"#utility.yul\":24233:24255   */\n      tag_177\n      jump\t// in\n    tag_421:\n        /* \"#utility.yul\":24223:24231   */\n      dup4\n        /* \"#utility.yul\":24219:24256   */\n      add\n        /* \"#utility.yul\":24206:24217   */\n      dup3\n        /* \"#utility.yul\":24177:24257   */\n      tag_186\n      jump\t// in\n    tag_420:\n        /* \"#utility.yul\":23836:24267   */\n      pop\n      pop\n        /* \"#utility.yul\":23821:24267   */\n    tag_416:\n        /* \"#utility.yul\":23731:24274   */\n      pop\n      pop\n      pop\n      jump\t// out\n        /* \"#utility.yul\":24280:24397   */\n    tag_188:\n        /* \"#utility.yul\":24334:24342   */\n      0x00\n        /* \"#utility.yul\":24384:24389   */\n      dup3\n        /* \"#utility.yul\":24378:24382   */\n      dup3\n        /* \"#utility.yul\":24374:24390   */\n      shr\n        /* \"#utility.yul\":24353:24390   */\n      swap1\n      pop\n        /* \"#utility.yul\":24280:24397   */\n      swap3\n      swap2\n      pop\n      pop\n      jump\t// out\n        /* \"#utility.yul\":24403:24572   */\n    tag_189:\n        /* \"#utility.yul\":24447:24453   */\n      0x00\n        /* \"#utility.yul\":24480:24531   */\n      tag_424\n        /* \"#utility.yul\":24528:24529   */\n      0x00\n        /* \"#utility.yul\":24524:24530   */\n      not\n        /* \"#utility.yul\":24516:24521   */\n      dup5\n        /* \"#utility.yul\":24513:24514   */\n      0x08\n        /* \"#utility.yul\":24509:24522   */\n      mul\n        /* \"#utility.yul\":24480:24531   */\n      tag_188\n      jump\t// in\n    tag_424:\n        /* \"#utility.yul\":24476:24532   */\n      not\n        /* \"#utility.yul\":24561:24565   */\n      dup1\n        /* \"#utility.yul\":24555:24559   */\n      dup4\n        /* \"#utility.yul\":24551:24566   */\n      and\n        /* \"#utility.yul\":24541:24566   */\n      swap2\n      pop\n        /* \"#utility.yul\":24454:24572   */\n      pop\n        /* \"#utility.yul\":24403:24572   */\n      swap3\n      swap2\n      pop\n      pop\n      jump\t// out\n        /* \"#utility.yul\":24577:24872   */\n    tag_190:\n        /* \"#utility.yul\":24653:24657   */\n      0x00\n        /* \"#utility.yul\":24799:24828   */\n      tag_426\n        /* \"#utility.yul\":24824:24827   */\n      dup4\n        /* \"#utility.yul\":24818:24822   */\n      dup4\n        /* \"#utility.yul\":24799:24828   */\n      tag_189\n      jump\t// in\n    tag_426:\n        /* \"#utility.yul\":24791:24828   */\n      swap2\n      pop\n        /* \"#utility.yul\":24861:24864   */\n      dup3\n        /* \"#utility.yul\":24858:24859   */\n      0x02\n        /* \"#utility.yul\":24854:24865   */\n      mul\n        /* \"#utility.yul\":24848:24852   */\n      dup3\n        /* \"#utility.yul\":24845:24866   */\n      or\n        /* \"#utility.yul\":24837:24866   */\n      swap1\n      pop\n        /* \"#utility.yul\":24577:24872   */\n      swap3\n      swap2\n      pop\n      pop\n      jump\t// out\n        /* \"#utility.yul\":24877:26272   */\n    tag_77:\n        /* \"#utility.yul\":24994:25031   */\n      tag_428\n        /* \"#utility.yul\":25027:25030   */\n      dup3\n        /* \"#utility.yul\":24994:25031   */\n      tag_141\n      jump\t// in\n    tag_428:\n        /* \"#utility.yul\":25096:25114   */\n      0xffffffffffffffff\n        /* \"#utility.yul\":25088:25094   */\n      dup2\n        /* \"#utility.yul\":25085:25115   */\n      gt\n        /* \"#utility.yul\":25082:25138   */\n      iszero\n      tag_429\n      jumpi\n        /* \"#utility.yul\":25118:25136   */\n      tag_430\n      tag_87\n      jump\t// in\n    tag_430:\n        /* \"#utility.yul\":25082:25138   */\n    tag_429:\n        /* \"#utility.yul\":25162:25200   */\n      tag_431\n        /* \"#utility.yul\":25194:25198   */\n      dup3\n        /* \"#utility.yul\":25188:25199   */\n      sload\n        /* \"#utility.yul\":25162:25200   */\n      tag_46\n      jump\t// in\n    tag_431:\n        /* \"#utility.yul\":25247:25314   */\n      tag_432\n        /* \"#utility.yul\":25307:25313   */\n      dup3\n        /* \"#utility.yul\":25299:25305   */\n      dup3\n        /* \"#utility.yul\":25293:25297   */\n      dup6\n        /* \"#utility.yul\":25247:25314   */\n      tag_187\n      jump\t// in\n    tag_432:\n        /* \"#utility.yul\":25341:25342   */\n      0x00\n        /* \"#utility.yul\":25365:25369   */\n      0x20\n        /* \"#utility.yul\":25352:25369   */\n      swap1\n      pop\n        /* \"#utility.yul\":25397:25399   */\n      0x1f\n        /* \"#utility.yul\":25389:25395   */\n      dup4\n        /* \"#utility.yul\":25386:25400   */\n      gt\n        /* \"#utility.yul\":25414:25415   */\n      0x01\n        /* \"#utility.yul\":25409:26027   */\n      dup2\n      eq\n      tag_434\n      jumpi\n        /* \"#utility.yul\":26071:26072   */\n      0x00\n        /* \"#utility.yul\":26088:26094   */\n      dup5\n        /* \"#utility.yul\":26085:26162   */\n      iszero\n      tag_435\n      jumpi\n        /* \"#utility.yul\":26137:26146   */\n      dup3\n        /* \"#utility.yul\":26132:26135   */\n      dup8\n        /* \"#utility.yul\":26128:26147   */\n      add\n        /* \"#utility.yul\":26122:26148   */\n      mload\n        /* \"#utility.yul\":26113:26148   */\n      swap1\n      pop\n        /* \"#utility.yul\":26085:26162   */\n    tag_435:\n        /* \"#utility.yul\":26188:26255   */\n      tag_436\n        /* \"#utility.yul\":26248:26254   */\n      dup6\n        /* \"#utility.yul\":26241:26246   */\n      dup3\n        /* \"#utility.yul\":26188:26255   */\n      tag_190\n      jump\t// in\n    tag_436:\n        /* \"#utility.yul\":26182:26186   */\n      dup7\n        /* \"#utility.yul\":26175:26256   */\n      sstore\n        /* \"#utility.yul\":26044:26266   */\n      pop\n        /* \"#utility.yul\":25379:26266   */\n      jump(tag_433)\n        /* \"#utility.yul\":25409:26027   */\n    tag_434:\n        /* \"#utility.yul\":25461:25465   */\n      0x1f\n        /* \"#utility.yul\":25457:25466   */\n      not\n        /* \"#utility.yul\":25449:25455   */\n      dup5\n        /* \"#utility.yul\":25445:25467   */\n      and\n        /* \"#utility.yul\":25495:25532   */\n      tag_437\n        /* \"#utility.yul\":25527:25531   */\n      dup7\n        /* \"#utility.yul\":25495:25532   */\n      tag_176\n      jump\t// in\n    tag_437:\n        /* \"#utility.yul\":25554:25555   */\n      0x00\n        /* \"#utility.yul\":25568:25776   */\n    tag_438:\n        /* \"#utility.yul\":25582:25589   */\n      dup3\n        /* \"#utility.yul\":25579:25580   */\n      dup2\n        /* \"#utility.yul\":25576:25590   */\n      lt\n        /* \"#utility.yul\":25568:25776   */\n      iszero\n      tag_440\n      jumpi\n        /* \"#utility.yul\":25661:25670   */\n      dup5\n        /* \"#utility.yul\":25656:25659   */\n      dup10\n        /* \"#utility.yul\":25652:25671   */\n      add\n        /* \"#utility.yul\":25646:25672   */\n      mload\n        /* \"#utility.yul\":25638:25644   */\n      dup3\n        /* \"#utility.yul\":25631:25673   */\n      sstore\n        /* \"#utility.yul\":25712:25713   */\n      0x01\n        /* \"#utility.yul\":25704:25710   */\n      dup3\n        /* \"#utility.yul\":25700:25714   */\n      add\n        /* \"#utility.yul\":25690:25714   */\n      swap2\n      pop\n        /* \"#utility.yul\":25759:25761   */\n      0x20\n        /* \"#utility.yul\":25748:25757   */\n      dup6\n        /* \"#utility.yul\":25744:25762   */\n      add\n        /* \"#utility.yul\":25731:25762   */\n      swap5\n      pop\n        /* \"#utility.yul\":25605:25609   */\n      0x20\n        /* \"#utility.yul\":25602:25603   */\n      dup2\n        /* \"#utility.yul\":25598:25610   */\n      add\n        /* \"#utility.yul\":25593:25610   */\n      swap1\n      pop\n        /* \"#utility.yul\":25568:25776   */\n      jump(tag_438)\n    tag_440:\n        /* \"#utility.yul\":25804:25810   */\n      dup7\n        /* \"#utility.yul\":25795:25802   */\n      dup4\n        /* \"#utility.yul\":25792:25811   */\n      lt\n        /* \"#utility.yul\":25789:25968   */\n      iszero\n      tag_441\n      jumpi\n        /* \"#utility.yul\":25862:25871   */\n      dup5\n        /* \"#utility.yul\":25857:25860   */\n      dup10\n        /* \"#utility.yul\":25853:25872   */\n      add\n        /* \"#utility.yul\":25847:25873   */\n      mload\n        /* \"#utility.yul\":25905:25953   */\n      tag_442\n        /* \"#utility.yul\":25947:25951   */\n      0x1f\n        /* \"#utility.yul\":25939:25945   */\n      dup10\n        /* \"#utility.yul\":25935:25952   */\n      and\n        /* \"#utility.yul\":25924:25933   */\n      dup3\n        /* \"#utility.yul\":25905:25953   */\n      tag_189\n      jump\t// in\n    tag_442:\n        /* \"#utility.yul\":25897:25903   */\n      dup4\n        /* \"#utility.yul\":25890:25954   */\n      sstore\n        /* \"#utility.yul\":25812:25968   */\n      pop\n        /* \"#utility.yul\":25789:25968   */\n    tag_441:\n        /* \"#utility.yul\":26014:26015   */\n      0x01\n        /* \"#utility.yul\":26010:26011   */\n      0x02\n        /* \"#utility.yul\":26002:26008   */\n      dup9\n        /* \"#utility.yul\":25998:26012   */\n      mul\n        /* \"#utility.yul\":25994:26016   */\n      add\n        /* \"#utility.yul\":25988:25992   */\n      dup9\n        /* \"#utility.yul\":25981:26017   */\n      sstore\n        /* \"#utility.yul\":25416:26027   */\n      pop\n      pop\n      pop\n        /* \"#utility.yul\":25379:26266   */\n    tag_433:\n      pop\n        /* \"#utility.yul\":24969:26272   */\n      pop\n      pop\n      pop\n        /* \"#utility.yul\":24877:26272   */\n      pop\n      pop\n      jump\t// out\n        /* \"#utility.yul\":26278:26511   */\n    tag_81:\n        /* \"#utility.yul\":26317:26320   */\n      0x00\n        /* \"#utility.yul\":26340:26364   */\n      tag_444\n        /* \"#utility.yul\":26358:26363   */\n      dup3\n        /* \"#utility.yul\":26340:26364   */\n      tag_117\n      jump\t// in\n    tag_444:\n        /* \"#utility.yul\":26331:26364   */\n      swap2\n      pop\n        /* \"#utility.yul\":26386:26452   */\n      0xffffffffffffffffffffffffffffffffffffffffffffffffffffffffffffffff\n        /* \"#utility.yul\":26379:26384   */\n      dup3\n        /* \"#utility.yul\":26376:26453   */\n      sub\n        /* \"#utility.yul\":26373:26476   */\n      tag_445\n      jumpi\n        /* \"#utility.yul\":26456:26474   */\n      tag_446\n      tag_173\n      jump\t// in\n    tag_446:\n        /* \"#utility.yul\":26373:26476   */\n    tag_445:\n        /* \"#utility.yul\":26503:26504   */\n      0x01\n        /* \"#utility.yul\":26496:26501   */\n      dup3\n        /* \"#utility.yul\":26492:26505   */\n      add\n        /* \"#utility.yul\":26485:26505   */\n      swap1\n      pop\n        /* \"#utility.yul\":26278:26511   */\n      swap2\n      swap1\n      pop\n      jump\t// out\n        /* \"#utility.yul\":26517:26711   */\n    tag_83:\n        /* \"#utility.yul\":26557:26561   */\n      0x00\n        /* \"#utility.yul\":26577:26597   */\n      tag_448\n        /* \"#utility.yul\":26595:26596   */\n      dup3\n        /* \"#utility.yul\":26577:26597   */\n      tag_117\n      jump\t// in\n    tag_448:\n        /* \"#utility.yul\":26572:26597   */\n      swap2\n      pop\n        /* \"#utility.yul\":26611:26631   */\n      tag_449\n        /* \"#utility.yul\":26629:26630   */\n      dup4\n        /* \"#utility.yul\":26611:26631   */\n      tag_117\n      jump\t// in\n    tag_449:\n        /* \"#utility.yul\":26606:26631   */\n      swap3\n      pop\n        /* \"#utility.yul\":26655:26656   */\n      dup3\n        /* \"#utility.yul\":26652:26653   */\n      dup3\n        /* \"#utility.yul\":26648:26657   */\n      sub\n        /* \"#utility.yul\":26640:26657   */\n      swap1\n      pop\n        /* \"#utility.yul\":26679:26680   */\n      dup2\n        /* \"#utility.yul\":26673:26677   */\n      dup2\n        /* \"#utility.yul\":26670:26681   */\n      gt\n        /* \"#utility.yul\":26667:26704   */\n      iszero\n      tag_450\n      jumpi\n        /* \"#utility.yul\":26684:26702   */\n      tag_451\n      tag_173\n      jump\t// in\n    tag_451:\n        /* \"#utility.yul\":26667:26704   */\n    tag_450:\n        /* \"#utility.yul\":26517:26711   */\n      swap3\n      swap2\n      pop\n      pop\n      jump\t// out\n        /* \"#utility.yul\":26717:26897   */\n    tag_116:\n        /* \"#utility.yul\":26765:26842   */\n      0x4e487b7100000000000000000000000000000000000000000000000000000000\n        /* \"#utility.yul\":26762:26763   */\n      0x00\n        /* \"#utility.yul\":26755:26843   */\n      mstore\n        /* \"#utility.yul\":26862:26866   */\n      0x32\n        /* \"#utility.yul\":26859:26860   */\n      0x04\n        /* \"#utility.yul\":26852:26867   */\n      mstore\n        /* \"#utility.yul\":26886:26890   */\n      0x24\n        /* \"#utility.yul\":26883:26884   */\n      0x00\n        /* \"#utility.yul\":26876:26891   */\n      revert\n\n    auxdata: 0xa2646970667358221220fc8a19e71b44120c3e458115063df92d790e1e01590113d3351cef4d7aea257f64736f6c634300081e0033\n}\n",
				"bytecode": {
					"linkReferences": {},
					"object": "60806040525f6001553480156012575f5ffd5b5061185c806100205f395ff3fe608060405260043610610054575f3560e01c806307ca140d146100585780630fa91fa914610082578063141961bc146100bf57806342a4fda8146101015780639943e3a11461011d578063a6b0363314610159575b5f5ffd5b348015610063575f5ffd5b5061006c610183565b6040516100799190610b25565b60405180910390f35b34801561008d575f5ffd5b506100a860048036038101906100a39190610b79565b610189565b6040516100b6929190610d42565b60405180910390f35b3480156100ca575f5ffd5b506100e560048036038101906100e09190610b79565b610290565b6040516100f89796959493929190610df6565b60405180910390f35b61011b60048036038101906101169190610b79565b61047e565b005b348015610128575f5ffd5b50610143600480360381019061013e9190610fce565b6105ce565b6040516101509190610b25565b60405180910390f35b348015610164575f5ffd5b5061016d6106ee565b60405161017a9190611364565b60405180910390f35b60015481565b6060805f5f8481526020019081526020015f206007015f5f8581526020019081526020015f206008018180548060200260200160405190810160405280929190818152602001828054801561023057602002820191905f5260205f20905b815f9054906101000a900473ffffffffffffffffffffffffffffffffffffffff1673ffffffffffffffffffffffffffffffffffffffff16815260200190600101908083116101e7575b505050505091508080548060200260200160405190810160405280929190818152602001828054801561028057602002820191905f5260205f20905b81548152602001906001019080831161026c575b5050505050905091509150915091565b5f602052805f5260405f205f91509050805f015f9054906101000a900473ffffffffffffffffffffffffffffffffffffffff16908060010180546102d3906113b1565b80601f01602080910402602001604051908101604052809291908181526020018280546102ff906113b1565b801561034a5780601f106103215761010080835404028352916020019161034a565b820191905f5260205f20905b81548152906001019060200180831161032d57829003601f168201915b50505050509080600201805461035f906113b1565b80601f016020809104026020016040519081016040528092919081815260200182805461038b906113b1565b80156103d65780601f106103ad576101008083540402835291602001916103d6565b820191905f5260205f20905b8154815290600101906020018083116103b957829003601f168201915b5050505050908060030154908060040154908060050154908060060180546103fd906113b1565b80601f0160208091040260200160405190810160405280929190818152602001828054610429906113b1565b80156104745780601f1061044b57610100808354040283529160200191610474565b820191905f5260205f20905b81548152906001019060200180831161045757829003601f168201915b5050505050905087565b5f3490505f5f5f8481526020019081526020015f2090508060070133908060018154018082558091505060019003905f5260205f20015f9091909190916101000a81548173ffffffffffffffffffffffffffffffffffffffff021916908373ffffffffffffffffffffffffffffffffffffffff1602179055508060080182908060018154018082558091505060019003905f5260205f20015f90919091909150555f815f015f9054906101000a900473ffffffffffffffffffffffffffffffffffffffff1673ffffffffffffffffffffffffffffffffffffffff16836040516105669061140e565b5f6040518083038185875af1925050503d805f81146105a0576040519150601f19603f3d011682016040523d82523d5f602084013e6105a5565b606091505b5050905080156105c8578282600501546105bf919061144f565b82600501819055505b50505050565b5f5f5f5f60015481526020019081526020015f2090504281600401541061062a576040517f08c379a0000000000000000000000000000000000000000000000000000000008152600401610621906114f2565b60405180910390fd5b87815f015f6101000a81548173ffffffffffffffffffffffffffffffffffffffff021916908373ffffffffffffffffffffffffffffffffffffffff1602179055508681600101908161067c91906116b0565b508581600201908161068e91906116b0565b508481600301819055508381600401819055505f8160050181905550828160060190816106bb91906116b0565b5060015f8154809291906106ce9061177f565b9190505550600180546106e191906117c6565b9150509695505050505050565b60605f60015467ffffffffffffffff81111561070d5761070c610eaa565b5b60405190808252806020026020018201604052801561074657816020015b610733610aaf565b81526020019060019003908161072b5790505b5090505f5f90505b600154811015610aa7575f5f5f8381526020019081526020015f20905080604051806101200160405290815f82015f9054906101000a900473ffffffffffffffffffffffffffffffffffffffff1673ffffffffffffffffffffffffffffffffffffffff1673ffffffffffffffffffffffffffffffffffffffff1681526020016001820180546107dc906113b1565b80601f0160208091040260200160405190810160405280929190818152602001828054610808906113b1565b80156108535780601f1061082a57610100808354040283529160200191610853565b820191905f5260205f20905b81548152906001019060200180831161083657829003601f168201915b5050505050815260200160028201805461086c906113b1565b80601f0160208091040260200160405190810160405280929190818152602001828054610898906113b1565b80156108e35780601f106108ba576101008083540402835291602001916108e3565b820191905f5260205f20905b8154815290600101906020018083116108c657829003601f168201915b5050505050815260200160038201548152602001600482015481526020016005820154815260200160068201805461091a906113b1565b80601f0160208091040260200160405190810160405280929190818152602001828054610946906113b1565b80156109915780601f1061096857610100808354040283529160200191610991565b820191905f5260205f20905b81548152906001019060200180831161097457829003601f168201915b5050505050815260200160078201805480602002602001604051908101604052809291908181526020018280548015610a1c57602002820191905f5260205f20905b815f9054906101000a900473ffffffffffffffffffffffffffffffffffffffff1673ffffffffffffffffffffffffffffffffffffffff16815260200190600101908083116109d3575b5050505050815260200160088201805480602002602001604051908101604052809291908181526020018280548015610a7257602002820191905f5260205f20905b815481526020019060010190808311610a5e575b505050505081525050838381518110610a8e57610a8d6117f9565b5b602002602001018190525050808060010191505061074e565b508091505090565b6040518061012001604052805f73ffffffffffffffffffffffffffffffffffffffff16815260200160608152602001606081526020015f81526020015f81526020015f81526020016060815260200160608152602001606081525090565b5f819050919050565b610b1f81610b0d565b82525050565b5f602082019050610b385f830184610b16565b92915050565b5f604051905090565b5f5ffd5b5f5ffd5b610b5881610b0d565b8114610b62575f5ffd5b50565b5f81359050610b7381610b4f565b92915050565b5f60208284031215610b8e57610b8d610b47565b5b5f610b9b84828501610b65565b91505092915050565b5f81519050919050565b5f82825260208201905092915050565b5f819050602082019050919050565b5f73ffffffffffffffffffffffffffffffffffffffff82169050919050565b5f610bf682610bcd565b9050919050565b610c0681610bec565b82525050565b5f610c178383610bfd565b60208301905092915050565b5f602082019050919050565b5f610c3982610ba4565b610c438185610bae565b9350610c4e83610bbe565b805f5b83811015610c7e578151610c658882610c0c565b9750610c7083610c23565b925050600181019050610c51565b5085935050505092915050565b5f81519050919050565b5f82825260208201905092915050565b5f819050602082019050919050565b610cbd81610b0d565b82525050565b5f610cce8383610cb4565b60208301905092915050565b5f602082019050919050565b5f610cf082610c8b565b610cfa8185610c95565b9350610d0583610ca5565b805f5b83811015610d35578151610d1c8882610cc3565b9750610d2783610cda565b925050600181019050610d08565b5085935050505092915050565b5f6040820190508181035f830152610d5a8185610c2f565b90508181036020830152610d6e8184610ce6565b90509392505050565b610d8081610bec565b82525050565b5f81519050919050565b5f82825260208201905092915050565b8281835e5f83830152505050565b5f601f19601f8301169050919050565b5f610dc882610d86565b610dd28185610d90565b9350610de2818560208601610da0565b610deb81610dae565b840191505092915050565b5f60e082019050610e095f83018a610d77565b8181036020830152610e1b8189610dbe565b90508181036040830152610e2f8188610dbe565b9050610e3e6060830187610b16565b610e4b6080830186610b16565b610e5860a0830185610b16565b81810360c0830152610e6a8184610dbe565b905098975050505050505050565b610e8181610bec565b8114610e8b575f5ffd5b50565b5f81359050610e9c81610e78565b92915050565b5f5ffd5b5f5ffd5b7f4e487b71000000000000000000000000000000000000000000000000000000005f52604160045260245ffd5b610ee082610dae565b810181811067ffffffffffffffff82111715610eff57610efe610eaa565b5b80604052505050565b5f610f11610b3e565b9050610f1d8282610ed7565b919050565b5f67ffffffffffffffff821115610f3c57610f3b610eaa565b5b610f4582610dae565b9050602081019050919050565b828183375f83830152505050565b5f610f72610f6d84610f22565b610f08565b905082815260208101848484011115610f8e57610f8d610ea6565b5b610f99848285610f52565b509392505050565b5f82601f830112610fb557610fb4610ea2565b5b8135610fc5848260208601610f60565b91505092915050565b5f5f5f5f5f5f60c08789031215610fe857610fe7610b47565b5b5f610ff589828a01610e8e565b965050602087013567ffffffffffffffff81111561101657611015610b4b565b5b61102289828a01610fa1565b955050604087013567ffffffffffffffff81111561104357611042610b4b565b5b61104f89828a01610fa1565b945050606061106089828a01610b65565b935050608061107189828a01610b65565b92505060a087013567ffffffffffffffff81111561109257611091610b4b565b5b61109e89828a01610fa1565b9150509295509295509295565b5f81519050919050565b5f82825260208201905092915050565b5f819050602082019050919050565b5f82825260208201905092915050565b5f6110ee82610d86565b6110f881856110d4565b9350611108818560208601610da0565b61111181610dae565b840191505092915050565b5f82825260208201905092915050565b5f61113682610ba4565b611140818561111c565b935061114b83610bbe565b805f5b8381101561117b5781516111628882610c0c565b975061116d83610c23565b92505060018101905061114e565b5085935050505092915050565b5f82825260208201905092915050565b5f6111a282610c8b565b6111ac8185611188565b93506111b783610ca5565b805f5b838110156111e75781516111ce8882610cc3565b97506111d983610cda565b9250506001810190506111ba565b5085935050505092915050565b5f61012083015f83015161120a5f860182610bfd565b506020830151848203602086015261122282826110e4565b9150506040830151848203604086015261123c82826110e4565b91505060608301516112516060860182610cb4565b5060808301516112646080860182610cb4565b5060a083015161127760a0860182610cb4565b5060c083015184820360c086015261128f82826110e4565b91505060e083015184820360e08601526112a9828261112c565b9150506101008301518482036101008601526112c58282611198565b9150508091505092915050565b5f6112dd83836111f4565b905092915050565b5f602082019050919050565b5f6112fb826110ab565b61130581856110b5565b935083602082028501611317856110c5565b805f5b85811015611352578484038952815161133385826112d2565b945061133e836112e5565b925060208a0199505060018101905061131a565b50829750879550505050505092915050565b5f6020820190508181035f83015261137c81846112f1565b905092915050565b7f4e487b71000000000000000000000000000000000000000000000000000000005f52602260045260245ffd5b5f60028204905060018216806113c857607f821691505b6020821081036113db576113da611384565b5b50919050565b5f81905092915050565b50565b5f6113f95f836113e1565b9150611404826113eb565b5f82019050919050565b5f611418826113ee565b9150819050919050565b7f4e487b71000000000000000000000000000000000000000000000000000000005f52601160045260245ffd5b5f61145982610b0d565b915061146483610b0d565b925082820190508082111561147c5761147b611422565b5b92915050565b7f54686520646561646c696e652073686f756c642062652061206461746120696e5f8201527f20746865206675747572652e0000000000000000000000000000000000000000602082015250565b5f6114dc602c83610d90565b91506114e782611482565b604082019050919050565b5f6020820190508181035f830152611509816114d0565b9050919050565b5f819050815f5260205f209050919050565b5f6020601f8301049050919050565b5f82821b905092915050565b5f6008830261156c7fffffffffffffffffffffffffffffffffffffffffffffffffffffffffffffffff82611531565b6115768683611531565b95508019841693508086168417925050509392505050565b5f819050919050565b5f6115b16115ac6115a784610b0d565b61158e565b610b0d565b9050919050565b5f819050919050565b6115ca83611597565b6115de6115d6826115b8565b84845461153d565b825550505050565b5f5f905090565b6115f56115e6565b6116008184846115c1565b505050565b5b81811015611623576116185f826115ed565b600181019050611606565b5050565b601f8211156116685761163981611510565b61164284611522565b81016020851015611651578190505b61166561165d85611522565b830182611605565b50505b505050565b5f82821c905092915050565b5f6116885f198460080261166d565b1980831691505092915050565b5f6116a08383611679565b9150826002028217905092915050565b6116b982610d86565b67ffffffffffffffff8111156116d2576116d1610eaa565b5b6116dc82546113b1565b6116e7828285611627565b5f60209050601f831160018114611718575f8415611706578287015190505b6117108582611695565b865550611777565b601f19841661172686611510565b5f5b8281101561174d57848901518255600182019150602085019450602081019050611728565b8683101561176a5784890151611766601f891682611679565b8355505b6001600288020188555050505b505050505050565b5f61178982610b0d565b91507fffffffffffffffffffffffffffffffffffffffffffffffffffffffffffffffff82036117bb576117ba611422565b5b600182019050919050565b5f6117d082610b0d565b91506117db83610b0d565b92508282039050818111156117f3576117f2611422565b5b92915050565b7f4e487b71000000000000000000000000000000000000000000000000000000005f52603260045260245ffdfea2646970667358221220fc8a19e71b44120c3e458115063df92d790e1e01590113d3351cef4d7aea257f64736f6c634300081e0033",
					"opcodes": "PUSH1 0x80 PUSH1 0x40 MSTORE PUSH0 PUSH1 0x1 SSTORE CALLVALUE DUP1 ISZERO PUSH1 0x12 JUMPI PUSH0 PUSH0 REVERT JUMPDEST POP PUSH2 0x185C DUP1 PUSH2 0x20 PUSH0 CODECOPY PUSH0 RETURN INVALID PUSH1 0x80 PUSH1 0x40 MSTORE PUSH1 0x4 CALLDATASIZE LT PUSH2 0x54 JUMPI PUSH0 CALLDATALOAD PUSH1 0xE0 SHR DUP1 PUSH4 0x7CA140D EQ PUSH2 0x58 JUMPI DUP1 PUSH4 0xFA91FA9 EQ PUSH2 0x82 JUMPI DUP1 PUSH4 0x141961BC EQ PUSH2 0xBF JUMPI DUP1 PUSH4 0x42A4FDA8 EQ PUSH2 0x101 JUMPI DUP1 PUSH4 0x9943E3A1 EQ PUSH2 0x11D JUMPI DUP1 PUSH4 0xA6B03633 EQ PUSH2 0x159 JUMPI JUMPDEST PUSH0 PUSH0 REVERT JUMPDEST CALLVALUE DUP1 ISZERO PUSH2 0x63 JUMPI PUSH0 PUSH0 REVERT JUMPDEST POP PUSH2 0x6C PUSH2 0x183 JUMP JUMPDEST PUSH1 0x40 MLOAD PUSH2 0x79 SWAP2 SWAP1 PUSH2 0xB25 JUMP JUMPDEST PUSH1 0x40 MLOAD DUP1 SWAP2 SUB SWAP1 RETURN JUMPDEST CALLVALUE DUP1 ISZERO PUSH2 0x8D JUMPI PUSH0 PUSH0 REVERT JUMPDEST POP PUSH2 0xA8 PUSH1 0x4 DUP1 CALLDATASIZE SUB DUP2 ADD SWAP1 PUSH2 0xA3 SWAP2 SWAP1 PUSH2 0xB79 JUMP JUMPDEST PUSH2 0x189 JUMP JUMPDEST PUSH1 0x40 MLOAD PUSH2 0xB6 SWAP3 SWAP2 SWAP1 PUSH2 0xD42 JUMP JUMPDEST PUSH1 0x40 MLOAD DUP1 SWAP2 SUB SWAP1 RETURN JUMPDEST CALLVALUE DUP1 ISZERO PUSH2 0xCA JUMPI PUSH0 PUSH0 REVERT JUMPDEST POP PUSH2 0xE5 PUSH1 0x4 DUP1 CALLDATASIZE SUB DUP2 ADD SWAP1 PUSH2 0xE0 SWAP2 SWAP1 PUSH2 0xB79 JUMP JUMPDEST PUSH2 0x290 JUMP JUMPDEST PUSH1 0x40 MLOAD PUSH2 0xF8 SWAP8 SWAP7 SWAP6 SWAP5 SWAP4 SWAP3 SWAP2 SWAP1 PUSH2 0xDF6 JUMP JUMPDEST PUSH1 0x40 MLOAD DUP1 SWAP2 SUB SWAP1 RETURN JUMPDEST PUSH2 0x11B PUSH1 0x4 DUP1 CALLDATASIZE SUB DUP2 ADD SWAP1 PUSH2 0x116 SWAP2 SWAP1 PUSH2 0xB79 JUMP JUMPDEST PUSH2 0x47E JUMP JUMPDEST STOP JUMPDEST CALLVALUE DUP1 ISZERO PUSH2 0x128 JUMPI PUSH0 PUSH0 REVERT JUMPDEST POP PUSH2 0x143 PUSH1 0x4 DUP1 CALLDATASIZE SUB DUP2 ADD SWAP1 PUSH2 0x13E SWAP2 SWAP1 PUSH2 0xFCE JUMP JUMPDEST PUSH2 0x5CE JUMP JUMPDEST PUSH1 0x40 MLOAD PUSH2 0x150 SWAP2 SWAP1 PUSH2 0xB25 JUMP JUMPDEST PUSH1 0x40 MLOAD DUP1 SWAP2 SUB SWAP1 RETURN JUMPDEST CALLVALUE DUP1 ISZERO PUSH2 0x164 JUMPI PUSH0 PUSH0 REVERT JUMPDEST POP PUSH2 0x16D PUSH2 0x6EE JUMP JUMPDEST PUSH1 0x40 MLOAD PUSH2 0x17A SWAP2 SWAP1 PUSH2 0x1364 JUMP JUMPDEST PUSH1 0x40 MLOAD DUP1 SWAP2 SUB SWAP1 RETURN JUMPDEST PUSH1 0x1 SLOAD DUP2 JUMP JUMPDEST PUSH1 0x60 DUP1 PUSH0 PUSH0 DUP5 DUP2 MSTORE PUSH1 0x20 ADD SWAP1 DUP2 MSTORE PUSH1 0x20 ADD PUSH0 KECCAK256 PUSH1 0x7 ADD PUSH0 PUSH0 DUP6 DUP2 MSTORE PUSH1 0x20 ADD SWAP1 DUP2 MSTORE PUSH1 0x20 ADD PUSH0 KECCAK256 PUSH1 0x8 ADD DUP2 DUP1 SLOAD DUP1 PUSH1 0x20 MUL PUSH1 0x20 ADD PUSH1 0x40 MLOAD SWAP1 DUP2 ADD PUSH1 0x40 MSTORE DUP1 SWAP3 SWAP2 SWAP1 DUP2 DUP2 MSTORE PUSH1 0x20 ADD DUP3 DUP1 SLOAD DUP1 ISZERO PUSH2 0x230 JUMPI PUSH1 0x20 MUL DUP3 ADD SWAP2 SWAP1 PUSH0 MSTORE PUSH1 0x20 PUSH0 KECCAK256 SWAP1 JUMPDEST DUP2 PUSH0 SWAP1 SLOAD SWAP1 PUSH2 0x100 EXP SWAP1 DIV PUSH20 0xFFFFFFFFFFFFFFFFFFFFFFFFFFFFFFFFFFFFFFFF AND PUSH20 0xFFFFFFFFFFFFFFFFFFFFFFFFFFFFFFFFFFFFFFFF AND DUP2 MSTORE PUSH1 0x20 ADD SWAP1 PUSH1 0x1 ADD SWAP1 DUP1 DUP4 GT PUSH2 0x1E7 JUMPI JUMPDEST POP POP POP POP POP SWAP2 POP DUP1 DUP1 SLOAD DUP1 PUSH1 0x20 MUL PUSH1 0x20 ADD PUSH1 0x40 MLOAD SWAP1 DUP2 ADD PUSH1 0x40 MSTORE DUP1 SWAP3 SWAP2 SWAP1 DUP2 DUP2 MSTORE PUSH1 0x20 ADD DUP3 DUP1 SLOAD DUP1 ISZERO PUSH2 0x280 JUMPI PUSH1 0x20 MUL DUP3 ADD SWAP2 SWAP1 PUSH0 MSTORE PUSH1 0x20 PUSH0 KECCAK256 SWAP1 JUMPDEST DUP2 SLOAD DUP2 MSTORE PUSH1 0x20 ADD SWAP1 PUSH1 0x1 ADD SWAP1 DUP1 DUP4 GT PUSH2 0x26C JUMPI JUMPDEST POP POP POP POP POP SWAP1 POP SWAP2 POP SWAP2 POP SWAP2 POP SWAP2 JUMP JUMPDEST PUSH0 PUSH1 0x20 MSTORE DUP1 PUSH0 MSTORE PUSH1 0x40 PUSH0 KECCAK256 PUSH0 SWAP2 POP SWAP1 POP DUP1 PUSH0 ADD PUSH0 SWAP1 SLOAD SWAP1 PUSH2 0x100 EXP SWAP1 DIV PUSH20 0xFFFFFFFFFFFFFFFFFFFFFFFFFFFFFFFFFFFFFFFF AND SWAP1 DUP1 PUSH1 0x1 ADD DUP1 SLOAD PUSH2 0x2D3 SWAP1 PUSH2 0x13B1 JUMP JUMPDEST DUP1 PUSH1 0x1F ADD PUSH1 0x20 DUP1 SWAP2 DIV MUL PUSH1 0x20 ADD PUSH1 0x40 MLOAD SWAP1 DUP2 ADD PUSH1 0x40 MSTORE DUP1 SWAP3 SWAP2 SWAP1 DUP2 DUP2 MSTORE PUSH1 0x20 ADD DUP3 DUP1 SLOAD PUSH2 0x2FF SWAP1 PUSH2 0x13B1 JUMP JUMPDEST DUP1 ISZERO PUSH2 0x34A JUMPI DUP1 PUSH1 0x1F LT PUSH2 0x321 JUMPI PUSH2 0x100 DUP1 DUP4 SLOAD DIV MUL DUP4 MSTORE SWAP2 PUSH1 0x20 ADD SWAP2 PUSH2 0x34A JUMP JUMPDEST DUP3 ADD SWAP2 SWAP1 PUSH0 MSTORE PUSH1 0x20 PUSH0 KECCAK256 SWAP1 JUMPDEST DUP2 SLOAD DUP2 MSTORE SWAP1 PUSH1 0x1 ADD SWAP1 PUSH1 0x20 ADD DUP1 DUP4 GT PUSH2 0x32D JUMPI DUP3 SWAP1 SUB PUSH1 0x1F AND DUP3 ADD SWAP2 JUMPDEST POP POP POP POP POP SWAP1 DUP1 PUSH1 0x2 ADD DUP1 SLOAD PUSH2 0x35F SWAP1 PUSH2 0x13B1 JUMP JUMPDEST DUP1 PUSH1 0x1F ADD PUSH1 0x20 DUP1 SWAP2 DIV MUL PUSH1 0x20 ADD PUSH1 0x40 MLOAD SWAP1 DUP2 ADD PUSH1 0x40 MSTORE DUP1 SWAP3 SWAP2 SWAP1 DUP2 DUP2 MSTORE PUSH1 0x20 ADD DUP3 DUP1 SLOAD PUSH2 0x38B SWAP1 PUSH2 0x13B1 JUMP JUMPDEST DUP1 ISZERO PUSH2 0x3D6 JUMPI DUP1 PUSH1 0x1F LT PUSH2 0x3AD JUMPI PUSH2 0x100 DUP1 DUP4 SLOAD DIV MUL DUP4 MSTORE SWAP2 PUSH1 0x20 ADD SWAP2 PUSH2 0x3D6 JUMP JUMPDEST DUP3 ADD SWAP2 SWAP1 PUSH0 MSTORE PUSH1 0x20 PUSH0 KECCAK256 SWAP1 JUMPDEST DUP2 SLOAD DUP2 MSTORE SWAP1 PUSH1 0x1 ADD SWAP1 PUSH1 0x20 ADD DUP1 DUP4 GT PUSH2 0x3B9 JUMPI DUP3 SWAP1 SUB PUSH1 0x1F AND DUP3 ADD SWAP2 JUMPDEST POP POP POP POP POP SWAP1 DUP1 PUSH1 0x3 ADD SLOAD SWAP1 DUP1 PUSH1 0x4 ADD SLOAD SWAP1 DUP1 PUSH1 0x5 ADD SLOAD SWAP1 DUP1 PUSH1 0x6 ADD DUP1 SLOAD PUSH2 0x3FD SWAP1 PUSH2 0x13B1 JUMP JUMPDEST DUP1 PUSH1 0x1F ADD PUSH1 0x20 DUP1 SWAP2 DIV MUL PUSH1 0x20 ADD PUSH1 0x40 MLOAD SWAP1 DUP2 ADD PUSH1 0x40 MSTORE DUP1 SWAP3 SWAP2 SWAP1 DUP2 DUP2 MSTORE PUSH1 0x20 ADD DUP3 DUP1 SLOAD PUSH2 0x429 SWAP1 PUSH2 0x13B1 JUMP JUMPDEST DUP1 ISZERO PUSH2 0x474 JUMPI DUP1 PUSH1 0x1F LT PUSH2 0x44B JUMPI PUSH2 0x100 DUP1 DUP4 SLOAD DIV MUL DUP4 MSTORE SWAP2 PUSH1 0x20 ADD SWAP2 PUSH2 0x474 JUMP JUMPDEST DUP3 ADD SWAP2 SWAP1 PUSH0 MSTORE PUSH1 0x20 PUSH0 KECCAK256 SWAP1 JUMPDEST DUP2 SLOAD DUP2 MSTORE SWAP1 PUSH1 0x1 ADD SWAP1 PUSH1 0x20 ADD DUP1 DUP4 GT PUSH2 0x457 JUMPI DUP3 SWAP1 SUB PUSH1 0x1F AND DUP3 ADD SWAP2 JUMPDEST POP POP POP POP POP SWAP1 POP DUP8 JUMP JUMPDEST PUSH0 CALLVALUE SWAP1 POP PUSH0 PUSH0 PUSH0 DUP5 DUP2 MSTORE PUSH1 0x20 ADD SWAP1 DUP2 MSTORE PUSH1 0x20 ADD PUSH0 KECCAK256 SWAP1 POP DUP1 PUSH1 0x7 ADD CALLER SWAP1 DUP1 PUSH1 0x1 DUP2 SLOAD ADD DUP1 DUP3 SSTORE DUP1 SWAP2 POP POP PUSH1 0x1 SWAP1 SUB SWAP1 PUSH0 MSTORE PUSH1 0x20 PUSH0 KECCAK256 ADD PUSH0 SWAP1 SWAP2 SWAP1 SWAP2 SWAP1 SWAP2 PUSH2 0x100 EXP DUP2 SLOAD DUP2 PUSH20 0xFFFFFFFFFFFFFFFFFFFFFFFFFFFFFFFFFFFFFFFF MUL NOT AND SWAP1 DUP4 PUSH20 0xFFFFFFFFFFFFFFFFFFFFFFFFFFFFFFFFFFFFFFFF AND MUL OR SWAP1 SSTORE POP DUP1 PUSH1 0x8 ADD DUP3 SWAP1 DUP1 PUSH1 0x1 DUP2 SLOAD ADD DUP1 DUP3 SSTORE DUP1 SWAP2 POP POP PUSH1 0x1 SWAP1 SUB SWAP1 PUSH0 MSTORE PUSH1 0x20 PUSH0 KECCAK256 ADD PUSH0 SWAP1 SWAP2 SWAP1 SWAP2 SWAP1 SWAP2 POP SSTORE PUSH0 DUP2 PUSH0 ADD PUSH0 SWAP1 SLOAD SWAP1 PUSH2 0x100 EXP SWAP1 DIV PUSH20 0xFFFFFFFFFFFFFFFFFFFFFFFFFFFFFFFFFFFFFFFF AND PUSH20 0xFFFFFFFFFFFFFFFFFFFFFFFFFFFFFFFFFFFFFFFF AND DUP4 PUSH1 0x40 MLOAD PUSH2 0x566 SWAP1 PUSH2 0x140E JUMP JUMPDEST PUSH0 PUSH1 0x40 MLOAD DUP1 DUP4 SUB DUP2 DUP6 DUP8 GAS CALL SWAP3 POP POP POP RETURNDATASIZE DUP1 PUSH0 DUP2 EQ PUSH2 0x5A0 JUMPI PUSH1 0x40 MLOAD SWAP2 POP PUSH1 0x1F NOT PUSH1 0x3F RETURNDATASIZE ADD AND DUP3 ADD PUSH1 0x40 MSTORE RETURNDATASIZE DUP3 MSTORE RETURNDATASIZE PUSH0 PUSH1 0x20 DUP5 ADD RETURNDATACOPY PUSH2 0x5A5 JUMP JUMPDEST PUSH1 0x60 SWAP2 POP JUMPDEST POP POP SWAP1 POP DUP1 ISZERO PUSH2 0x5C8 JUMPI DUP3 DUP3 PUSH1 0x5 ADD SLOAD PUSH2 0x5BF SWAP2 SWAP1 PUSH2 0x144F JUMP JUMPDEST DUP3 PUSH1 0x5 ADD DUP2 SWAP1 SSTORE POP JUMPDEST POP POP POP POP JUMP JUMPDEST PUSH0 PUSH0 PUSH0 PUSH0 PUSH1 0x1 SLOAD DUP2 MSTORE PUSH1 0x20 ADD SWAP1 DUP2 MSTORE PUSH1 0x20 ADD PUSH0 KECCAK256 SWAP1 POP TIMESTAMP DUP2 PUSH1 0x4 ADD SLOAD LT PUSH2 0x62A JUMPI PUSH1 0x40 MLOAD PUSH32 0x8C379A000000000000000000000000000000000000000000000000000000000 DUP2 MSTORE PUSH1 0x4 ADD PUSH2 0x621 SWAP1 PUSH2 0x14F2 JUMP JUMPDEST PUSH1 0x40 MLOAD DUP1 SWAP2 SUB SWAP1 REVERT JUMPDEST DUP8 DUP2 PUSH0 ADD PUSH0 PUSH2 0x100 EXP DUP2 SLOAD DUP2 PUSH20 0xFFFFFFFFFFFFFFFFFFFFFFFFFFFFFFFFFFFFFFFF MUL NOT AND SWAP1 DUP4 PUSH20 0xFFFFFFFFFFFFFFFFFFFFFFFFFFFFFFFFFFFFFFFF AND MUL OR SWAP1 SSTORE POP DUP7 DUP2 PUSH1 0x1 ADD SWAP1 DUP2 PUSH2 0x67C SWAP2 SWAP1 PUSH2 0x16B0 JUMP JUMPDEST POP DUP6 DUP2 PUSH1 0x2 ADD SWAP1 DUP2 PUSH2 0x68E SWAP2 SWAP1 PUSH2 0x16B0 JUMP JUMPDEST POP DUP5 DUP2 PUSH1 0x3 ADD DUP2 SWAP1 SSTORE POP DUP4 DUP2 PUSH1 0x4 ADD DUP2 SWAP1 SSTORE POP PUSH0 DUP2 PUSH1 0x5 ADD DUP2 SWAP1 SSTORE POP DUP3 DUP2 PUSH1 0x6 ADD SWAP1 DUP2 PUSH2 0x6BB SWAP2 SWAP1 PUSH2 0x16B0 JUMP JUMPDEST POP PUSH1 0x1 PUSH0 DUP2 SLOAD DUP1 SWAP3 SWAP2 SWAP1 PUSH2 0x6CE SWAP1 PUSH2 0x177F JUMP JUMPDEST SWAP2 SWAP1 POP SSTORE POP PUSH1 0x1 DUP1 SLOAD PUSH2 0x6E1 SWAP2 SWAP1 PUSH2 0x17C6 JUMP JUMPDEST SWAP2 POP POP SWAP7 SWAP6 POP POP POP POP POP POP JUMP JUMPDEST PUSH1 0x60 PUSH0 PUSH1 0x1 SLOAD PUSH8 0xFFFFFFFFFFFFFFFF DUP2 GT ISZERO PUSH2 0x70D JUMPI PUSH2 0x70C PUSH2 0xEAA JUMP JUMPDEST JUMPDEST PUSH1 0x40 MLOAD SWAP1 DUP1 DUP3 MSTORE DUP1 PUSH1 0x20 MUL PUSH1 0x20 ADD DUP3 ADD PUSH1 0x40 MSTORE DUP1 ISZERO PUSH2 0x746 JUMPI DUP2 PUSH1 0x20 ADD JUMPDEST PUSH2 0x733 PUSH2 0xAAF JUMP JUMPDEST DUP2 MSTORE PUSH1 0x20 ADD SWAP1 PUSH1 0x1 SWAP1 SUB SWAP1 DUP2 PUSH2 0x72B JUMPI SWAP1 POP JUMPDEST POP SWAP1 POP PUSH0 PUSH0 SWAP1 POP JUMPDEST PUSH1 0x1 SLOAD DUP2 LT ISZERO PUSH2 0xAA7 JUMPI PUSH0 PUSH0 PUSH0 DUP4 DUP2 MSTORE PUSH1 0x20 ADD SWAP1 DUP2 MSTORE PUSH1 0x20 ADD PUSH0 KECCAK256 SWAP1 POP DUP1 PUSH1 0x40 MLOAD DUP1 PUSH2 0x120 ADD PUSH1 0x40 MSTORE SWAP1 DUP2 PUSH0 DUP3 ADD PUSH0 SWAP1 SLOAD SWAP1 PUSH2 0x100 EXP SWAP1 DIV PUSH20 0xFFFFFFFFFFFFFFFFFFFFFFFFFFFFFFFFFFFFFFFF AND PUSH20 0xFFFFFFFFFFFFFFFFFFFFFFFFFFFFFFFFFFFFFFFF AND PUSH20 0xFFFFFFFFFFFFFFFFFFFFFFFFFFFFFFFFFFFFFFFF AND DUP2 MSTORE PUSH1 0x20 ADD PUSH1 0x1 DUP3 ADD DUP1 SLOAD PUSH2 0x7DC SWAP1 PUSH2 0x13B1 JUMP JUMPDEST DUP1 PUSH1 0x1F ADD PUSH1 0x20 DUP1 SWAP2 DIV MUL PUSH1 0x20 ADD PUSH1 0x40 MLOAD SWAP1 DUP2 ADD PUSH1 0x40 MSTORE DUP1 SWAP3 SWAP2 SWAP1 DUP2 DUP2 MSTORE PUSH1 0x20 ADD DUP3 DUP1 SLOAD PUSH2 0x808 SWAP1 PUSH2 0x13B1 JUMP JUMPDEST DUP1 ISZERO PUSH2 0x853 JUMPI DUP1 PUSH1 0x1F LT PUSH2 0x82A JUMPI PUSH2 0x100 DUP1 DUP4 SLOAD DIV MUL DUP4 MSTORE SWAP2 PUSH1 0x20 ADD SWAP2 PUSH2 0x853 JUMP JUMPDEST DUP3 ADD SWAP2 SWAP1 PUSH0 MSTORE PUSH1 0x20 PUSH0 KECCAK256 SWAP1 JUMPDEST DUP2 SLOAD DUP2 MSTORE SWAP1 PUSH1 0x1 ADD SWAP1 PUSH1 0x20 ADD DUP1 DUP4 GT PUSH2 0x836 JUMPI DUP3 SWAP1 SUB PUSH1 0x1F AND DUP3 ADD SWAP2 JUMPDEST POP POP POP POP POP DUP2 MSTORE PUSH1 0x20 ADD PUSH1 0x2 DUP3 ADD DUP1 SLOAD PUSH2 0x86C SWAP1 PUSH2 0x13B1 JUMP JUMPDEST DUP1 PUSH1 0x1F ADD PUSH1 0x20 DUP1 SWAP2 DIV MUL PUSH1 0x20 ADD PUSH1 0x40 MLOAD SWAP1 DUP2 ADD PUSH1 0x40 MSTORE DUP1 SWAP3 SWAP2 SWAP1 DUP2 DUP2 MSTORE PUSH1 0x20 ADD DUP3 DUP1 SLOAD PUSH2 0x898 SWAP1 PUSH2 0x13B1 JUMP JUMPDEST DUP1 ISZERO PUSH2 0x8E3 JUMPI DUP1 PUSH1 0x1F LT PUSH2 0x8BA JUMPI PUSH2 0x100 DUP1 DUP4 SLOAD DIV MUL DUP4 MSTORE SWAP2 PUSH1 0x20 ADD SWAP2 PUSH2 0x8E3 JUMP JUMPDEST DUP3 ADD SWAP2 SWAP1 PUSH0 MSTORE PUSH1 0x20 PUSH0 KECCAK256 SWAP1 JUMPDEST DUP2 SLOAD DUP2 MSTORE SWAP1 PUSH1 0x1 ADD SWAP1 PUSH1 0x20 ADD DUP1 DUP4 GT PUSH2 0x8C6 JUMPI DUP3 SWAP1 SUB PUSH1 0x1F AND DUP3 ADD SWAP2 JUMPDEST POP POP POP POP POP DUP2 MSTORE PUSH1 0x20 ADD PUSH1 0x3 DUP3 ADD SLOAD DUP2 MSTORE PUSH1 0x20 ADD PUSH1 0x4 DUP3 ADD SLOAD DUP2 MSTORE PUSH1 0x20 ADD PUSH1 0x5 DUP3 ADD SLOAD DUP2 MSTORE PUSH1 0x20 ADD PUSH1 0x6 DUP3 ADD DUP1 SLOAD PUSH2 0x91A SWAP1 PUSH2 0x13B1 JUMP JUMPDEST DUP1 PUSH1 0x1F ADD PUSH1 0x20 DUP1 SWAP2 DIV MUL PUSH1 0x20 ADD PUSH1 0x40 MLOAD SWAP1 DUP2 ADD PUSH1 0x40 MSTORE DUP1 SWAP3 SWAP2 SWAP1 DUP2 DUP2 MSTORE PUSH1 0x20 ADD DUP3 DUP1 SLOAD PUSH2 0x946 SWAP1 PUSH2 0x13B1 JUMP JUMPDEST DUP1 ISZERO PUSH2 0x991 JUMPI DUP1 PUSH1 0x1F LT PUSH2 0x968 JUMPI PUSH2 0x100 DUP1 DUP4 SLOAD DIV MUL DUP4 MSTORE SWAP2 PUSH1 0x20 ADD SWAP2 PUSH2 0x991 JUMP JUMPDEST DUP3 ADD SWAP2 SWAP1 PUSH0 MSTORE PUSH1 0x20 PUSH0 KECCAK256 SWAP1 JUMPDEST DUP2 SLOAD DUP2 MSTORE SWAP1 PUSH1 0x1 ADD SWAP1 PUSH1 0x20 ADD DUP1 DUP4 GT PUSH2 0x974 JUMPI DUP3 SWAP1 SUB PUSH1 0x1F AND DUP3 ADD SWAP2 JUMPDEST POP POP POP POP POP DUP2 MSTORE PUSH1 0x20 ADD PUSH1 0x7 DUP3 ADD DUP1 SLOAD DUP1 PUSH1 0x20 MUL PUSH1 0x20 ADD PUSH1 0x40 MLOAD SWAP1 DUP2 ADD PUSH1 0x40 MSTORE DUP1 SWAP3 SWAP2 SWAP1 DUP2 DUP2 MSTORE PUSH1 0x20 ADD DUP3 DUP1 SLOAD DUP1 ISZERO PUSH2 0xA1C JUMPI PUSH1 0x20 MUL DUP3 ADD SWAP2 SWAP1 PUSH0 MSTORE PUSH1 0x20 PUSH0 KECCAK256 SWAP1 JUMPDEST DUP2 PUSH0 SWAP1 SLOAD SWAP1 PUSH2 0x100 EXP SWAP1 DIV PUSH20 0xFFFFFFFFFFFFFFFFFFFFFFFFFFFFFFFFFFFFFFFF AND PUSH20 0xFFFFFFFFFFFFFFFFFFFFFFFFFFFFFFFFFFFFFFFF AND DUP2 MSTORE PUSH1 0x20 ADD SWAP1 PUSH1 0x1 ADD SWAP1 DUP1 DUP4 GT PUSH2 0x9D3 JUMPI JUMPDEST POP POP POP POP POP DUP2 MSTORE PUSH1 0x20 ADD PUSH1 0x8 DUP3 ADD DUP1 SLOAD DUP1 PUSH1 0x20 MUL PUSH1 0x20 ADD PUSH1 0x40 MLOAD SWAP1 DUP2 ADD PUSH1 0x40 MSTORE DUP1 SWAP3 SWAP2 SWAP1 DUP2 DUP2 MSTORE PUSH1 0x20 ADD DUP3 DUP1 SLOAD DUP1 ISZERO PUSH2 0xA72 JUMPI PUSH1 0x20 MUL DUP3 ADD SWAP2 SWAP1 PUSH0 MSTORE PUSH1 0x20 PUSH0 KECCAK256 SWAP1 JUMPDEST DUP2 SLOAD DUP2 MSTORE PUSH1 0x20 ADD SWAP1 PUSH1 0x1 ADD SWAP1 DUP1 DUP4 GT PUSH2 0xA5E JUMPI JUMPDEST POP POP POP POP POP DUP2 MSTORE POP POP DUP4 DUP4 DUP2 MLOAD DUP2 LT PUSH2 0xA8E JUMPI PUSH2 0xA8D PUSH2 0x17F9 JUMP JUMPDEST JUMPDEST PUSH1 0x20 MUL PUSH1 0x20 ADD ADD DUP2 SWAP1 MSTORE POP POP DUP1 DUP1 PUSH1 0x1 ADD SWAP2 POP POP PUSH2 0x74E JUMP JUMPDEST POP DUP1 SWAP2 POP POP SWAP1 JUMP JUMPDEST PUSH1 0x40 MLOAD DUP1 PUSH2 0x120 ADD PUSH1 0x40 MSTORE DUP1 PUSH0 PUSH20 0xFFFFFFFFFFFFFFFFFFFFFFFFFFFFFFFFFFFFFFFF AND DUP2 MSTORE PUSH1 0x20 ADD PUSH1 0x60 DUP2 MSTORE PUSH1 0x20 ADD PUSH1 0x60 DUP2 MSTORE PUSH1 0x20 ADD PUSH0 DUP2 MSTORE PUSH1 0x20 ADD PUSH0 DUP2 MSTORE PUSH1 0x20 ADD PUSH0 DUP2 MSTORE PUSH1 0x20 ADD PUSH1 0x60 DUP2 MSTORE PUSH1 0x20 ADD PUSH1 0x60 DUP2 MSTORE PUSH1 0x20 ADD PUSH1 0x60 DUP2 MSTORE POP SWAP1 JUMP JUMPDEST PUSH0 DUP2 SWAP1 POP SWAP2 SWAP1 POP JUMP JUMPDEST PUSH2 0xB1F DUP2 PUSH2 0xB0D JUMP JUMPDEST DUP3 MSTORE POP POP JUMP JUMPDEST PUSH0 PUSH1 0x20 DUP3 ADD SWAP1 POP PUSH2 0xB38 PUSH0 DUP4 ADD DUP5 PUSH2 0xB16 JUMP JUMPDEST SWAP3 SWAP2 POP POP JUMP JUMPDEST PUSH0 PUSH1 0x40 MLOAD SWAP1 POP SWAP1 JUMP JUMPDEST PUSH0 PUSH0 REVERT JUMPDEST PUSH0 PUSH0 REVERT JUMPDEST PUSH2 0xB58 DUP2 PUSH2 0xB0D JUMP JUMPDEST DUP2 EQ PUSH2 0xB62 JUMPI PUSH0 PUSH0 REVERT JUMPDEST POP JUMP JUMPDEST PUSH0 DUP2 CALLDATALOAD SWAP1 POP PUSH2 0xB73 DUP2 PUSH2 0xB4F JUMP JUMPDEST SWAP3 SWAP2 POP POP JUMP JUMPDEST PUSH0 PUSH1 0x20 DUP3 DUP5 SUB SLT ISZERO PUSH2 0xB8E JUMPI PUSH2 0xB8D PUSH2 0xB47 JUMP JUMPDEST JUMPDEST PUSH0 PUSH2 0xB9B DUP5 DUP3 DUP6 ADD PUSH2 0xB65 JUMP JUMPDEST SWAP2 POP POP SWAP3 SWAP2 POP POP JUMP JUMPDEST PUSH0 DUP2 MLOAD SWAP1 POP SWAP2 SWAP1 POP JUMP JUMPDEST PUSH0 DUP3 DUP3 MSTORE PUSH1 0x20 DUP3 ADD SWAP1 POP SWAP3 SWAP2 POP POP JUMP JUMPDEST PUSH0 DUP2 SWAP1 POP PUSH1 0x20 DUP3 ADD SWAP1 POP SWAP2 SWAP1 POP JUMP JUMPDEST PUSH0 PUSH20 0xFFFFFFFFFFFFFFFFFFFFFFFFFFFFFFFFFFFFFFFF DUP3 AND SWAP1 POP SWAP2 SWAP1 POP JUMP JUMPDEST PUSH0 PUSH2 0xBF6 DUP3 PUSH2 0xBCD JUMP JUMPDEST SWAP1 POP SWAP2 SWAP1 POP JUMP JUMPDEST PUSH2 0xC06 DUP2 PUSH2 0xBEC JUMP JUMPDEST DUP3 MSTORE POP POP JUMP JUMPDEST PUSH0 PUSH2 0xC17 DUP4 DUP4 PUSH2 0xBFD JUMP JUMPDEST PUSH1 0x20 DUP4 ADD SWAP1 POP SWAP3 SWAP2 POP POP JUMP JUMPDEST PUSH0 PUSH1 0x20 DUP3 ADD SWAP1 POP SWAP2 SWAP1 POP JUMP JUMPDEST PUSH0 PUSH2 0xC39 DUP3 PUSH2 0xBA4 JUMP JUMPDEST PUSH2 0xC43 DUP2 DUP6 PUSH2 0xBAE JUMP JUMPDEST SWAP4 POP PUSH2 0xC4E DUP4 PUSH2 0xBBE JUMP JUMPDEST DUP1 PUSH0 JUMPDEST DUP4 DUP2 LT ISZERO PUSH2 0xC7E JUMPI DUP2 MLOAD PUSH2 0xC65 DUP9 DUP3 PUSH2 0xC0C JUMP JUMPDEST SWAP8 POP PUSH2 0xC70 DUP4 PUSH2 0xC23 JUMP JUMPDEST SWAP3 POP POP PUSH1 0x1 DUP2 ADD SWAP1 POP PUSH2 0xC51 JUMP JUMPDEST POP DUP6 SWAP4 POP POP POP POP SWAP3 SWAP2 POP POP JUMP JUMPDEST PUSH0 DUP2 MLOAD SWAP1 POP SWAP2 SWAP1 POP JUMP JUMPDEST PUSH0 DUP3 DUP3 MSTORE PUSH1 0x20 DUP3 ADD SWAP1 POP SWAP3 SWAP2 POP POP JUMP JUMPDEST PUSH0 DUP2 SWAP1 POP PUSH1 0x20 DUP3 ADD SWAP1 POP SWAP2 SWAP1 POP JUMP JUMPDEST PUSH2 0xCBD DUP2 PUSH2 0xB0D JUMP JUMPDEST DUP3 MSTORE POP POP JUMP JUMPDEST PUSH0 PUSH2 0xCCE DUP4 DUP4 PUSH2 0xCB4 JUMP JUMPDEST PUSH1 0x20 DUP4 ADD SWAP1 POP SWAP3 SWAP2 POP POP JUMP JUMPDEST PUSH0 PUSH1 0x20 DUP3 ADD SWAP1 POP SWAP2 SWAP1 POP JUMP JUMPDEST PUSH0 PUSH2 0xCF0 DUP3 PUSH2 0xC8B JUMP JUMPDEST PUSH2 0xCFA DUP2 DUP6 PUSH2 0xC95 JUMP JUMPDEST SWAP4 POP PUSH2 0xD05 DUP4 PUSH2 0xCA5 JUMP JUMPDEST DUP1 PUSH0 JUMPDEST DUP4 DUP2 LT ISZERO PUSH2 0xD35 JUMPI DUP2 MLOAD PUSH2 0xD1C DUP9 DUP3 PUSH2 0xCC3 JUMP JUMPDEST SWAP8 POP PUSH2 0xD27 DUP4 PUSH2 0xCDA JUMP JUMPDEST SWAP3 POP POP PUSH1 0x1 DUP2 ADD SWAP1 POP PUSH2 0xD08 JUMP JUMPDEST POP DUP6 SWAP4 POP POP POP POP SWAP3 SWAP2 POP POP JUMP JUMPDEST PUSH0 PUSH1 0x40 DUP3 ADD SWAP1 POP DUP2 DUP2 SUB PUSH0 DUP4 ADD MSTORE PUSH2 0xD5A DUP2 DUP6 PUSH2 0xC2F JUMP JUMPDEST SWAP1 POP DUP2 DUP2 SUB PUSH1 0x20 DUP4 ADD MSTORE PUSH2 0xD6E DUP2 DUP5 PUSH2 0xCE6 JUMP JUMPDEST SWAP1 POP SWAP4 SWAP3 POP POP POP JUMP JUMPDEST PUSH2 0xD80 DUP2 PUSH2 0xBEC JUMP JUMPDEST DUP3 MSTORE POP POP JUMP JUMPDEST PUSH0 DUP2 MLOAD SWAP1 POP SWAP2 SWAP1 POP JUMP JUMPDEST PUSH0 DUP3 DUP3 MSTORE PUSH1 0x20 DUP3 ADD SWAP1 POP SWAP3 SWAP2 POP POP JUMP JUMPDEST DUP3 DUP2 DUP4 MCOPY PUSH0 DUP4 DUP4 ADD MSTORE POP POP POP JUMP JUMPDEST PUSH0 PUSH1 0x1F NOT PUSH1 0x1F DUP4 ADD AND SWAP1 POP SWAP2 SWAP1 POP JUMP JUMPDEST PUSH0 PUSH2 0xDC8 DUP3 PUSH2 0xD86 JUMP JUMPDEST PUSH2 0xDD2 DUP2 DUP6 PUSH2 0xD90 JUMP JUMPDEST SWAP4 POP PUSH2 0xDE2 DUP2 DUP6 PUSH1 0x20 DUP7 ADD PUSH2 0xDA0 JUMP JUMPDEST PUSH2 0xDEB DUP2 PUSH2 0xDAE JUMP JUMPDEST DUP5 ADD SWAP2 POP POP SWAP3 SWAP2 POP POP JUMP JUMPDEST PUSH0 PUSH1 0xE0 DUP3 ADD SWAP1 POP PUSH2 0xE09 PUSH0 DUP4 ADD DUP11 PUSH2 0xD77 JUMP JUMPDEST DUP2 DUP2 SUB PUSH1 0x20 DUP4 ADD MSTORE PUSH2 0xE1B DUP2 DUP10 PUSH2 0xDBE JUMP JUMPDEST SWAP1 POP DUP2 DUP2 SUB PUSH1 0x40 DUP4 ADD MSTORE PUSH2 0xE2F DUP2 DUP9 PUSH2 0xDBE JUMP JUMPDEST SWAP1 POP PUSH2 0xE3E PUSH1 0x60 DUP4 ADD DUP8 PUSH2 0xB16 JUMP JUMPDEST PUSH2 0xE4B PUSH1 0x80 DUP4 ADD DUP7 PUSH2 0xB16 JUMP JUMPDEST PUSH2 0xE58 PUSH1 0xA0 DUP4 ADD DUP6 PUSH2 0xB16 JUMP JUMPDEST DUP2 DUP2 SUB PUSH1 0xC0 DUP4 ADD MSTORE PUSH2 0xE6A DUP2 DUP5 PUSH2 0xDBE JUMP JUMPDEST SWAP1 POP SWAP9 SWAP8 POP POP POP POP POP POP POP POP JUMP JUMPDEST PUSH2 0xE81 DUP2 PUSH2 0xBEC JUMP JUMPDEST DUP2 EQ PUSH2 0xE8B JUMPI PUSH0 PUSH0 REVERT JUMPDEST POP JUMP JUMPDEST PUSH0 DUP2 CALLDATALOAD SWAP1 POP PUSH2 0xE9C DUP2 PUSH2 0xE78 JUMP JUMPDEST SWAP3 SWAP2 POP POP JUMP JUMPDEST PUSH0 PUSH0 REVERT JUMPDEST PUSH0 PUSH0 REVERT JUMPDEST PUSH32 0x4E487B7100000000000000000000000000000000000000000000000000000000 PUSH0 MSTORE PUSH1 0x41 PUSH1 0x4 MSTORE PUSH1 0x24 PUSH0 REVERT JUMPDEST PUSH2 0xEE0 DUP3 PUSH2 0xDAE JUMP JUMPDEST DUP2 ADD DUP2 DUP2 LT PUSH8 0xFFFFFFFFFFFFFFFF DUP3 GT OR ISZERO PUSH2 0xEFF JUMPI PUSH2 0xEFE PUSH2 0xEAA JUMP JUMPDEST JUMPDEST DUP1 PUSH1 0x40 MSTORE POP POP POP JUMP JUMPDEST PUSH0 PUSH2 0xF11 PUSH2 0xB3E JUMP JUMPDEST SWAP1 POP PUSH2 0xF1D DUP3 DUP3 PUSH2 0xED7 JUMP JUMPDEST SWAP2 SWAP1 POP JUMP JUMPDEST PUSH0 PUSH8 0xFFFFFFFFFFFFFFFF DUP3 GT ISZERO PUSH2 0xF3C JUMPI PUSH2 0xF3B PUSH2 0xEAA JUMP JUMPDEST JUMPDEST PUSH2 0xF45 DUP3 PUSH2 0xDAE JUMP JUMPDEST SWAP1 POP PUSH1 0x20 DUP2 ADD SWAP1 POP SWAP2 SWAP1 POP JUMP JUMPDEST DUP3 DUP2 DUP4 CALLDATACOPY PUSH0 DUP4 DUP4 ADD MSTORE POP POP POP JUMP JUMPDEST PUSH0 PUSH2 0xF72 PUSH2 0xF6D DUP5 PUSH2 0xF22 JUMP JUMPDEST PUSH2 0xF08 JUMP JUMPDEST SWAP1 POP DUP3 DUP2 MSTORE PUSH1 0x20 DUP2 ADD DUP5 DUP5 DUP5 ADD GT ISZERO PUSH2 0xF8E JUMPI PUSH2 0xF8D PUSH2 0xEA6 JUMP JUMPDEST JUMPDEST PUSH2 0xF99 DUP5 DUP3 DUP6 PUSH2 0xF52 JUMP JUMPDEST POP SWAP4 SWAP3 POP POP POP JUMP JUMPDEST PUSH0 DUP3 PUSH1 0x1F DUP4 ADD SLT PUSH2 0xFB5 JUMPI PUSH2 0xFB4 PUSH2 0xEA2 JUMP JUMPDEST JUMPDEST DUP2 CALLDATALOAD PUSH2 0xFC5 DUP5 DUP3 PUSH1 0x20 DUP7 ADD PUSH2 0xF60 JUMP JUMPDEST SWAP2 POP POP SWAP3 SWAP2 POP POP JUMP JUMPDEST PUSH0 PUSH0 PUSH0 PUSH0 PUSH0 PUSH0 PUSH1 0xC0 DUP8 DUP10 SUB SLT ISZERO PUSH2 0xFE8 JUMPI PUSH2 0xFE7 PUSH2 0xB47 JUMP JUMPDEST JUMPDEST PUSH0 PUSH2 0xFF5 DUP10 DUP3 DUP11 ADD PUSH2 0xE8E JUMP JUMPDEST SWAP7 POP POP PUSH1 0x20 DUP8 ADD CALLDATALOAD PUSH8 0xFFFFFFFFFFFFFFFF DUP2 GT ISZERO PUSH2 0x1016 JUMPI PUSH2 0x1015 PUSH2 0xB4B JUMP JUMPDEST JUMPDEST PUSH2 0x1022 DUP10 DUP3 DUP11 ADD PUSH2 0xFA1 JUMP JUMPDEST SWAP6 POP POP PUSH1 0x40 DUP8 ADD CALLDATALOAD PUSH8 0xFFFFFFFFFFFFFFFF DUP2 GT ISZERO PUSH2 0x1043 JUMPI PUSH2 0x1042 PUSH2 0xB4B JUMP JUMPDEST JUMPDEST PUSH2 0x104F DUP10 DUP3 DUP11 ADD PUSH2 0xFA1 JUMP JUMPDEST SWAP5 POP POP PUSH1 0x60 PUSH2 0x1060 DUP10 DUP3 DUP11 ADD PUSH2 0xB65 JUMP JUMPDEST SWAP4 POP POP PUSH1 0x80 PUSH2 0x1071 DUP10 DUP3 DUP11 ADD PUSH2 0xB65 JUMP JUMPDEST SWAP3 POP POP PUSH1 0xA0 DUP8 ADD CALLDATALOAD PUSH8 0xFFFFFFFFFFFFFFFF DUP2 GT ISZERO PUSH2 0x1092 JUMPI PUSH2 0x1091 PUSH2 0xB4B JUMP JUMPDEST JUMPDEST PUSH2 0x109E DUP10 DUP3 DUP11 ADD PUSH2 0xFA1 JUMP JUMPDEST SWAP2 POP POP SWAP3 SWAP6 POP SWAP3 SWAP6 POP SWAP3 SWAP6 JUMP JUMPDEST PUSH0 DUP2 MLOAD SWAP1 POP SWAP2 SWAP1 POP JUMP JUMPDEST PUSH0 DUP3 DUP3 MSTORE PUSH1 0x20 DUP3 ADD SWAP1 POP SWAP3 SWAP2 POP POP JUMP JUMPDEST PUSH0 DUP2 SWAP1 POP PUSH1 0x20 DUP3 ADD SWAP1 POP SWAP2 SWAP1 POP JUMP JUMPDEST PUSH0 DUP3 DUP3 MSTORE PUSH1 0x20 DUP3 ADD SWAP1 POP SWAP3 SWAP2 POP POP JUMP JUMPDEST PUSH0 PUSH2 0x10EE DUP3 PUSH2 0xD86 JUMP JUMPDEST PUSH2 0x10F8 DUP2 DUP6 PUSH2 0x10D4 JUMP JUMPDEST SWAP4 POP PUSH2 0x1108 DUP2 DUP6 PUSH1 0x20 DUP7 ADD PUSH2 0xDA0 JUMP JUMPDEST PUSH2 0x1111 DUP2 PUSH2 0xDAE JUMP JUMPDEST DUP5 ADD SWAP2 POP POP SWAP3 SWAP2 POP POP JUMP JUMPDEST PUSH0 DUP3 DUP3 MSTORE PUSH1 0x20 DUP3 ADD SWAP1 POP SWAP3 SWAP2 POP POP JUMP JUMPDEST PUSH0 PUSH2 0x1136 DUP3 PUSH2 0xBA4 JUMP JUMPDEST PUSH2 0x1140 DUP2 DUP6 PUSH2 0x111C JUMP JUMPDEST SWAP4 POP PUSH2 0x114B DUP4 PUSH2 0xBBE JUMP JUMPDEST DUP1 PUSH0 JUMPDEST DUP4 DUP2 LT ISZERO PUSH2 0x117B JUMPI DUP2 MLOAD PUSH2 0x1162 DUP9 DUP3 PUSH2 0xC0C JUMP JUMPDEST SWAP8 POP PUSH2 0x116D DUP4 PUSH2 0xC23 JUMP JUMPDEST SWAP3 POP POP PUSH1 0x1 DUP2 ADD SWAP1 POP PUSH2 0x114E JUMP JUMPDEST POP DUP6 SWAP4 POP POP POP POP SWAP3 SWAP2 POP POP JUMP JUMPDEST PUSH0 DUP3 DUP3 MSTORE PUSH1 0x20 DUP3 ADD SWAP1 POP SWAP3 SWAP2 POP POP JUMP JUMPDEST PUSH0 PUSH2 0x11A2 DUP3 PUSH2 0xC8B JUMP JUMPDEST PUSH2 0x11AC DUP2 DUP6 PUSH2 0x1188 JUMP JUMPDEST SWAP4 POP PUSH2 0x11B7 DUP4 PUSH2 0xCA5 JUMP JUMPDEST DUP1 PUSH0 JUMPDEST DUP4 DUP2 LT ISZERO PUSH2 0x11E7 JUMPI DUP2 MLOAD PUSH2 0x11CE DUP9 DUP3 PUSH2 0xCC3 JUMP JUMPDEST SWAP8 POP PUSH2 0x11D9 DUP4 PUSH2 0xCDA JUMP JUMPDEST SWAP3 POP POP PUSH1 0x1 DUP2 ADD SWAP1 POP PUSH2 0x11BA JUMP JUMPDEST POP DUP6 SWAP4 POP POP POP POP SWAP3 SWAP2 POP POP JUMP JUMPDEST PUSH0 PUSH2 0x120 DUP4 ADD PUSH0 DUP4 ADD MLOAD PUSH2 0x120A PUSH0 DUP7 ADD DUP3 PUSH2 0xBFD JUMP JUMPDEST POP PUSH1 0x20 DUP4 ADD MLOAD DUP5 DUP3 SUB PUSH1 0x20 DUP7 ADD MSTORE PUSH2 0x1222 DUP3 DUP3 PUSH2 0x10E4 JUMP JUMPDEST SWAP2 POP POP PUSH1 0x40 DUP4 ADD MLOAD DUP5 DUP3 SUB PUSH1 0x40 DUP7 ADD MSTORE PUSH2 0x123C DUP3 DUP3 PUSH2 0x10E4 JUMP JUMPDEST SWAP2 POP POP PUSH1 0x60 DUP4 ADD MLOAD PUSH2 0x1251 PUSH1 0x60 DUP7 ADD DUP3 PUSH2 0xCB4 JUMP JUMPDEST POP PUSH1 0x80 DUP4 ADD MLOAD PUSH2 0x1264 PUSH1 0x80 DUP7 ADD DUP3 PUSH2 0xCB4 JUMP JUMPDEST POP PUSH1 0xA0 DUP4 ADD MLOAD PUSH2 0x1277 PUSH1 0xA0 DUP7 ADD DUP3 PUSH2 0xCB4 JUMP JUMPDEST POP PUSH1 0xC0 DUP4 ADD MLOAD DUP5 DUP3 SUB PUSH1 0xC0 DUP7 ADD MSTORE PUSH2 0x128F DUP3 DUP3 PUSH2 0x10E4 JUMP JUMPDEST SWAP2 POP POP PUSH1 0xE0 DUP4 ADD MLOAD DUP5 DUP3 SUB PUSH1 0xE0 DUP7 ADD MSTORE PUSH2 0x12A9 DUP3 DUP3 PUSH2 0x112C JUMP JUMPDEST SWAP2 POP POP PUSH2 0x100 DUP4 ADD MLOAD DUP5 DUP3 SUB PUSH2 0x100 DUP7 ADD MSTORE PUSH2 0x12C5 DUP3 DUP3 PUSH2 0x1198 JUMP JUMPDEST SWAP2 POP POP DUP1 SWAP2 POP POP SWAP3 SWAP2 POP POP JUMP JUMPDEST PUSH0 PUSH2 0x12DD DUP4 DUP4 PUSH2 0x11F4 JUMP JUMPDEST SWAP1 POP SWAP3 SWAP2 POP POP JUMP JUMPDEST PUSH0 PUSH1 0x20 DUP3 ADD SWAP1 POP SWAP2 SWAP1 POP JUMP JUMPDEST PUSH0 PUSH2 0x12FB DUP3 PUSH2 0x10AB JUMP JUMPDEST PUSH2 0x1305 DUP2 DUP6 PUSH2 0x10B5 JUMP JUMPDEST SWAP4 POP DUP4 PUSH1 0x20 DUP3 MUL DUP6 ADD PUSH2 0x1317 DUP6 PUSH2 0x10C5 JUMP JUMPDEST DUP1 PUSH0 JUMPDEST DUP6 DUP2 LT ISZERO PUSH2 0x1352 JUMPI DUP5 DUP5 SUB DUP10 MSTORE DUP2 MLOAD PUSH2 0x1333 DUP6 DUP3 PUSH2 0x12D2 JUMP JUMPDEST SWAP5 POP PUSH2 0x133E DUP4 PUSH2 0x12E5 JUMP JUMPDEST SWAP3 POP PUSH1 0x20 DUP11 ADD SWAP10 POP POP PUSH1 0x1 DUP2 ADD SWAP1 POP PUSH2 0x131A JUMP JUMPDEST POP DUP3 SWAP8 POP DUP8 SWAP6 POP POP POP POP POP POP SWAP3 SWAP2 POP POP JUMP JUMPDEST PUSH0 PUSH1 0x20 DUP3 ADD SWAP1 POP DUP2 DUP2 SUB PUSH0 DUP4 ADD MSTORE PUSH2 0x137C DUP2 DUP5 PUSH2 0x12F1 JUMP JUMPDEST SWAP1 POP SWAP3 SWAP2 POP POP JUMP JUMPDEST PUSH32 0x4E487B7100000000000000000000000000000000000000000000000000000000 PUSH0 MSTORE PUSH1 0x22 PUSH1 0x4 MSTORE PUSH1 0x24 PUSH0 REVERT JUMPDEST PUSH0 PUSH1 0x2 DUP3 DIV SWAP1 POP PUSH1 0x1 DUP3 AND DUP1 PUSH2 0x13C8 JUMPI PUSH1 0x7F DUP3 AND SWAP2 POP JUMPDEST PUSH1 0x20 DUP3 LT DUP2 SUB PUSH2 0x13DB JUMPI PUSH2 0x13DA PUSH2 0x1384 JUMP JUMPDEST JUMPDEST POP SWAP2 SWAP1 POP JUMP JUMPDEST PUSH0 DUP2 SWAP1 POP SWAP3 SWAP2 POP POP JUMP JUMPDEST POP JUMP JUMPDEST PUSH0 PUSH2 0x13F9 PUSH0 DUP4 PUSH2 0x13E1 JUMP JUMPDEST SWAP2 POP PUSH2 0x1404 DUP3 PUSH2 0x13EB JUMP JUMPDEST PUSH0 DUP3 ADD SWAP1 POP SWAP2 SWAP1 POP JUMP JUMPDEST PUSH0 PUSH2 0x1418 DUP3 PUSH2 0x13EE JUMP JUMPDEST SWAP2 POP DUP2 SWAP1 POP SWAP2 SWAP1 POP JUMP JUMPDEST PUSH32 0x4E487B7100000000000000000000000000000000000000000000000000000000 PUSH0 MSTORE PUSH1 0x11 PUSH1 0x4 MSTORE PUSH1 0x24 PUSH0 REVERT JUMPDEST PUSH0 PUSH2 0x1459 DUP3 PUSH2 0xB0D JUMP JUMPDEST SWAP2 POP PUSH2 0x1464 DUP4 PUSH2 0xB0D JUMP JUMPDEST SWAP3 POP DUP3 DUP3 ADD SWAP1 POP DUP1 DUP3 GT ISZERO PUSH2 0x147C JUMPI PUSH2 0x147B PUSH2 0x1422 JUMP JUMPDEST JUMPDEST SWAP3 SWAP2 POP POP JUMP JUMPDEST PUSH32 0x54686520646561646C696E652073686F756C642062652061206461746120696E PUSH0 DUP3 ADD MSTORE PUSH32 0x20746865206675747572652E0000000000000000000000000000000000000000 PUSH1 0x20 DUP3 ADD MSTORE POP JUMP JUMPDEST PUSH0 PUSH2 0x14DC PUSH1 0x2C DUP4 PUSH2 0xD90 JUMP JUMPDEST SWAP2 POP PUSH2 0x14E7 DUP3 PUSH2 0x1482 JUMP JUMPDEST PUSH1 0x40 DUP3 ADD SWAP1 POP SWAP2 SWAP1 POP JUMP JUMPDEST PUSH0 PUSH1 0x20 DUP3 ADD SWAP1 POP DUP2 DUP2 SUB PUSH0 DUP4 ADD MSTORE PUSH2 0x1509 DUP2 PUSH2 0x14D0 JUMP JUMPDEST SWAP1 POP SWAP2 SWAP1 POP JUMP JUMPDEST PUSH0 DUP2 SWAP1 POP DUP2 PUSH0 MSTORE PUSH1 0x20 PUSH0 KECCAK256 SWAP1 POP SWAP2 SWAP1 POP JUMP JUMPDEST PUSH0 PUSH1 0x20 PUSH1 0x1F DUP4 ADD DIV SWAP1 POP SWAP2 SWAP1 POP JUMP JUMPDEST PUSH0 DUP3 DUP3 SHL SWAP1 POP SWAP3 SWAP2 POP POP JUMP JUMPDEST PUSH0 PUSH1 0x8 DUP4 MUL PUSH2 0x156C PUSH32 0xFFFFFFFFFFFFFFFFFFFFFFFFFFFFFFFFFFFFFFFFFFFFFFFFFFFFFFFFFFFFFFFF DUP3 PUSH2 0x1531 JUMP JUMPDEST PUSH2 0x1576 DUP7 DUP4 PUSH2 0x1531 JUMP JUMPDEST SWAP6 POP DUP1 NOT DUP5 AND SWAP4 POP DUP1 DUP7 AND DUP5 OR SWAP3 POP POP POP SWAP4 SWAP3 POP POP POP JUMP JUMPDEST PUSH0 DUP2 SWAP1 POP SWAP2 SWAP1 POP JUMP JUMPDEST PUSH0 PUSH2 0x15B1 PUSH2 0x15AC PUSH2 0x15A7 DUP5 PUSH2 0xB0D JUMP JUMPDEST PUSH2 0x158E JUMP JUMPDEST PUSH2 0xB0D JUMP JUMPDEST SWAP1 POP SWAP2 SWAP1 POP JUMP JUMPDEST PUSH0 DUP2 SWAP1 POP SWAP2 SWAP1 POP JUMP JUMPDEST PUSH2 0x15CA DUP4 PUSH2 0x1597 JUMP JUMPDEST PUSH2 0x15DE PUSH2 0x15D6 DUP3 PUSH2 0x15B8 JUMP JUMPDEST DUP5 DUP5 SLOAD PUSH2 0x153D JUMP JUMPDEST DUP3 SSTORE POP POP POP POP JUMP JUMPDEST PUSH0 PUSH0 SWAP1 POP SWAP1 JUMP JUMPDEST PUSH2 0x15F5 PUSH2 0x15E6 JUMP JUMPDEST PUSH2 0x1600 DUP2 DUP5 DUP5 PUSH2 0x15C1 JUMP JUMPDEST POP POP POP JUMP JUMPDEST JUMPDEST DUP2 DUP2 LT ISZERO PUSH2 0x1623 JUMPI PUSH2 0x1618 PUSH0 DUP3 PUSH2 0x15ED JUMP JUMPDEST PUSH1 0x1 DUP2 ADD SWAP1 POP PUSH2 0x1606 JUMP JUMPDEST POP POP JUMP JUMPDEST PUSH1 0x1F DUP3 GT ISZERO PUSH2 0x1668 JUMPI PUSH2 0x1639 DUP2 PUSH2 0x1510 JUMP JUMPDEST PUSH2 0x1642 DUP5 PUSH2 0x1522 JUMP JUMPDEST DUP2 ADD PUSH1 0x20 DUP6 LT ISZERO PUSH2 0x1651 JUMPI DUP2 SWAP1 POP JUMPDEST PUSH2 0x1665 PUSH2 0x165D DUP6 PUSH2 0x1522 JUMP JUMPDEST DUP4 ADD DUP3 PUSH2 0x1605 JUMP JUMPDEST POP POP JUMPDEST POP POP POP JUMP JUMPDEST PUSH0 DUP3 DUP3 SHR SWAP1 POP SWAP3 SWAP2 POP POP JUMP JUMPDEST PUSH0 PUSH2 0x1688 PUSH0 NOT DUP5 PUSH1 0x8 MUL PUSH2 0x166D JUMP JUMPDEST NOT DUP1 DUP4 AND SWAP2 POP POP SWAP3 SWAP2 POP POP JUMP JUMPDEST PUSH0 PUSH2 0x16A0 DUP4 DUP4 PUSH2 0x1679 JUMP JUMPDEST SWAP2 POP DUP3 PUSH1 0x2 MUL DUP3 OR SWAP1 POP SWAP3 SWAP2 POP POP JUMP JUMPDEST PUSH2 0x16B9 DUP3 PUSH2 0xD86 JUMP JUMPDEST PUSH8 0xFFFFFFFFFFFFFFFF DUP2 GT ISZERO PUSH2 0x16D2 JUMPI PUSH2 0x16D1 PUSH2 0xEAA JUMP JUMPDEST JUMPDEST PUSH2 0x16DC DUP3 SLOAD PUSH2 0x13B1 JUMP JUMPDEST PUSH2 0x16E7 DUP3 DUP3 DUP6 PUSH2 0x1627 JUMP JUMPDEST PUSH0 PUSH1 0x20 SWAP1 POP PUSH1 0x1F DUP4 GT PUSH1 0x1 DUP2 EQ PUSH2 0x1718 JUMPI PUSH0 DUP5 ISZERO PUSH2 0x1706 JUMPI DUP3 DUP8 ADD MLOAD SWAP1 POP JUMPDEST PUSH2 0x1710 DUP6 DUP3 PUSH2 0x1695 JUMP JUMPDEST DUP7 SSTORE POP PUSH2 0x1777 JUMP JUMPDEST PUSH1 0x1F NOT DUP5 AND PUSH2 0x1726 DUP7 PUSH2 0x1510 JUMP JUMPDEST PUSH0 JUMPDEST DUP3 DUP2 LT ISZERO PUSH2 0x174D JUMPI DUP5 DUP10 ADD MLOAD DUP3 SSTORE PUSH1 0x1 DUP3 ADD SWAP2 POP PUSH1 0x20 DUP6 ADD SWAP5 POP PUSH1 0x20 DUP2 ADD SWAP1 POP PUSH2 0x1728 JUMP JUMPDEST DUP7 DUP4 LT ISZERO PUSH2 0x176A JUMPI DUP5 DUP10 ADD MLOAD PUSH2 0x1766 PUSH1 0x1F DUP10 AND DUP3 PUSH2 0x1679 JUMP JUMPDEST DUP4 SSTORE POP JUMPDEST PUSH1 0x1 PUSH1 0x2 DUP9 MUL ADD DUP9 SSTORE POP POP POP JUMPDEST POP POP POP POP POP POP JUMP JUMPDEST PUSH0 PUSH2 0x1789 DUP3 PUSH2 0xB0D JUMP JUMPDEST SWAP2 POP PUSH32 0xFFFFFFFFFFFFFFFFFFFFFFFFFFFFFFFFFFFFFFFFFFFFFFFFFFFFFFFFFFFFFFFF DUP3 SUB PUSH2 0x17BB JUMPI PUSH2 0x17BA PUSH2 0x1422 JUMP JUMPDEST JUMPDEST PUSH1 0x1 DUP3 ADD SWAP1 POP SWAP2 SWAP1 POP JUMP JUMPDEST PUSH0 PUSH2 0x17D0 DUP3 PUSH2 0xB0D JUMP JUMPDEST SWAP2 POP PUSH2 0x17DB DUP4 PUSH2 0xB0D JUMP JUMPDEST SWAP3 POP DUP3 DUP3 SUB SWAP1 POP DUP2 DUP2 GT ISZERO PUSH2 0x17F3 JUMPI PUSH2 0x17F2 PUSH2 0x1422 JUMP JUMPDEST JUMPDEST SWAP3 SWAP2 POP POP JUMP JUMPDEST PUSH32 0x4E487B7100000000000000000000000000000000000000000000000000000000 PUSH0 MSTORE PUSH1 0x32 PUSH1 0x4 MSTORE PUSH1 0x24 PUSH0 REVERT INVALID LOG2 PUSH5 0x6970667358 0x22 SLT KECCAK256 0xFC DUP11 NOT SWAPN 0x1B PREVRANDAO SLT 0xC RETURNDATACOPY GASLIMIT DUP2 ISZERO MOD RETURNDATASIZE EXTDELEGATECALL 0x2D PUSH26 0xE1E01590113D3351CEF4D7AEA257F64736F6C634300081E0033 "
				},
				"gasEstimates": {
					"creation": {
						"codeDepositCost": "1247200",
						"executionCost": "6298",
						"totalCost": "1253498"
					},
					"external": {
						"campaigns(uint256)": "infinite",
						"createCampaign(address,string,string,uint256,uint256,string)": "infinite",
						"donateToCampaign(uint256)": "infinite",
						"getCampaigns()": "infinite",
						"getDonators(uint256)": "infinite",
						"numberOfCampaigns()": "2403"
					}
				},
				"methodIdentifiers": {
					"campaigns(uint256)": "141961bc",
					"createCampaign(address,string,string,uint256,uint256,string)": "9943e3a1",
					"donateToCampaign(uint256)": "42a4fda8",
					"getCampaigns()": "a6b03633",
					"getDonators(uint256)": "0fa91fa9",
					"numberOfCampaigns()": "07ca140d"
				}
			},
			"storageLayout": {
				"storage": [
					{
						"astId": 27,
						"contract": "web3/contracts/CrowdFunding.sol:CrowdFunding",
						"label": "campaigns",
						"offset": 0,
						"slot": "0",
						"type": "t_mapping(t_uint256,t_struct(Campaign)22_storage)"
					},
					{
						"astId": 30,
						"contract": "web3/contracts/CrowdFunding.sol:CrowdFunding",
						"label": "numberOfCampaigns",
						"offset": 0,
						"slot": "1",
						"type": "t_uint256"
					}
				],
				"types": {
					"t_address": {
						"encoding": "inplace",
						"label": "address",
						"numberOfBytes": "20"
					},
					"t_array(t_address)dyn_storage": {
						"base": "t_address",
						"encoding": "dynamic_array",
						"label": "address[]",
						"numberOfBytes": "32"
					},
					"t_array(t_uint256)dyn_storage": {
						"base": "t_uint256",
						"encoding": "dynamic_array",
						"label": "uint256[]",
						"numberOfBytes": "32"
					},
					"t_mapping(t_uint256,t_struct(Campaign)22_storage)": {
						"encoding": "mapping",
						"key": "t_uint256",
						"label": "mapping(uint256 => struct CrowdFunding.Campaign)",
						"numberOfBytes": "32",
						"value": "t_struct(Campaign)22_storage"
					},
					"t_string_storage": {
						"encoding": "bytes",
						"label": "string",
						"numberOfBytes": "32"
					},
					"t_struct(Campaign)22_storage": {
						"encoding": "inplace",
						"label": "struct CrowdFunding.Campaign",
						"members": [
							{
								"astId": 3,
								"contract": "web3/contracts/CrowdFunding.sol:CrowdFunding",
								"label": "owner",
								"offset": 0,
								"slot": "0",
								"type": "t_address"
							},
							{
								"astId": 5,
								"contract": "web3/contracts/CrowdFunding.sol:CrowdFunding",
								"label": "title",
								"offset": 0,
								"slot": "1",
								"type": "t_string_storage"
							},
							{
								"astId": 7,
								"contract": "web3/contracts/CrowdFunding.sol:CrowdFunding",
								"label": "description",
								"offset": 0,
								"slot": "2",
								"type": "t_string_storage"
							},
							{
								"astId": 9,
								"contract": "web3/contracts/CrowdFunding.sol:CrowdFunding",
								"label": "target",
								"offset": 0,
								"slot": "3",
								"type": "t_uint256"
							},
							{
								"astId": 11,
								"contract": "web3/contracts/CrowdFunding.sol:CrowdFunding",
								"label": "deadline",
								"offset": 0,
								"slot": "4",
								"type": "t_uint256"
							},
							{
								"astId": 13,
								"contract": "web3/contracts/CrowdFunding.sol:CrowdFunding",
								"label": "amountCollected",
								"offset": 0,
								"slot": "5",
								"type": "t_uint256"
							},
							{
								"astId": 15,
								"contract": "web3/contracts/CrowdFunding.sol:CrowdFunding",
								"label": "image",
								"offset": 0,
								"slot": "6",
								"type": "t_string_storage"
							},
							{
								"astId": 18,
								"contract": "web3/contracts/CrowdFunding.sol:CrowdFunding",
								"label": "donators",
								"offset": 0,
								"slot": "7",
								"type": "t_array(t_address)dyn_storage"
							},
							{
								"astId": 21,
								"contract": "web3/contracts/CrowdFunding.sol:CrowdFunding",
								"label": "donations",
								"offset": 0,
								"slot": "8",
								"type": "t_array(t_uint256)dyn_storage"
							}
						],
						"numberOfBytes": "288"
					},
					"t_uint256": {
						"encoding": "inplace",
						"label": "uint256",
						"numberOfBytes": "32"
					}
				}
			},
			"userdoc": {
				"kind": "user",
				"methods": {},
				"version": 1
			}
		}
	}
}